{
  "contracts/SinglePairOrderBookDEX.sol": {
    "SinglePairOrderBookDEX": {
      "abi": [
        {
          "inputs": [
            {
              "internalType": "address",
              "name": "_base",
              "type": "address"
            },
            {
              "internalType": "address",
              "name": "_quote",
              "type": "address"
            }
          ],
          "stateMutability": "nonpayable",
          "type": "constructor"
        },
        {
          "inputs": [],
          "name": "InsufficientLiquidity",
          "type": "error"
        },
        {
          "inputs": [],
          "name": "InvalidAmount",
          "type": "error"
        },
        {
          "inputs": [],
          "name": "InvalidPrice",
          "type": "error"
        },
        {
          "inputs": [],
          "name": "NotActive",
          "type": "error"
        },
        {
          "inputs": [],
          "name": "NotOwner",
          "type": "error"
        },
        {
          "inputs": [],
          "name": "TransferFailed",
          "type": "error"
        },
        {
          "anonymous": false,
          "inputs": [
            {
              "indexed": true,
              "internalType": "uint256",
              "name": "orderId",
              "type": "uint256"
            },
            {
              "indexed": true,
              "internalType": "address",
              "name": "trader",
              "type": "address"
            },
            {
              "indexed": false,
              "internalType": "enum SinglePairOrderBookDEX.Side",
              "name": "side",
              "type": "uint8"
            },
            {
              "indexed": false,
              "internalType": "uint256",
              "name": "price",
              "type": "uint256"
            },
            {
              "indexed": false,
              "internalType": "uint256",
              "name": "amountBase",
              "type": "uint256"
            }
          ],
          "name": "LimitOrderPlaced",
          "type": "event"
        },
        {
          "anonymous": false,
          "inputs": [
            {
              "indexed": true,
              "internalType": "uint256",
              "name": "orderId",
              "type": "uint256"
            },
            {
              "indexed": true,
              "internalType": "address",
              "name": "trader",
              "type": "address"
            }
          ],
          "name": "OrderCancelled",
          "type": "event"
        },
        {
          "anonymous": false,
          "inputs": [
            {
              "indexed": true,
              "internalType": "uint256",
              "name": "makerOrderId",
              "type": "uint256"
            },
            {
              "indexed": true,
              "internalType": "address",
              "name": "maker",
              "type": "address"
            },
            {
              "indexed": true,
              "internalType": "address",
              "name": "taker",
              "type": "address"
            },
            {
              "indexed": false,
              "internalType": "enum SinglePairOrderBookDEX.Side",
              "name": "takerSide",
              "type": "uint8"
            },
            {
              "indexed": false,
              "internalType": "uint256",
              "name": "price",
              "type": "uint256"
            },
            {
              "indexed": false,
              "internalType": "uint256",
              "name": "amountBase",
              "type": "uint256"
            }
          ],
          "name": "Trade",
          "type": "event"
        },
        {
          "inputs": [],
          "name": "PRICE_SCALE",
          "outputs": [
            {
              "internalType": "uint256",
              "name": "",
              "type": "uint256"
            }
          ],
          "stateMutability": "view",
          "type": "function"
        },
        {
          "inputs": [
            {
              "internalType": "uint256",
              "name": "",
              "type": "uint256"
            }
          ],
          "name": "askIds",
          "outputs": [
            {
              "internalType": "uint256",
              "name": "",
              "type": "uint256"
            }
          ],
          "stateMutability": "view",
          "type": "function"
        },
        {
          "inputs": [],
          "name": "baseToken",
          "outputs": [
            {
              "internalType": "contract IERC20",
              "name": "",
              "type": "address"
            }
          ],
          "stateMutability": "view",
          "type": "function"
        },
        {
          "inputs": [
            {
              "internalType": "uint256",
              "name": "",
              "type": "uint256"
            }
          ],
          "name": "bidIds",
          "outputs": [
            {
              "internalType": "uint256",
              "name": "",
              "type": "uint256"
            }
          ],
          "stateMutability": "view",
          "type": "function"
        },
        {
          "inputs": [
            {
              "internalType": "uint256",
              "name": "orderId",
              "type": "uint256"
            }
          ],
          "name": "cancelOrder",
          "outputs": [],
          "stateMutability": "nonpayable",
          "type": "function"
        },
        {
          "inputs": [],
          "name": "getLastPrice",
          "outputs": [
            {
              "internalType": "uint256",
              "name": "",
              "type": "uint256"
            }
          ],
          "stateMutability": "view",
          "type": "function"
        },
        {
          "inputs": [
            {
              "internalType": "uint256",
              "name": "topN",
              "type": "uint256"
            }
          ],
          "name": "getOrderBookDepth",
          "outputs": [
            {
              "internalType": "uint256[]",
              "name": "",
              "type": "uint256[]"
            },
            {
              "internalType": "uint256[]",
              "name": "",
              "type": "uint256[]"
            },
            {
              "internalType": "uint256[]",
              "name": "",
              "type": "uint256[]"
            },
            {
              "internalType": "uint256[]",
              "name": "",
              "type": "uint256[]"
            }
          ],
          "stateMutability": "view",
          "type": "function"
        },
        {
          "inputs": [],
          "name": "lastTradePrice",
          "outputs": [
            {
              "internalType": "uint256",
              "name": "",
              "type": "uint256"
            }
          ],
          "stateMutability": "view",
          "type": "function"
        },
        {
          "inputs": [
            {
              "internalType": "uint256",
              "name": "price",
              "type": "uint256"
            },
            {
              "internalType": "uint256",
              "name": "amountBase",
              "type": "uint256"
            }
          ],
          "name": "limitBuy",
          "outputs": [
            {
              "internalType": "uint256",
              "name": "orderId",
              "type": "uint256"
            }
          ],
          "stateMutability": "nonpayable",
          "type": "function"
        },
        {
          "inputs": [
            {
              "internalType": "uint256",
              "name": "price",
              "type": "uint256"
            },
            {
              "internalType": "uint256",
              "name": "amountBase",
              "type": "uint256"
            }
          ],
          "name": "limitSell",
          "outputs": [
            {
              "internalType": "uint256",
              "name": "orderId",
              "type": "uint256"
            }
          ],
          "stateMutability": "nonpayable",
          "type": "function"
        },
        {
          "inputs": [
            {
              "internalType": "uint256",
              "name": "maxQuoteIn",
              "type": "uint256"
            }
          ],
          "name": "marketBuy",
          "outputs": [],
          "stateMutability": "nonpayable",
          "type": "function"
        },
        {
          "inputs": [
            {
              "internalType": "uint256",
              "name": "amountBase",
              "type": "uint256"
            }
          ],
          "name": "marketSell",
          "outputs": [],
          "stateMutability": "nonpayable",
          "type": "function"
        },
        {
          "inputs": [],
          "name": "nextOrderId",
          "outputs": [
            {
              "internalType": "uint256",
              "name": "",
              "type": "uint256"
            }
          ],
          "stateMutability": "view",
          "type": "function"
        },
        {
          "inputs": [
            {
              "internalType": "uint256",
              "name": "",
              "type": "uint256"
            }
          ],
          "name": "orders",
          "outputs": [
            {
              "internalType": "uint256",
              "name": "id",
              "type": "uint256"
            },
            {
              "internalType": "address",
              "name": "trader",
              "type": "address"
            },
            {
              "internalType": "enum SinglePairOrderBookDEX.Side",
              "name": "side",
              "type": "uint8"
            },
            {
              "internalType": "uint256",
              "name": "price",
              "type": "uint256"
            },
            {
              "internalType": "uint256",
              "name": "amountBase",
              "type": "uint256"
            },
            {
              "internalType": "uint256",
              "name": "filledBase",
              "type": "uint256"
            },
            {
              "internalType": "uint256",
              "name": "timestamp",
              "type": "uint256"
            },
            {
              "internalType": "bool",
              "name": "active",
              "type": "bool"
            }
          ],
          "stateMutability": "view",
          "type": "function"
        },
        {
          "inputs": [],
          "name": "quoteToken",
          "outputs": [
            {
              "internalType": "contract IERC20",
              "name": "",
              "type": "address"
            }
          ],
          "stateMutability": "view",
          "type": "function"
        }
      ],
      "evm": {
        "bytecode": {
          "linkReferences": {},
          "object": "60c0604052600160005534801561001557600080fd5b50604051611c85380380611c8583398101604081905261003491610067565b6001600160a01b039182166080521660a05261009a565b80516001600160a01b038116811461006257600080fd5b919050565b6000806040838503121561007a57600080fd5b6100838361004b565b91506100916020840161004b565b90509250929050565b60805160a051611b5d6101286000396000818161012501528181610342015281816104da015281816106a6015281816108390152818161090101528181610ac20152818161112401526111c701526000818161025f0152818161050b015281816105ed015281816108080152818161099701528181610af301528181610bbd01526110ea0152611b5d6000f3fe608060405234801561001057600080fd5b50600436106100f55760003560e01c8063961d537f11610097578063d8cf24fd11610066578063d8cf24fd14610281578063db0c9a0214610289578063df449cb81461029c578063ec3e4e6f146102a557600080fd5b8063961d537f146101b6578063a85c38ef146101d9578063c33f59d31461024b578063c55dae631461025a57600080fd5b806343eb749a116100d357806343eb749a14610168578063514fcac71461017b5780638ed6910f146101905780638fb84bb0146101a357600080fd5b80631a74df19146100fa578063217a4b70146101205780632a58b3301461015f575b600080fd5b61010d610108366004611872565b6102b8565b6040519081526020015b60405180910390f35b6101477f000000000000000000000000000000000000000000000000000000000000000081565b6040516001600160a01b039091168152602001610117565b61010d60005481565b61010d610176366004611894565b6103d6565b61018e610189366004611894565b6103f7565b005b61010d61019e366004611872565b6105a5565b61018e6101b1366004611894565b610680565b6101c96101c4366004611894565b61092c565b60405161011794939291906118e9565b6102376101e7366004611894565b6002602081905260009182526040909120805460018201549282015460038301546004840154600585015460069095015493956001600160a01b03811695600160a01b90910460ff908116951688565b604051610117989796959493929190611979565b61010d670de0b6b3a764000081565b6101477f000000000000000000000000000000000000000000000000000000000000000081565b60015461010d565b61018e610297366004611894565b610971565b61010d60015481565b61010d6102b3366004611894565b610be3565b6000826000036102da5760405162bfc92160e01b815260040160405180910390fd5b816000036102fb5760405163162908e360e11b815260040160405180910390fd5b6000670de0b6b3a764000061031085856119df565b61031a91906119f6565b90508060000361033d5760405163162908e360e11b815260040160405180910390fd5b6103697f0000000000000000000000000000000000000000000000000000000000000000333084610bf3565b61037560008585610ced565b915061038082610e03565b336001600160a01b0316827fbfa7375f10629d29376d04eeba251f3e7db963fab0091a92b799fdd4b35562ab600087876040516103bf93929190611a18565b60405180910390a36103cf610f49565b5092915050565b600481815481106103e657600080fd5b600091825260209091200154905081565b6000818152600260205260409020600681015460ff1661042a57604051634065aaf160e11b815260040160405180910390fd5b60018101546001600160a01b03163314610457576040516330cd747160e01b815260040160405180910390fd5b60068101805460ff191690556004810154600382015460009161047991611a37565b90508015610531576000600183810154600160a01b900460ff16908111156104a3576104a3611941565b03610506576000670de0b6b3a76400008360020154836104c391906119df565b6104cd91906119f6565b90508015610500576105007f0000000000000000000000000000000000000000000000000000000000000000338361129e565b50610531565b6105317f0000000000000000000000000000000000000000000000000000000000000000338361129e565b6000600183810154600160a01b900460ff169081111561055357610553611941565b036105685761056360038461138f565b610573565b61057360048461138f565b604051339084907fc0362da6f2ff36b382b34aec0814f6b3cdf89f5ef282a1d1f114d0c0b036d59690600090a3505050565b6000826000036105c75760405162bfc92160e01b815260040160405180910390fd5b816000036105e85760405163162908e360e11b815260040160405180910390fd5b6106147f0000000000000000000000000000000000000000000000000000000000000000333085610bf3565b61062060018484610ced565b905061062b81611465565b336001600160a01b0316817fbfa7375f10629d29376d04eeba251f3e7db963fab0091a92b799fdd4b35562ab6001868660405161066a93929190611a18565b60405180910390a361067a610f49565b92915050565b806000036106a15760405163162908e360e11b815260040160405180910390fd5b6106cd7f0000000000000000000000000000000000000000000000000000000000000000333084610bf3565b8060005b600454811080156106e25750600082115b156108f6576000600482815481106106fc576106fc611a4a565b60009182526020808320909101548083526002909152604090912060068101549192509060ff1661073b578261073181611a60565b93505050506106d1565b6000816004015482600301546107519190611a37565b90508060000361076c5761076484611599565b5050506106d1565b6002820154600090610786670de0b6b3a7640000886119df565b61079091906119f6565b9050806000036107a357505050506108f6565b60008282106107b257826107b4565b815b90506000670de0b6b3a76400008560020154836107d191906119df565b6107db91906119f6565b9050818560040160008282546107f19190611a79565b9091555061080190508189611a37565b975061082e7f0000000000000000000000000000000000000000000000000000000000000000338461129e565b6001850154610868907f0000000000000000000000000000000000000000000000000000000000000000906001600160a01b03168361129e565b60028501546001818155860154865460405133936001600160a01b03909316927feb7062411a6997e25eb45e7e1fb3c88cecbfa57b15d77307553b6bf937f108ba916108b8916000918990611a18565b60405180910390a484600301548560040154036108dd576108d887611599565b6108eb565b866108e781611a60565b9750505b5050505050506106d1565b8115610927576109277f0000000000000000000000000000000000000000000000000000000000000000338461129e565b505050565b6060806060808460000361093f57600a94505b60008061094d6003886115e5565b9150915060008061095f60048a6115e5565b949a9399509750929550909350505050565b806000036109925760405163162908e360e11b815260040160405180910390fd5b6109be7f0000000000000000000000000000000000000000000000000000000000000000333084610bf3565b8060005b600354811080156109d35750600082115b15610bb2576000600382815481106109ed576109ed611a4a565b60009182526020808320909101548083526002909152604090912060068101549192509060ff16610a2c5782610a2281611a60565b93505050506109c2565b600081600401548260030154610a429190611a37565b905080600003610a5d57610a558461182a565b5050506109c2565b6000818610610a6c5781610a6e565b855b90506000670de0b6b3a7640000846002015483610a8b91906119df565b610a9591906119f6565b905081846004016000828254610aab9190611a79565b90915550610abb90508288611a37565b9650610ae87f0000000000000000000000000000000000000000000000000000000000000000338361129e565b6001840154610b22907f0000000000000000000000000000000000000000000000000000000000000000906001600160a01b03168461129e565b6002840154600181815580860154865460405133946001600160a01b039093169391927feb7062411a6997e25eb45e7e1fb3c88cecbfa57b15d77307553b6bf937f108ba92610b75929091908990611a18565b60405180910390a48360030154846004015403610b9a57610b958661182a565b610ba8565b85610ba481611a60565b9650505b50505050506109c2565b8115610927576109277f0000000000000000000000000000000000000000000000000000000000000000338461129e565b600381815481106103e657600080fd5b604080516001600160a01b0385811660248301528481166044830152606480830185905283518084039091018152608490920183526020820180516001600160e01b03166323b872dd60e01b1790529151600092839290881691610c579190611a8c565b6000604051808303816000865af19150503d8060008114610c94576040519150601f19603f3d011682016040523d82523d6000602084013e610c99565b606091505b5091509150811580610cc75750805115801590610cc7575080806020019051810190610cc59190611abb565b155b15610ce5576040516312171d8360e31b815260040160405180910390fd5b505050505050565b600080548180610cfc83611a60565b9091555060408051610100810182528281523360208201529192508101856001811115610d2b57610d2b611941565b815260208082018690526040808301869052600060608401819052426080850152600160a090940184905285815260028352819020845181559184015182840180546001600160a01b031981166001600160a01b03909316928317825592860151939490926001600160a81b03191690911790600160a01b908490811115610db557610db5611941565b0217905550606082015160028201556080820151600382015560a0820151600482015560c0820151600582015560e0909101516006909101805460ff19169115159190911790559392505050565b60008181526002602052604081206003805460018101825592527fc2575a0e9e593c00f959f8c92f12db2869c3395a3b0502d05e2516446f71f85b820183905590805b8015610f235760006002816003610e5e600186611a37565b81548110610e6e57610e6e611a4a565b9060005260206000200154815260200190815260200160002090506000816002015485600201541180610eba575081600201548560020154148015610eba575081600501548560050154105b905080610ec8575050610f23565b6003610ed5600185611a37565b81548110610ee557610ee5611a4a565b906000526020600020015460038481548110610f0357610f03611a4a565b60009182526020909120015582610f1981611ae4565b9350505050610e46565b8360038281548110610f3757610f37611a4a565b60009182526020909120015550505050565b60035415801590610f5b575060045415155b1561129c576000600260006003600081548110610f7a57610f7a611a4a565b9060005260206000200154815260200190815260200160002090506000600260006004600081548110610faf57610faf611a4a565b600091825260208083209091015483528201929092526040019020600683015490915060ff16610fea57610fe3600061182a565b5050610f49565b600681015460ff1661100057610fe36000611599565b806002015482600201541015611014575050565b60008260040154836003015461102a9190611a37565b90506000826004015483600301546110429190611a37565b90508160000361105f57611056600061182a565b50505050610f49565b80600003611071576110566000611599565b60008183106110805781611082565b825b60028501549091506000670de0b6b3a764000061109f83856119df565b6110a991906119f6565b9050828760040160008282546110bf9190611a79565b92505081905550828660040160008282546110da9190611a79565b90915550506001870154611119907f0000000000000000000000000000000000000000000000000000000000000000906001600160a01b03168561129e565b6001860154611153907f0000000000000000000000000000000000000000000000000000000000000000906001600160a01b03168361129e565b8660030154876004015403611202576000670de0b6b3a76400008860020154896003015461118191906119df565b61118b91906119f6565b90506000670de0b6b3a7640000848a600301546111a891906119df565b6111b291906119f6565b9050808211156111ff5760018901546111ff907f0000000000000000000000000000000000000000000000000000000000000000906001600160a01b03166111fa8486611a37565b61129e565b50505b6001828155878101549087015487546040516001600160a01b0393841693909216917feb7062411a6997e25eb45e7e1fb3c88cecbfa57b15d77307553b6bf937f108ba906112569060009088908a90611a18565b60405180910390a4866003015487600401540361127757611277600061182a565b8560030154866004015403611290576112906000611599565b50505050505050610f49565b565b604080516001600160a01b038481166024830152604480830185905283518084039091018152606490920183526020820180516001600160e01b031663a9059cbb60e01b17905291516000928392908716916112fa9190611a8c565b6000604051808303816000865af19150503d8060008114611337576040519150601f19603f3d011682016040523d82523d6000602084013e61133c565b606091505b509150915081158061136a575080511580159061136a5750808060200190518101906113689190611abb565b155b15611388576040516312171d8360e31b815260040160405180910390fd5b5050505050565b815460005b8181101561145f57828482815481106113af576113af611a4a565b90600052602060002001540361145757805b826113cd826001611a79565b101561142a57846113df826001611a79565b815481106113ef576113ef611a4a565b906000526020600020015485828154811061140c5761140c611a4a565b6000918252602090912001558061142281611a60565b9150506113c1565b508380548061143b5761143b611afb565b6001900381819060005260206000200160009055905550505050565b600101611394565b50505050565b60008181526002602052604081206004805460018101825592527f8a35acfbc15ff81a39ae7d344fd709f28e8600b4aa8c65c6b64bfe7fe36bd19b820183905590805b801561158557600060028160046114c0600186611a37565b815481106114d0576114d0611a4a565b906000526020600020015481526020019081526020016000209050600081600201548560020154108061151c57508160020154856002015414801561151c575081600501548560050154105b90508061152a575050611585565b6004611537600185611a37565b8154811061154757611547611a4a565b90600052602060002001546004848154811061156557611565611a4a565b6000918252602090912001558261157b81611ae4565b93505050506114a8565b8360048281548110610f3757610f37611a4a565b6000600482815481106115ae576115ae611a4a565b600091825260208083209091015480835260029091526040909120600601805460ff1916905590506115e160048361138f565b5050565b6060808267ffffffffffffffff81111561160157611601611b11565b60405190808252806020026020018201604052801561162a578160200160208202803683370190505b5091508267ffffffffffffffff81111561164657611646611b11565b60405190808252806020026020018201604052801561166f578160200160208202803683370190505b5090506000805b85548110801561168557508482105b15611821576000600260008884815481106116a2576116a2611a4a565b600091825260208083209091015483528201929092526040019020600681015490915060ff166116df57816116d681611a60565b92505050611676565b6000816004015482600301546116f59190611a37565b905080600003611713578261170981611a60565b9350505050611676565b60028201546000845b8a548110156117ca576000600260008d848154811061173d5761173d611a4a565b600091825260208083209091015483528201929092526040019020600681015490915060ff1661177a578161177181611a60565b9250505061171c565b8381600201541461178b57506117ca565b6000816004015482600301546117a19190611a37565b905080156117b6576117b38185611a79565b93505b826117c081611a60565b935050505061171c565b828988815181106117dd576117dd611a4a565b602002602001018181525050818888815181106117fc576117fc611a4a565b60209081029190910101528661181181611a60565b9750508095505050505050611676565b50509250929050565b60006003828154811061183f5761183f611a4a565b600091825260208083209091015480835260029091526040909120600601805460ff1916905590506115e160038361138f565b6000806040838503121561188557600080fd5b50508035926020909101359150565b6000602082840312156118a657600080fd5b5035919050565b600081518084526020840193506020830160005b828110156118df5781518652602095860195909101906001016118c1565b5093949350505050565b6080815260006118fc60808301876118ad565b828103602084015261190e81876118ad565b9050828103604084015261192281866118ad565b9050828103606084015261193681856118ad565b979650505050505050565b634e487b7160e01b600052602160045260246000fd5b6002811061197557634e487b7160e01b600052602160045260246000fd5b9052565b8881526001600160a01b0388166020820152610100810161199d6040830189611957565b6060820196909652608081019490945260a084019290925260c0830152151560e0909101529392505050565b634e487b7160e01b600052601160045260246000fd5b808202811582820484141761067a5761067a6119c9565b600082611a1357634e487b7160e01b600052601260045260246000fd5b500490565b60608101611a268286611957565b602082019390935260400152919050565b8181038181111561067a5761067a6119c9565b634e487b7160e01b600052603260045260246000fd5b600060018201611a7257611a726119c9565b5060010190565b8082018082111561067a5761067a6119c9565b6000825160005b81811015611aad5760208186018101518583015201611a93565b506000920191825250919050565b600060208284031215611acd57600080fd5b81518015158114611add57600080fd5b9392505050565b600081611af357611af36119c9565b506000190190565b634e487b7160e01b600052603160045260246000fd5b634e487b7160e01b600052604160045260246000fdfea2646970667358221220fbce982b8ff29b44960a03444d8af77547472d7345f7025d06f3851c3fb71fd564736f6c634300081c0033",
          "opcodes": "PUSH1 0xC0 PUSH1 0x40 MSTORE PUSH1 0x1 PUSH1 0x0 SSTORE CALLVALUE DUP1 ISZERO PUSH2 0x15 JUMPI PUSH1 0x0 DUP1 REVERT JUMPDEST POP PUSH1 0x40 MLOAD PUSH2 0x1C85 CODESIZE SUB DUP1 PUSH2 0x1C85 DUP4 CODECOPY DUP2 ADD PUSH1 0x40 DUP2 SWAP1 MSTORE PUSH2 0x34 SWAP2 PUSH2 0x67 JUMP JUMPDEST PUSH1 0x1 PUSH1 0x1 PUSH1 0xA0 SHL SUB SWAP2 DUP3 AND PUSH1 0x80 MSTORE AND PUSH1 0xA0 MSTORE PUSH2 0x9A JUMP JUMPDEST DUP1 MLOAD PUSH1 0x1 PUSH1 0x1 PUSH1 0xA0 SHL SUB DUP2 AND DUP2 EQ PUSH2 0x62 JUMPI PUSH1 0x0 DUP1 REVERT JUMPDEST SWAP2 SWAP1 POP JUMP JUMPDEST PUSH1 0x0 DUP1 PUSH1 0x40 DUP4 DUP6 SUB SLT ISZERO PUSH2 0x7A JUMPI PUSH1 0x0 DUP1 REVERT JUMPDEST PUSH2 0x83 DUP4 PUSH2 0x4B JUMP JUMPDEST SWAP2 POP PUSH2 0x91 PUSH1 0x20 DUP5 ADD PUSH2 0x4B JUMP JUMPDEST SWAP1 POP SWAP3 POP SWAP3 SWAP1 POP JUMP JUMPDEST PUSH1 0x80 MLOAD PUSH1 0xA0 MLOAD PUSH2 0x1B5D PUSH2 0x128 PUSH1 0x0 CODECOPY PUSH1 0x0 DUP2 DUP2 PUSH2 0x125 ADD MSTORE DUP2 DUP2 PUSH2 0x342 ADD MSTORE DUP2 DUP2 PUSH2 0x4DA ADD MSTORE DUP2 DUP2 PUSH2 0x6A6 ADD MSTORE DUP2 DUP2 PUSH2 0x839 ADD MSTORE DUP2 DUP2 PUSH2 0x901 ADD MSTORE DUP2 DUP2 PUSH2 0xAC2 ADD MSTORE DUP2 DUP2 PUSH2 0x1124 ADD MSTORE PUSH2 0x11C7 ADD MSTORE PUSH1 0x0 DUP2 DUP2 PUSH2 0x25F ADD MSTORE DUP2 DUP2 PUSH2 0x50B ADD MSTORE DUP2 DUP2 PUSH2 0x5ED ADD MSTORE DUP2 DUP2 PUSH2 0x808 ADD MSTORE DUP2 DUP2 PUSH2 0x997 ADD MSTORE DUP2 DUP2 PUSH2 0xAF3 ADD MSTORE DUP2 DUP2 PUSH2 0xBBD ADD MSTORE PUSH2 0x10EA ADD MSTORE PUSH2 0x1B5D PUSH1 0x0 RETURN INVALID PUSH1 0x80 PUSH1 0x40 MSTORE CALLVALUE DUP1 ISZERO PUSH2 0x10 JUMPI PUSH1 0x0 DUP1 REVERT JUMPDEST POP PUSH1 0x4 CALLDATASIZE LT PUSH2 0xF5 JUMPI PUSH1 0x0 CALLDATALOAD PUSH1 0xE0 SHR DUP1 PUSH4 0x961D537F GT PUSH2 0x97 JUMPI DUP1 PUSH4 0xD8CF24FD GT PUSH2 0x66 JUMPI DUP1 PUSH4 0xD8CF24FD EQ PUSH2 0x281 JUMPI DUP1 PUSH4 0xDB0C9A02 EQ PUSH2 0x289 JUMPI DUP1 PUSH4 0xDF449CB8 EQ PUSH2 0x29C JUMPI DUP1 PUSH4 0xEC3E4E6F EQ PUSH2 0x2A5 JUMPI PUSH1 0x0 DUP1 REVERT JUMPDEST DUP1 PUSH4 0x961D537F EQ PUSH2 0x1B6 JUMPI DUP1 PUSH4 0xA85C38EF EQ PUSH2 0x1D9 JUMPI DUP1 PUSH4 0xC33F59D3 EQ PUSH2 0x24B JUMPI DUP1 PUSH4 0xC55DAE63 EQ PUSH2 0x25A JUMPI PUSH1 0x0 DUP1 REVERT JUMPDEST DUP1 PUSH4 0x43EB749A GT PUSH2 0xD3 JUMPI DUP1 PUSH4 0x43EB749A EQ PUSH2 0x168 JUMPI DUP1 PUSH4 0x514FCAC7 EQ PUSH2 0x17B JUMPI DUP1 PUSH4 0x8ED6910F EQ PUSH2 0x190 JUMPI DUP1 PUSH4 0x8FB84BB0 EQ PUSH2 0x1A3 JUMPI PUSH1 0x0 DUP1 REVERT JUMPDEST DUP1 PUSH4 0x1A74DF19 EQ PUSH2 0xFA JUMPI DUP1 PUSH4 0x217A4B70 EQ PUSH2 0x120 JUMPI DUP1 PUSH4 0x2A58B330 EQ PUSH2 0x15F JUMPI JUMPDEST PUSH1 0x0 DUP1 REVERT JUMPDEST PUSH2 0x10D PUSH2 0x108 CALLDATASIZE PUSH1 0x4 PUSH2 0x1872 JUMP JUMPDEST PUSH2 0x2B8 JUMP JUMPDEST PUSH1 0x40 MLOAD SWAP1 DUP2 MSTORE PUSH1 0x20 ADD JUMPDEST PUSH1 0x40 MLOAD DUP1 SWAP2 SUB SWAP1 RETURN JUMPDEST PUSH2 0x147 PUSH32 0x0 DUP2 JUMP JUMPDEST PUSH1 0x40 MLOAD PUSH1 0x1 PUSH1 0x1 PUSH1 0xA0 SHL SUB SWAP1 SWAP2 AND DUP2 MSTORE PUSH1 0x20 ADD PUSH2 0x117 JUMP JUMPDEST PUSH2 0x10D PUSH1 0x0 SLOAD DUP2 JUMP JUMPDEST PUSH2 0x10D PUSH2 0x176 CALLDATASIZE PUSH1 0x4 PUSH2 0x1894 JUMP JUMPDEST PUSH2 0x3D6 JUMP JUMPDEST PUSH2 0x18E PUSH2 0x189 CALLDATASIZE PUSH1 0x4 PUSH2 0x1894 JUMP JUMPDEST PUSH2 0x3F7 JUMP JUMPDEST STOP JUMPDEST PUSH2 0x10D PUSH2 0x19E CALLDATASIZE PUSH1 0x4 PUSH2 0x1872 JUMP JUMPDEST PUSH2 0x5A5 JUMP JUMPDEST PUSH2 0x18E PUSH2 0x1B1 CALLDATASIZE PUSH1 0x4 PUSH2 0x1894 JUMP JUMPDEST PUSH2 0x680 JUMP JUMPDEST PUSH2 0x1C9 PUSH2 0x1C4 CALLDATASIZE PUSH1 0x4 PUSH2 0x1894 JUMP JUMPDEST PUSH2 0x92C JUMP JUMPDEST PUSH1 0x40 MLOAD PUSH2 0x117 SWAP5 SWAP4 SWAP3 SWAP2 SWAP1 PUSH2 0x18E9 JUMP JUMPDEST PUSH2 0x237 PUSH2 0x1E7 CALLDATASIZE PUSH1 0x4 PUSH2 0x1894 JUMP JUMPDEST PUSH1 0x2 PUSH1 0x20 DUP2 SWAP1 MSTORE PUSH1 0x0 SWAP2 DUP3 MSTORE PUSH1 0x40 SWAP1 SWAP2 KECCAK256 DUP1 SLOAD PUSH1 0x1 DUP3 ADD SLOAD SWAP3 DUP3 ADD SLOAD PUSH1 0x3 DUP4 ADD SLOAD PUSH1 0x4 DUP5 ADD SLOAD PUSH1 0x5 DUP6 ADD SLOAD PUSH1 0x6 SWAP1 SWAP6 ADD SLOAD SWAP4 SWAP6 PUSH1 0x1 PUSH1 0x1 PUSH1 0xA0 SHL SUB DUP2 AND SWAP6 PUSH1 0x1 PUSH1 0xA0 SHL SWAP1 SWAP2 DIV PUSH1 0xFF SWAP1 DUP2 AND SWAP6 AND DUP9 JUMP JUMPDEST PUSH1 0x40 MLOAD PUSH2 0x117 SWAP9 SWAP8 SWAP7 SWAP6 SWAP5 SWAP4 SWAP3 SWAP2 SWAP1 PUSH2 0x1979 JUMP JUMPDEST PUSH2 0x10D PUSH8 0xDE0B6B3A7640000 DUP2 JUMP JUMPDEST PUSH2 0x147 PUSH32 0x0 DUP2 JUMP JUMPDEST PUSH1 0x1 SLOAD PUSH2 0x10D JUMP JUMPDEST PUSH2 0x18E PUSH2 0x297 CALLDATASIZE PUSH1 0x4 PUSH2 0x1894 JUMP JUMPDEST PUSH2 0x971 JUMP JUMPDEST PUSH2 0x10D PUSH1 0x1 SLOAD DUP2 JUMP JUMPDEST PUSH2 0x10D PUSH2 0x2B3 CALLDATASIZE PUSH1 0x4 PUSH2 0x1894 JUMP JUMPDEST PUSH2 0xBE3 JUMP JUMPDEST PUSH1 0x0 DUP3 PUSH1 0x0 SUB PUSH2 0x2DA JUMPI PUSH1 0x40 MLOAD PUSH3 0xBFC921 PUSH1 0xE0 SHL DUP2 MSTORE PUSH1 0x4 ADD PUSH1 0x40 MLOAD DUP1 SWAP2 SUB SWAP1 REVERT JUMPDEST DUP2 PUSH1 0x0 SUB PUSH2 0x2FB JUMPI PUSH1 0x40 MLOAD PUSH4 0x162908E3 PUSH1 0xE1 SHL DUP2 MSTORE PUSH1 0x4 ADD PUSH1 0x40 MLOAD DUP1 SWAP2 SUB SWAP1 REVERT JUMPDEST PUSH1 0x0 PUSH8 0xDE0B6B3A7640000 PUSH2 0x310 DUP6 DUP6 PUSH2 0x19DF JUMP JUMPDEST PUSH2 0x31A SWAP2 SWAP1 PUSH2 0x19F6 JUMP JUMPDEST SWAP1 POP DUP1 PUSH1 0x0 SUB PUSH2 0x33D JUMPI PUSH1 0x40 MLOAD PUSH4 0x162908E3 PUSH1 0xE1 SHL DUP2 MSTORE PUSH1 0x4 ADD PUSH1 0x40 MLOAD DUP1 SWAP2 SUB SWAP1 REVERT JUMPDEST PUSH2 0x369 PUSH32 0x0 CALLER ADDRESS DUP5 PUSH2 0xBF3 JUMP JUMPDEST PUSH2 0x375 PUSH1 0x0 DUP6 DUP6 PUSH2 0xCED JUMP JUMPDEST SWAP2 POP PUSH2 0x380 DUP3 PUSH2 0xE03 JUMP JUMPDEST CALLER PUSH1 0x1 PUSH1 0x1 PUSH1 0xA0 SHL SUB AND DUP3 PUSH32 0xBFA7375F10629D29376D04EEBA251F3E7DB963FAB0091A92B799FDD4B35562AB PUSH1 0x0 DUP8 DUP8 PUSH1 0x40 MLOAD PUSH2 0x3BF SWAP4 SWAP3 SWAP2 SWAP1 PUSH2 0x1A18 JUMP JUMPDEST PUSH1 0x40 MLOAD DUP1 SWAP2 SUB SWAP1 LOG3 PUSH2 0x3CF PUSH2 0xF49 JUMP JUMPDEST POP SWAP3 SWAP2 POP POP JUMP JUMPDEST PUSH1 0x4 DUP2 DUP2 SLOAD DUP2 LT PUSH2 0x3E6 JUMPI PUSH1 0x0 DUP1 REVERT JUMPDEST PUSH1 0x0 SWAP2 DUP3 MSTORE PUSH1 0x20 SWAP1 SWAP2 KECCAK256 ADD SLOAD SWAP1 POP DUP2 JUMP JUMPDEST PUSH1 0x0 DUP2 DUP2 MSTORE PUSH1 0x2 PUSH1 0x20 MSTORE PUSH1 0x40 SWAP1 KECCAK256 PUSH1 0x6 DUP2 ADD SLOAD PUSH1 0xFF AND PUSH2 0x42A JUMPI PUSH1 0x40 MLOAD PUSH4 0x4065AAF1 PUSH1 0xE1 SHL DUP2 MSTORE PUSH1 0x4 ADD PUSH1 0x40 MLOAD DUP1 SWAP2 SUB SWAP1 REVERT JUMPDEST PUSH1 0x1 DUP2 ADD SLOAD PUSH1 0x1 PUSH1 0x1 PUSH1 0xA0 SHL SUB AND CALLER EQ PUSH2 0x457 JUMPI PUSH1 0x40 MLOAD PUSH4 0x30CD7471 PUSH1 0xE0 SHL DUP2 MSTORE PUSH1 0x4 ADD PUSH1 0x40 MLOAD DUP1 SWAP2 SUB SWAP1 REVERT JUMPDEST PUSH1 0x6 DUP2 ADD DUP1 SLOAD PUSH1 0xFF NOT AND SWAP1 SSTORE PUSH1 0x4 DUP2 ADD SLOAD PUSH1 0x3 DUP3 ADD SLOAD PUSH1 0x0 SWAP2 PUSH2 0x479 SWAP2 PUSH2 0x1A37 JUMP JUMPDEST SWAP1 POP DUP1 ISZERO PUSH2 0x531 JUMPI PUSH1 0x0 PUSH1 0x1 DUP4 DUP2 ADD SLOAD PUSH1 0x1 PUSH1 0xA0 SHL SWAP1 DIV PUSH1 0xFF AND SWAP1 DUP2 GT ISZERO PUSH2 0x4A3 JUMPI PUSH2 0x4A3 PUSH2 0x1941 JUMP JUMPDEST SUB PUSH2 0x506 JUMPI PUSH1 0x0 PUSH8 0xDE0B6B3A7640000 DUP4 PUSH1 0x2 ADD SLOAD DUP4 PUSH2 0x4C3 SWAP2 SWAP1 PUSH2 0x19DF JUMP JUMPDEST PUSH2 0x4CD SWAP2 SWAP1 PUSH2 0x19F6 JUMP JUMPDEST SWAP1 POP DUP1 ISZERO PUSH2 0x500 JUMPI PUSH2 0x500 PUSH32 0x0 CALLER DUP4 PUSH2 0x129E JUMP JUMPDEST POP PUSH2 0x531 JUMP JUMPDEST PUSH2 0x531 PUSH32 0x0 CALLER DUP4 PUSH2 0x129E JUMP JUMPDEST PUSH1 0x0 PUSH1 0x1 DUP4 DUP2 ADD SLOAD PUSH1 0x1 PUSH1 0xA0 SHL SWAP1 DIV PUSH1 0xFF AND SWAP1 DUP2 GT ISZERO PUSH2 0x553 JUMPI PUSH2 0x553 PUSH2 0x1941 JUMP JUMPDEST SUB PUSH2 0x568 JUMPI PUSH2 0x563 PUSH1 0x3 DUP5 PUSH2 0x138F JUMP JUMPDEST PUSH2 0x573 JUMP JUMPDEST PUSH2 0x573 PUSH1 0x4 DUP5 PUSH2 0x138F JUMP JUMPDEST PUSH1 0x40 MLOAD CALLER SWAP1 DUP5 SWAP1 PUSH32 0xC0362DA6F2FF36B382B34AEC0814F6B3CDF89F5EF282A1D1F114D0C0B036D596 SWAP1 PUSH1 0x0 SWAP1 LOG3 POP POP POP JUMP JUMPDEST PUSH1 0x0 DUP3 PUSH1 0x0 SUB PUSH2 0x5C7 JUMPI PUSH1 0x40 MLOAD PUSH3 0xBFC921 PUSH1 0xE0 SHL DUP2 MSTORE PUSH1 0x4 ADD PUSH1 0x40 MLOAD DUP1 SWAP2 SUB SWAP1 REVERT JUMPDEST DUP2 PUSH1 0x0 SUB PUSH2 0x5E8 JUMPI PUSH1 0x40 MLOAD PUSH4 0x162908E3 PUSH1 0xE1 SHL DUP2 MSTORE PUSH1 0x4 ADD PUSH1 0x40 MLOAD DUP1 SWAP2 SUB SWAP1 REVERT JUMPDEST PUSH2 0x614 PUSH32 0x0 CALLER ADDRESS DUP6 PUSH2 0xBF3 JUMP JUMPDEST PUSH2 0x620 PUSH1 0x1 DUP5 DUP5 PUSH2 0xCED JUMP JUMPDEST SWAP1 POP PUSH2 0x62B DUP2 PUSH2 0x1465 JUMP JUMPDEST CALLER PUSH1 0x1 PUSH1 0x1 PUSH1 0xA0 SHL SUB AND DUP2 PUSH32 0xBFA7375F10629D29376D04EEBA251F3E7DB963FAB0091A92B799FDD4B35562AB PUSH1 0x1 DUP7 DUP7 PUSH1 0x40 MLOAD PUSH2 0x66A SWAP4 SWAP3 SWAP2 SWAP1 PUSH2 0x1A18 JUMP JUMPDEST PUSH1 0x40 MLOAD DUP1 SWAP2 SUB SWAP1 LOG3 PUSH2 0x67A PUSH2 0xF49 JUMP JUMPDEST SWAP3 SWAP2 POP POP JUMP JUMPDEST DUP1 PUSH1 0x0 SUB PUSH2 0x6A1 JUMPI PUSH1 0x40 MLOAD PUSH4 0x162908E3 PUSH1 0xE1 SHL DUP2 MSTORE PUSH1 0x4 ADD PUSH1 0x40 MLOAD DUP1 SWAP2 SUB SWAP1 REVERT JUMPDEST PUSH2 0x6CD PUSH32 0x0 CALLER ADDRESS DUP5 PUSH2 0xBF3 JUMP JUMPDEST DUP1 PUSH1 0x0 JUMPDEST PUSH1 0x4 SLOAD DUP2 LT DUP1 ISZERO PUSH2 0x6E2 JUMPI POP PUSH1 0x0 DUP3 GT JUMPDEST ISZERO PUSH2 0x8F6 JUMPI PUSH1 0x0 PUSH1 0x4 DUP3 DUP2 SLOAD DUP2 LT PUSH2 0x6FC JUMPI PUSH2 0x6FC PUSH2 0x1A4A JUMP JUMPDEST PUSH1 0x0 SWAP2 DUP3 MSTORE PUSH1 0x20 DUP1 DUP4 KECCAK256 SWAP1 SWAP2 ADD SLOAD DUP1 DUP4 MSTORE PUSH1 0x2 SWAP1 SWAP2 MSTORE PUSH1 0x40 SWAP1 SWAP2 KECCAK256 PUSH1 0x6 DUP2 ADD SLOAD SWAP2 SWAP3 POP SWAP1 PUSH1 0xFF AND PUSH2 0x73B JUMPI DUP3 PUSH2 0x731 DUP2 PUSH2 0x1A60 JUMP JUMPDEST SWAP4 POP POP POP POP PUSH2 0x6D1 JUMP JUMPDEST PUSH1 0x0 DUP2 PUSH1 0x4 ADD SLOAD DUP3 PUSH1 0x3 ADD SLOAD PUSH2 0x751 SWAP2 SWAP1 PUSH2 0x1A37 JUMP JUMPDEST SWAP1 POP DUP1 PUSH1 0x0 SUB PUSH2 0x76C JUMPI PUSH2 0x764 DUP5 PUSH2 0x1599 JUMP JUMPDEST POP POP POP PUSH2 0x6D1 JUMP JUMPDEST PUSH1 0x2 DUP3 ADD SLOAD PUSH1 0x0 SWAP1 PUSH2 0x786 PUSH8 0xDE0B6B3A7640000 DUP9 PUSH2 0x19DF JUMP JUMPDEST PUSH2 0x790 SWAP2 SWAP1 PUSH2 0x19F6 JUMP JUMPDEST SWAP1 POP DUP1 PUSH1 0x0 SUB PUSH2 0x7A3 JUMPI POP POP POP POP PUSH2 0x8F6 JUMP JUMPDEST PUSH1 0x0 DUP3 DUP3 LT PUSH2 0x7B2 JUMPI DUP3 PUSH2 0x7B4 JUMP JUMPDEST DUP2 JUMPDEST SWAP1 POP PUSH1 0x0 PUSH8 0xDE0B6B3A7640000 DUP6 PUSH1 0x2 ADD SLOAD DUP4 PUSH2 0x7D1 SWAP2 SWAP1 PUSH2 0x19DF JUMP JUMPDEST PUSH2 0x7DB SWAP2 SWAP1 PUSH2 0x19F6 JUMP JUMPDEST SWAP1 POP DUP2 DUP6 PUSH1 0x4 ADD PUSH1 0x0 DUP3 DUP3 SLOAD PUSH2 0x7F1 SWAP2 SWAP1 PUSH2 0x1A79 JUMP JUMPDEST SWAP1 SWAP2 SSTORE POP PUSH2 0x801 SWAP1 POP DUP2 DUP10 PUSH2 0x1A37 JUMP JUMPDEST SWAP8 POP PUSH2 0x82E PUSH32 0x0 CALLER DUP5 PUSH2 0x129E JUMP JUMPDEST PUSH1 0x1 DUP6 ADD SLOAD PUSH2 0x868 SWAP1 PUSH32 0x0 SWAP1 PUSH1 0x1 PUSH1 0x1 PUSH1 0xA0 SHL SUB AND DUP4 PUSH2 0x129E JUMP JUMPDEST PUSH1 0x2 DUP6 ADD SLOAD PUSH1 0x1 DUP2 DUP2 SSTORE DUP7 ADD SLOAD DUP7 SLOAD PUSH1 0x40 MLOAD CALLER SWAP4 PUSH1 0x1 PUSH1 0x1 PUSH1 0xA0 SHL SUB SWAP1 SWAP4 AND SWAP3 PUSH32 0xEB7062411A6997E25EB45E7E1FB3C88CECBFA57B15D77307553B6BF937F108BA SWAP2 PUSH2 0x8B8 SWAP2 PUSH1 0x0 SWAP2 DUP10 SWAP1 PUSH2 0x1A18 JUMP JUMPDEST PUSH1 0x40 MLOAD DUP1 SWAP2 SUB SWAP1 LOG4 DUP5 PUSH1 0x3 ADD SLOAD DUP6 PUSH1 0x4 ADD SLOAD SUB PUSH2 0x8DD JUMPI PUSH2 0x8D8 DUP8 PUSH2 0x1599 JUMP JUMPDEST PUSH2 0x8EB JUMP JUMPDEST DUP7 PUSH2 0x8E7 DUP2 PUSH2 0x1A60 JUMP JUMPDEST SWAP8 POP POP JUMPDEST POP POP POP POP POP POP PUSH2 0x6D1 JUMP JUMPDEST DUP2 ISZERO PUSH2 0x927 JUMPI PUSH2 0x927 PUSH32 0x0 CALLER DUP5 PUSH2 0x129E JUMP JUMPDEST POP POP POP JUMP JUMPDEST PUSH1 0x60 DUP1 PUSH1 0x60 DUP1 DUP5 PUSH1 0x0 SUB PUSH2 0x93F JUMPI PUSH1 0xA SWAP5 POP JUMPDEST PUSH1 0x0 DUP1 PUSH2 0x94D PUSH1 0x3 DUP9 PUSH2 0x15E5 JUMP JUMPDEST SWAP2 POP SWAP2 POP PUSH1 0x0 DUP1 PUSH2 0x95F PUSH1 0x4 DUP11 PUSH2 0x15E5 JUMP JUMPDEST SWAP5 SWAP11 SWAP4 SWAP10 POP SWAP8 POP SWAP3 SWAP6 POP SWAP1 SWAP4 POP POP POP POP JUMP JUMPDEST DUP1 PUSH1 0x0 SUB PUSH2 0x992 JUMPI PUSH1 0x40 MLOAD PUSH4 0x162908E3 PUSH1 0xE1 SHL DUP2 MSTORE PUSH1 0x4 ADD PUSH1 0x40 MLOAD DUP1 SWAP2 SUB SWAP1 REVERT JUMPDEST PUSH2 0x9BE PUSH32 0x0 CALLER ADDRESS DUP5 PUSH2 0xBF3 JUMP JUMPDEST DUP1 PUSH1 0x0 JUMPDEST PUSH1 0x3 SLOAD DUP2 LT DUP1 ISZERO PUSH2 0x9D3 JUMPI POP PUSH1 0x0 DUP3 GT JUMPDEST ISZERO PUSH2 0xBB2 JUMPI PUSH1 0x0 PUSH1 0x3 DUP3 DUP2 SLOAD DUP2 LT PUSH2 0x9ED JUMPI PUSH2 0x9ED PUSH2 0x1A4A JUMP JUMPDEST PUSH1 0x0 SWAP2 DUP3 MSTORE PUSH1 0x20 DUP1 DUP4 KECCAK256 SWAP1 SWAP2 ADD SLOAD DUP1 DUP4 MSTORE PUSH1 0x2 SWAP1 SWAP2 MSTORE PUSH1 0x40 SWAP1 SWAP2 KECCAK256 PUSH1 0x6 DUP2 ADD SLOAD SWAP2 SWAP3 POP SWAP1 PUSH1 0xFF AND PUSH2 0xA2C JUMPI DUP3 PUSH2 0xA22 DUP2 PUSH2 0x1A60 JUMP JUMPDEST SWAP4 POP POP POP POP PUSH2 0x9C2 JUMP JUMPDEST PUSH1 0x0 DUP2 PUSH1 0x4 ADD SLOAD DUP3 PUSH1 0x3 ADD SLOAD PUSH2 0xA42 SWAP2 SWAP1 PUSH2 0x1A37 JUMP JUMPDEST SWAP1 POP DUP1 PUSH1 0x0 SUB PUSH2 0xA5D JUMPI PUSH2 0xA55 DUP5 PUSH2 0x182A JUMP JUMPDEST POP POP POP PUSH2 0x9C2 JUMP JUMPDEST PUSH1 0x0 DUP2 DUP7 LT PUSH2 0xA6C JUMPI DUP2 PUSH2 0xA6E JUMP JUMPDEST DUP6 JUMPDEST SWAP1 POP PUSH1 0x0 PUSH8 0xDE0B6B3A7640000 DUP5 PUSH1 0x2 ADD SLOAD DUP4 PUSH2 0xA8B SWAP2 SWAP1 PUSH2 0x19DF JUMP JUMPDEST PUSH2 0xA95 SWAP2 SWAP1 PUSH2 0x19F6 JUMP JUMPDEST SWAP1 POP DUP2 DUP5 PUSH1 0x4 ADD PUSH1 0x0 DUP3 DUP3 SLOAD PUSH2 0xAAB SWAP2 SWAP1 PUSH2 0x1A79 JUMP JUMPDEST SWAP1 SWAP2 SSTORE POP PUSH2 0xABB SWAP1 POP DUP3 DUP9 PUSH2 0x1A37 JUMP JUMPDEST SWAP7 POP PUSH2 0xAE8 PUSH32 0x0 CALLER DUP4 PUSH2 0x129E JUMP JUMPDEST PUSH1 0x1 DUP5 ADD SLOAD PUSH2 0xB22 SWAP1 PUSH32 0x0 SWAP1 PUSH1 0x1 PUSH1 0x1 PUSH1 0xA0 SHL SUB AND DUP5 PUSH2 0x129E JUMP JUMPDEST PUSH1 0x2 DUP5 ADD SLOAD PUSH1 0x1 DUP2 DUP2 SSTORE DUP1 DUP7 ADD SLOAD DUP7 SLOAD PUSH1 0x40 MLOAD CALLER SWAP5 PUSH1 0x1 PUSH1 0x1 PUSH1 0xA0 SHL SUB SWAP1 SWAP4 AND SWAP4 SWAP2 SWAP3 PUSH32 0xEB7062411A6997E25EB45E7E1FB3C88CECBFA57B15D77307553B6BF937F108BA SWAP3 PUSH2 0xB75 SWAP3 SWAP1 SWAP2 SWAP1 DUP10 SWAP1 PUSH2 0x1A18 JUMP JUMPDEST PUSH1 0x40 MLOAD DUP1 SWAP2 SUB SWAP1 LOG4 DUP4 PUSH1 0x3 ADD SLOAD DUP5 PUSH1 0x4 ADD SLOAD SUB PUSH2 0xB9A JUMPI PUSH2 0xB95 DUP7 PUSH2 0x182A JUMP JUMPDEST PUSH2 0xBA8 JUMP JUMPDEST DUP6 PUSH2 0xBA4 DUP2 PUSH2 0x1A60 JUMP JUMPDEST SWAP7 POP POP JUMPDEST POP POP POP POP POP PUSH2 0x9C2 JUMP JUMPDEST DUP2 ISZERO PUSH2 0x927 JUMPI PUSH2 0x927 PUSH32 0x0 CALLER DUP5 PUSH2 0x129E JUMP JUMPDEST PUSH1 0x3 DUP2 DUP2 SLOAD DUP2 LT PUSH2 0x3E6 JUMPI PUSH1 0x0 DUP1 REVERT JUMPDEST PUSH1 0x40 DUP1 MLOAD PUSH1 0x1 PUSH1 0x1 PUSH1 0xA0 SHL SUB DUP6 DUP2 AND PUSH1 0x24 DUP4 ADD MSTORE DUP5 DUP2 AND PUSH1 0x44 DUP4 ADD MSTORE PUSH1 0x64 DUP1 DUP4 ADD DUP6 SWAP1 MSTORE DUP4 MLOAD DUP1 DUP5 SUB SWAP1 SWAP2 ADD DUP2 MSTORE PUSH1 0x84 SWAP1 SWAP3 ADD DUP4 MSTORE PUSH1 0x20 DUP3 ADD DUP1 MLOAD PUSH1 0x1 PUSH1 0x1 PUSH1 0xE0 SHL SUB AND PUSH4 0x23B872DD PUSH1 0xE0 SHL OR SWAP1 MSTORE SWAP2 MLOAD PUSH1 0x0 SWAP3 DUP4 SWAP3 SWAP1 DUP9 AND SWAP2 PUSH2 0xC57 SWAP2 SWAP1 PUSH2 0x1A8C JUMP JUMPDEST PUSH1 0x0 PUSH1 0x40 MLOAD DUP1 DUP4 SUB DUP2 PUSH1 0x0 DUP7 GAS CALL SWAP2 POP POP RETURNDATASIZE DUP1 PUSH1 0x0 DUP2 EQ PUSH2 0xC94 JUMPI PUSH1 0x40 MLOAD SWAP2 POP PUSH1 0x1F NOT PUSH1 0x3F RETURNDATASIZE ADD AND DUP3 ADD PUSH1 0x40 MSTORE RETURNDATASIZE DUP3 MSTORE RETURNDATASIZE PUSH1 0x0 PUSH1 0x20 DUP5 ADD RETURNDATACOPY PUSH2 0xC99 JUMP JUMPDEST PUSH1 0x60 SWAP2 POP JUMPDEST POP SWAP2 POP SWAP2 POP DUP2 ISZERO DUP1 PUSH2 0xCC7 JUMPI POP DUP1 MLOAD ISZERO DUP1 ISZERO SWAP1 PUSH2 0xCC7 JUMPI POP DUP1 DUP1 PUSH1 0x20 ADD SWAP1 MLOAD DUP2 ADD SWAP1 PUSH2 0xCC5 SWAP2 SWAP1 PUSH2 0x1ABB JUMP JUMPDEST ISZERO JUMPDEST ISZERO PUSH2 0xCE5 JUMPI PUSH1 0x40 MLOAD PUSH4 0x12171D83 PUSH1 0xE3 SHL DUP2 MSTORE PUSH1 0x4 ADD PUSH1 0x40 MLOAD DUP1 SWAP2 SUB SWAP1 REVERT JUMPDEST POP POP POP POP POP POP JUMP JUMPDEST PUSH1 0x0 DUP1 SLOAD DUP2 DUP1 PUSH2 0xCFC DUP4 PUSH2 0x1A60 JUMP JUMPDEST SWAP1 SWAP2 SSTORE POP PUSH1 0x40 DUP1 MLOAD PUSH2 0x100 DUP2 ADD DUP3 MSTORE DUP3 DUP2 MSTORE CALLER PUSH1 0x20 DUP3 ADD MSTORE SWAP2 SWAP3 POP DUP2 ADD DUP6 PUSH1 0x1 DUP2 GT ISZERO PUSH2 0xD2B JUMPI PUSH2 0xD2B PUSH2 0x1941 JUMP JUMPDEST DUP2 MSTORE PUSH1 0x20 DUP1 DUP3 ADD DUP7 SWAP1 MSTORE PUSH1 0x40 DUP1 DUP4 ADD DUP7 SWAP1 MSTORE PUSH1 0x0 PUSH1 0x60 DUP5 ADD DUP2 SWAP1 MSTORE TIMESTAMP PUSH1 0x80 DUP6 ADD MSTORE PUSH1 0x1 PUSH1 0xA0 SWAP1 SWAP5 ADD DUP5 SWAP1 MSTORE DUP6 DUP2 MSTORE PUSH1 0x2 DUP4 MSTORE DUP2 SWAP1 KECCAK256 DUP5 MLOAD DUP2 SSTORE SWAP2 DUP5 ADD MLOAD DUP3 DUP5 ADD DUP1 SLOAD PUSH1 0x1 PUSH1 0x1 PUSH1 0xA0 SHL SUB NOT DUP2 AND PUSH1 0x1 PUSH1 0x1 PUSH1 0xA0 SHL SUB SWAP1 SWAP4 AND SWAP3 DUP4 OR DUP3 SSTORE SWAP3 DUP7 ADD MLOAD SWAP4 SWAP5 SWAP1 SWAP3 PUSH1 0x1 PUSH1 0x1 PUSH1 0xA8 SHL SUB NOT AND SWAP1 SWAP2 OR SWAP1 PUSH1 0x1 PUSH1 0xA0 SHL SWAP1 DUP5 SWAP1 DUP2 GT ISZERO PUSH2 0xDB5 JUMPI PUSH2 0xDB5 PUSH2 0x1941 JUMP JUMPDEST MUL OR SWAP1 SSTORE POP PUSH1 0x60 DUP3 ADD MLOAD PUSH1 0x2 DUP3 ADD SSTORE PUSH1 0x80 DUP3 ADD MLOAD PUSH1 0x3 DUP3 ADD SSTORE PUSH1 0xA0 DUP3 ADD MLOAD PUSH1 0x4 DUP3 ADD SSTORE PUSH1 0xC0 DUP3 ADD MLOAD PUSH1 0x5 DUP3 ADD SSTORE PUSH1 0xE0 SWAP1 SWAP2 ADD MLOAD PUSH1 0x6 SWAP1 SWAP2 ADD DUP1 SLOAD PUSH1 0xFF NOT AND SWAP2 ISZERO ISZERO SWAP2 SWAP1 SWAP2 OR SWAP1 SSTORE SWAP4 SWAP3 POP POP POP JUMP JUMPDEST PUSH1 0x0 DUP2 DUP2 MSTORE PUSH1 0x2 PUSH1 0x20 MSTORE PUSH1 0x40 DUP2 KECCAK256 PUSH1 0x3 DUP1 SLOAD PUSH1 0x1 DUP2 ADD DUP3 SSTORE SWAP3 MSTORE PUSH32 0xC2575A0E9E593C00F959F8C92F12DB2869C3395A3B0502D05E2516446F71F85B DUP3 ADD DUP4 SWAP1 SSTORE SWAP1 DUP1 JUMPDEST DUP1 ISZERO PUSH2 0xF23 JUMPI PUSH1 0x0 PUSH1 0x2 DUP2 PUSH1 0x3 PUSH2 0xE5E PUSH1 0x1 DUP7 PUSH2 0x1A37 JUMP JUMPDEST DUP2 SLOAD DUP2 LT PUSH2 0xE6E JUMPI PUSH2 0xE6E PUSH2 0x1A4A JUMP JUMPDEST SWAP1 PUSH1 0x0 MSTORE PUSH1 0x20 PUSH1 0x0 KECCAK256 ADD SLOAD DUP2 MSTORE PUSH1 0x20 ADD SWAP1 DUP2 MSTORE PUSH1 0x20 ADD PUSH1 0x0 KECCAK256 SWAP1 POP PUSH1 0x0 DUP2 PUSH1 0x2 ADD SLOAD DUP6 PUSH1 0x2 ADD SLOAD GT DUP1 PUSH2 0xEBA JUMPI POP DUP2 PUSH1 0x2 ADD SLOAD DUP6 PUSH1 0x2 ADD SLOAD EQ DUP1 ISZERO PUSH2 0xEBA JUMPI POP DUP2 PUSH1 0x5 ADD SLOAD DUP6 PUSH1 0x5 ADD SLOAD LT JUMPDEST SWAP1 POP DUP1 PUSH2 0xEC8 JUMPI POP POP PUSH2 0xF23 JUMP JUMPDEST PUSH1 0x3 PUSH2 0xED5 PUSH1 0x1 DUP6 PUSH2 0x1A37 JUMP JUMPDEST DUP2 SLOAD DUP2 LT PUSH2 0xEE5 JUMPI PUSH2 0xEE5 PUSH2 0x1A4A JUMP JUMPDEST SWAP1 PUSH1 0x0 MSTORE PUSH1 0x20 PUSH1 0x0 KECCAK256 ADD SLOAD PUSH1 0x3 DUP5 DUP2 SLOAD DUP2 LT PUSH2 0xF03 JUMPI PUSH2 0xF03 PUSH2 0x1A4A JUMP JUMPDEST PUSH1 0x0 SWAP2 DUP3 MSTORE PUSH1 0x20 SWAP1 SWAP2 KECCAK256 ADD SSTORE DUP3 PUSH2 0xF19 DUP2 PUSH2 0x1AE4 JUMP JUMPDEST SWAP4 POP POP POP POP PUSH2 0xE46 JUMP JUMPDEST DUP4 PUSH1 0x3 DUP3 DUP2 SLOAD DUP2 LT PUSH2 0xF37 JUMPI PUSH2 0xF37 PUSH2 0x1A4A JUMP JUMPDEST PUSH1 0x0 SWAP2 DUP3 MSTORE PUSH1 0x20 SWAP1 SWAP2 KECCAK256 ADD SSTORE POP POP POP POP JUMP JUMPDEST PUSH1 0x3 SLOAD ISZERO DUP1 ISZERO SWAP1 PUSH2 0xF5B JUMPI POP PUSH1 0x4 SLOAD ISZERO ISZERO JUMPDEST ISZERO PUSH2 0x129C JUMPI PUSH1 0x0 PUSH1 0x2 PUSH1 0x0 PUSH1 0x3 PUSH1 0x0 DUP2 SLOAD DUP2 LT PUSH2 0xF7A JUMPI PUSH2 0xF7A PUSH2 0x1A4A JUMP JUMPDEST SWAP1 PUSH1 0x0 MSTORE PUSH1 0x20 PUSH1 0x0 KECCAK256 ADD SLOAD DUP2 MSTORE PUSH1 0x20 ADD SWAP1 DUP2 MSTORE PUSH1 0x20 ADD PUSH1 0x0 KECCAK256 SWAP1 POP PUSH1 0x0 PUSH1 0x2 PUSH1 0x0 PUSH1 0x4 PUSH1 0x0 DUP2 SLOAD DUP2 LT PUSH2 0xFAF JUMPI PUSH2 0xFAF PUSH2 0x1A4A JUMP JUMPDEST PUSH1 0x0 SWAP2 DUP3 MSTORE PUSH1 0x20 DUP1 DUP4 KECCAK256 SWAP1 SWAP2 ADD SLOAD DUP4 MSTORE DUP3 ADD SWAP3 SWAP1 SWAP3 MSTORE PUSH1 0x40 ADD SWAP1 KECCAK256 PUSH1 0x6 DUP4 ADD SLOAD SWAP1 SWAP2 POP PUSH1 0xFF AND PUSH2 0xFEA JUMPI PUSH2 0xFE3 PUSH1 0x0 PUSH2 0x182A JUMP JUMPDEST POP POP PUSH2 0xF49 JUMP JUMPDEST PUSH1 0x6 DUP2 ADD SLOAD PUSH1 0xFF AND PUSH2 0x1000 JUMPI PUSH2 0xFE3 PUSH1 0x0 PUSH2 0x1599 JUMP JUMPDEST DUP1 PUSH1 0x2 ADD SLOAD DUP3 PUSH1 0x2 ADD SLOAD LT ISZERO PUSH2 0x1014 JUMPI POP POP JUMP JUMPDEST PUSH1 0x0 DUP3 PUSH1 0x4 ADD SLOAD DUP4 PUSH1 0x3 ADD SLOAD PUSH2 0x102A SWAP2 SWAP1 PUSH2 0x1A37 JUMP JUMPDEST SWAP1 POP PUSH1 0x0 DUP3 PUSH1 0x4 ADD SLOAD DUP4 PUSH1 0x3 ADD SLOAD PUSH2 0x1042 SWAP2 SWAP1 PUSH2 0x1A37 JUMP JUMPDEST SWAP1 POP DUP2 PUSH1 0x0 SUB PUSH2 0x105F JUMPI PUSH2 0x1056 PUSH1 0x0 PUSH2 0x182A JUMP JUMPDEST POP POP POP POP PUSH2 0xF49 JUMP JUMPDEST DUP1 PUSH1 0x0 SUB PUSH2 0x1071 JUMPI PUSH2 0x1056 PUSH1 0x0 PUSH2 0x1599 JUMP JUMPDEST PUSH1 0x0 DUP2 DUP4 LT PUSH2 0x1080 JUMPI DUP2 PUSH2 0x1082 JUMP JUMPDEST DUP3 JUMPDEST PUSH1 0x2 DUP6 ADD SLOAD SWAP1 SWAP2 POP PUSH1 0x0 PUSH8 0xDE0B6B3A7640000 PUSH2 0x109F DUP4 DUP6 PUSH2 0x19DF JUMP JUMPDEST PUSH2 0x10A9 SWAP2 SWAP1 PUSH2 0x19F6 JUMP JUMPDEST SWAP1 POP DUP3 DUP8 PUSH1 0x4 ADD PUSH1 0x0 DUP3 DUP3 SLOAD PUSH2 0x10BF SWAP2 SWAP1 PUSH2 0x1A79 JUMP JUMPDEST SWAP3 POP POP DUP2 SWAP1 SSTORE POP DUP3 DUP7 PUSH1 0x4 ADD PUSH1 0x0 DUP3 DUP3 SLOAD PUSH2 0x10DA SWAP2 SWAP1 PUSH2 0x1A79 JUMP JUMPDEST SWAP1 SWAP2 SSTORE POP POP PUSH1 0x1 DUP8 ADD SLOAD PUSH2 0x1119 SWAP1 PUSH32 0x0 SWAP1 PUSH1 0x1 PUSH1 0x1 PUSH1 0xA0 SHL SUB AND DUP6 PUSH2 0x129E JUMP JUMPDEST PUSH1 0x1 DUP7 ADD SLOAD PUSH2 0x1153 SWAP1 PUSH32 0x0 SWAP1 PUSH1 0x1 PUSH1 0x1 PUSH1 0xA0 SHL SUB AND DUP4 PUSH2 0x129E JUMP JUMPDEST DUP7 PUSH1 0x3 ADD SLOAD DUP8 PUSH1 0x4 ADD SLOAD SUB PUSH2 0x1202 JUMPI PUSH1 0x0 PUSH8 0xDE0B6B3A7640000 DUP9 PUSH1 0x2 ADD SLOAD DUP10 PUSH1 0x3 ADD SLOAD PUSH2 0x1181 SWAP2 SWAP1 PUSH2 0x19DF JUMP JUMPDEST PUSH2 0x118B SWAP2 SWAP1 PUSH2 0x19F6 JUMP JUMPDEST SWAP1 POP PUSH1 0x0 PUSH8 0xDE0B6B3A7640000 DUP5 DUP11 PUSH1 0x3 ADD SLOAD PUSH2 0x11A8 SWAP2 SWAP1 PUSH2 0x19DF JUMP JUMPDEST PUSH2 0x11B2 SWAP2 SWAP1 PUSH2 0x19F6 JUMP JUMPDEST SWAP1 POP DUP1 DUP3 GT ISZERO PUSH2 0x11FF JUMPI PUSH1 0x1 DUP10 ADD SLOAD PUSH2 0x11FF SWAP1 PUSH32 0x0 SWAP1 PUSH1 0x1 PUSH1 0x1 PUSH1 0xA0 SHL SUB AND PUSH2 0x11FA DUP5 DUP7 PUSH2 0x1A37 JUMP JUMPDEST PUSH2 0x129E JUMP JUMPDEST POP POP JUMPDEST PUSH1 0x1 DUP3 DUP2 SSTORE DUP8 DUP2 ADD SLOAD SWAP1 DUP8 ADD SLOAD DUP8 SLOAD PUSH1 0x40 MLOAD PUSH1 0x1 PUSH1 0x1 PUSH1 0xA0 SHL SUB SWAP4 DUP5 AND SWAP4 SWAP1 SWAP3 AND SWAP2 PUSH32 0xEB7062411A6997E25EB45E7E1FB3C88CECBFA57B15D77307553B6BF937F108BA SWAP1 PUSH2 0x1256 SWAP1 PUSH1 0x0 SWAP1 DUP9 SWAP1 DUP11 SWAP1 PUSH2 0x1A18 JUMP JUMPDEST PUSH1 0x40 MLOAD DUP1 SWAP2 SUB SWAP1 LOG4 DUP7 PUSH1 0x3 ADD SLOAD DUP8 PUSH1 0x4 ADD SLOAD SUB PUSH2 0x1277 JUMPI PUSH2 0x1277 PUSH1 0x0 PUSH2 0x182A JUMP JUMPDEST DUP6 PUSH1 0x3 ADD SLOAD DUP7 PUSH1 0x4 ADD SLOAD SUB PUSH2 0x1290 JUMPI PUSH2 0x1290 PUSH1 0x0 PUSH2 0x1599 JUMP JUMPDEST POP POP POP POP POP POP POP PUSH2 0xF49 JUMP JUMPDEST JUMP JUMPDEST PUSH1 0x40 DUP1 MLOAD PUSH1 0x1 PUSH1 0x1 PUSH1 0xA0 SHL SUB DUP5 DUP2 AND PUSH1 0x24 DUP4 ADD MSTORE PUSH1 0x44 DUP1 DUP4 ADD DUP6 SWAP1 MSTORE DUP4 MLOAD DUP1 DUP5 SUB SWAP1 SWAP2 ADD DUP2 MSTORE PUSH1 0x64 SWAP1 SWAP3 ADD DUP4 MSTORE PUSH1 0x20 DUP3 ADD DUP1 MLOAD PUSH1 0x1 PUSH1 0x1 PUSH1 0xE0 SHL SUB AND PUSH4 0xA9059CBB PUSH1 0xE0 SHL OR SWAP1 MSTORE SWAP2 MLOAD PUSH1 0x0 SWAP3 DUP4 SWAP3 SWAP1 DUP8 AND SWAP2 PUSH2 0x12FA SWAP2 SWAP1 PUSH2 0x1A8C JUMP JUMPDEST PUSH1 0x0 PUSH1 0x40 MLOAD DUP1 DUP4 SUB DUP2 PUSH1 0x0 DUP7 GAS CALL SWAP2 POP POP RETURNDATASIZE DUP1 PUSH1 0x0 DUP2 EQ PUSH2 0x1337 JUMPI PUSH1 0x40 MLOAD SWAP2 POP PUSH1 0x1F NOT PUSH1 0x3F RETURNDATASIZE ADD AND DUP3 ADD PUSH1 0x40 MSTORE RETURNDATASIZE DUP3 MSTORE RETURNDATASIZE PUSH1 0x0 PUSH1 0x20 DUP5 ADD RETURNDATACOPY PUSH2 0x133C JUMP JUMPDEST PUSH1 0x60 SWAP2 POP JUMPDEST POP SWAP2 POP SWAP2 POP DUP2 ISZERO DUP1 PUSH2 0x136A JUMPI POP DUP1 MLOAD ISZERO DUP1 ISZERO SWAP1 PUSH2 0x136A JUMPI POP DUP1 DUP1 PUSH1 0x20 ADD SWAP1 MLOAD DUP2 ADD SWAP1 PUSH2 0x1368 SWAP2 SWAP1 PUSH2 0x1ABB JUMP JUMPDEST ISZERO JUMPDEST ISZERO PUSH2 0x1388 JUMPI PUSH1 0x40 MLOAD PUSH4 0x12171D83 PUSH1 0xE3 SHL DUP2 MSTORE PUSH1 0x4 ADD PUSH1 0x40 MLOAD DUP1 SWAP2 SUB SWAP1 REVERT JUMPDEST POP POP POP POP POP JUMP JUMPDEST DUP2 SLOAD PUSH1 0x0 JUMPDEST DUP2 DUP2 LT ISZERO PUSH2 0x145F JUMPI DUP3 DUP5 DUP3 DUP2 SLOAD DUP2 LT PUSH2 0x13AF JUMPI PUSH2 0x13AF PUSH2 0x1A4A JUMP JUMPDEST SWAP1 PUSH1 0x0 MSTORE PUSH1 0x20 PUSH1 0x0 KECCAK256 ADD SLOAD SUB PUSH2 0x1457 JUMPI DUP1 JUMPDEST DUP3 PUSH2 0x13CD DUP3 PUSH1 0x1 PUSH2 0x1A79 JUMP JUMPDEST LT ISZERO PUSH2 0x142A JUMPI DUP5 PUSH2 0x13DF DUP3 PUSH1 0x1 PUSH2 0x1A79 JUMP JUMPDEST DUP2 SLOAD DUP2 LT PUSH2 0x13EF JUMPI PUSH2 0x13EF PUSH2 0x1A4A JUMP JUMPDEST SWAP1 PUSH1 0x0 MSTORE PUSH1 0x20 PUSH1 0x0 KECCAK256 ADD SLOAD DUP6 DUP3 DUP2 SLOAD DUP2 LT PUSH2 0x140C JUMPI PUSH2 0x140C PUSH2 0x1A4A JUMP JUMPDEST PUSH1 0x0 SWAP2 DUP3 MSTORE PUSH1 0x20 SWAP1 SWAP2 KECCAK256 ADD SSTORE DUP1 PUSH2 0x1422 DUP2 PUSH2 0x1A60 JUMP JUMPDEST SWAP2 POP POP PUSH2 0x13C1 JUMP JUMPDEST POP DUP4 DUP1 SLOAD DUP1 PUSH2 0x143B JUMPI PUSH2 0x143B PUSH2 0x1AFB JUMP JUMPDEST PUSH1 0x1 SWAP1 SUB DUP2 DUP2 SWAP1 PUSH1 0x0 MSTORE PUSH1 0x20 PUSH1 0x0 KECCAK256 ADD PUSH1 0x0 SWAP1 SSTORE SWAP1 SSTORE POP POP POP POP JUMP JUMPDEST PUSH1 0x1 ADD PUSH2 0x1394 JUMP JUMPDEST POP POP POP POP JUMP JUMPDEST PUSH1 0x0 DUP2 DUP2 MSTORE PUSH1 0x2 PUSH1 0x20 MSTORE PUSH1 0x40 DUP2 KECCAK256 PUSH1 0x4 DUP1 SLOAD PUSH1 0x1 DUP2 ADD DUP3 SSTORE SWAP3 MSTORE PUSH32 0x8A35ACFBC15FF81A39AE7D344FD709F28E8600B4AA8C65C6B64BFE7FE36BD19B DUP3 ADD DUP4 SWAP1 SSTORE SWAP1 DUP1 JUMPDEST DUP1 ISZERO PUSH2 0x1585 JUMPI PUSH1 0x0 PUSH1 0x2 DUP2 PUSH1 0x4 PUSH2 0x14C0 PUSH1 0x1 DUP7 PUSH2 0x1A37 JUMP JUMPDEST DUP2 SLOAD DUP2 LT PUSH2 0x14D0 JUMPI PUSH2 0x14D0 PUSH2 0x1A4A JUMP JUMPDEST SWAP1 PUSH1 0x0 MSTORE PUSH1 0x20 PUSH1 0x0 KECCAK256 ADD SLOAD DUP2 MSTORE PUSH1 0x20 ADD SWAP1 DUP2 MSTORE PUSH1 0x20 ADD PUSH1 0x0 KECCAK256 SWAP1 POP PUSH1 0x0 DUP2 PUSH1 0x2 ADD SLOAD DUP6 PUSH1 0x2 ADD SLOAD LT DUP1 PUSH2 0x151C JUMPI POP DUP2 PUSH1 0x2 ADD SLOAD DUP6 PUSH1 0x2 ADD SLOAD EQ DUP1 ISZERO PUSH2 0x151C JUMPI POP DUP2 PUSH1 0x5 ADD SLOAD DUP6 PUSH1 0x5 ADD SLOAD LT JUMPDEST SWAP1 POP DUP1 PUSH2 0x152A JUMPI POP POP PUSH2 0x1585 JUMP JUMPDEST PUSH1 0x4 PUSH2 0x1537 PUSH1 0x1 DUP6 PUSH2 0x1A37 JUMP JUMPDEST DUP2 SLOAD DUP2 LT PUSH2 0x1547 JUMPI PUSH2 0x1547 PUSH2 0x1A4A JUMP JUMPDEST SWAP1 PUSH1 0x0 MSTORE PUSH1 0x20 PUSH1 0x0 KECCAK256 ADD SLOAD PUSH1 0x4 DUP5 DUP2 SLOAD DUP2 LT PUSH2 0x1565 JUMPI PUSH2 0x1565 PUSH2 0x1A4A JUMP JUMPDEST PUSH1 0x0 SWAP2 DUP3 MSTORE PUSH1 0x20 SWAP1 SWAP2 KECCAK256 ADD SSTORE DUP3 PUSH2 0x157B DUP2 PUSH2 0x1AE4 JUMP JUMPDEST SWAP4 POP POP POP POP PUSH2 0x14A8 JUMP JUMPDEST DUP4 PUSH1 0x4 DUP3 DUP2 SLOAD DUP2 LT PUSH2 0xF37 JUMPI PUSH2 0xF37 PUSH2 0x1A4A JUMP JUMPDEST PUSH1 0x0 PUSH1 0x4 DUP3 DUP2 SLOAD DUP2 LT PUSH2 0x15AE JUMPI PUSH2 0x15AE PUSH2 0x1A4A JUMP JUMPDEST PUSH1 0x0 SWAP2 DUP3 MSTORE PUSH1 0x20 DUP1 DUP4 KECCAK256 SWAP1 SWAP2 ADD SLOAD DUP1 DUP4 MSTORE PUSH1 0x2 SWAP1 SWAP2 MSTORE PUSH1 0x40 SWAP1 SWAP2 KECCAK256 PUSH1 0x6 ADD DUP1 SLOAD PUSH1 0xFF NOT AND SWAP1 SSTORE SWAP1 POP PUSH2 0x15E1 PUSH1 0x4 DUP4 PUSH2 0x138F JUMP JUMPDEST POP POP JUMP JUMPDEST PUSH1 0x60 DUP1 DUP3 PUSH8 0xFFFFFFFFFFFFFFFF DUP2 GT ISZERO PUSH2 0x1601 JUMPI PUSH2 0x1601 PUSH2 0x1B11 JUMP JUMPDEST PUSH1 0x40 MLOAD SWAP1 DUP1 DUP3 MSTORE DUP1 PUSH1 0x20 MUL PUSH1 0x20 ADD DUP3 ADD PUSH1 0x40 MSTORE DUP1 ISZERO PUSH2 0x162A JUMPI DUP2 PUSH1 0x20 ADD PUSH1 0x20 DUP3 MUL DUP1 CALLDATASIZE DUP4 CALLDATACOPY ADD SWAP1 POP JUMPDEST POP SWAP2 POP DUP3 PUSH8 0xFFFFFFFFFFFFFFFF DUP2 GT ISZERO PUSH2 0x1646 JUMPI PUSH2 0x1646 PUSH2 0x1B11 JUMP JUMPDEST PUSH1 0x40 MLOAD SWAP1 DUP1 DUP3 MSTORE DUP1 PUSH1 0x20 MUL PUSH1 0x20 ADD DUP3 ADD PUSH1 0x40 MSTORE DUP1 ISZERO PUSH2 0x166F JUMPI DUP2 PUSH1 0x20 ADD PUSH1 0x20 DUP3 MUL DUP1 CALLDATASIZE DUP4 CALLDATACOPY ADD SWAP1 POP JUMPDEST POP SWAP1 POP PUSH1 0x0 DUP1 JUMPDEST DUP6 SLOAD DUP2 LT DUP1 ISZERO PUSH2 0x1685 JUMPI POP DUP5 DUP3 LT JUMPDEST ISZERO PUSH2 0x1821 JUMPI PUSH1 0x0 PUSH1 0x2 PUSH1 0x0 DUP9 DUP5 DUP2 SLOAD DUP2 LT PUSH2 0x16A2 JUMPI PUSH2 0x16A2 PUSH2 0x1A4A JUMP JUMPDEST PUSH1 0x0 SWAP2 DUP3 MSTORE PUSH1 0x20 DUP1 DUP4 KECCAK256 SWAP1 SWAP2 ADD SLOAD DUP4 MSTORE DUP3 ADD SWAP3 SWAP1 SWAP3 MSTORE PUSH1 0x40 ADD SWAP1 KECCAK256 PUSH1 0x6 DUP2 ADD SLOAD SWAP1 SWAP2 POP PUSH1 0xFF AND PUSH2 0x16DF JUMPI DUP2 PUSH2 0x16D6 DUP2 PUSH2 0x1A60 JUMP JUMPDEST SWAP3 POP POP POP PUSH2 0x1676 JUMP JUMPDEST PUSH1 0x0 DUP2 PUSH1 0x4 ADD SLOAD DUP3 PUSH1 0x3 ADD SLOAD PUSH2 0x16F5 SWAP2 SWAP1 PUSH2 0x1A37 JUMP JUMPDEST SWAP1 POP DUP1 PUSH1 0x0 SUB PUSH2 0x1713 JUMPI DUP3 PUSH2 0x1709 DUP2 PUSH2 0x1A60 JUMP JUMPDEST SWAP4 POP POP POP POP PUSH2 0x1676 JUMP JUMPDEST PUSH1 0x2 DUP3 ADD SLOAD PUSH1 0x0 DUP5 JUMPDEST DUP11 SLOAD DUP2 LT ISZERO PUSH2 0x17CA JUMPI PUSH1 0x0 PUSH1 0x2 PUSH1 0x0 DUP14 DUP5 DUP2 SLOAD DUP2 LT PUSH2 0x173D JUMPI PUSH2 0x173D PUSH2 0x1A4A JUMP JUMPDEST PUSH1 0x0 SWAP2 DUP3 MSTORE PUSH1 0x20 DUP1 DUP4 KECCAK256 SWAP1 SWAP2 ADD SLOAD DUP4 MSTORE DUP3 ADD SWAP3 SWAP1 SWAP3 MSTORE PUSH1 0x40 ADD SWAP1 KECCAK256 PUSH1 0x6 DUP2 ADD SLOAD SWAP1 SWAP2 POP PUSH1 0xFF AND PUSH2 0x177A JUMPI DUP2 PUSH2 0x1771 DUP2 PUSH2 0x1A60 JUMP JUMPDEST SWAP3 POP POP POP PUSH2 0x171C JUMP JUMPDEST DUP4 DUP2 PUSH1 0x2 ADD SLOAD EQ PUSH2 0x178B JUMPI POP PUSH2 0x17CA JUMP JUMPDEST PUSH1 0x0 DUP2 PUSH1 0x4 ADD SLOAD DUP3 PUSH1 0x3 ADD SLOAD PUSH2 0x17A1 SWAP2 SWAP1 PUSH2 0x1A37 JUMP JUMPDEST SWAP1 POP DUP1 ISZERO PUSH2 0x17B6 JUMPI PUSH2 0x17B3 DUP2 DUP6 PUSH2 0x1A79 JUMP JUMPDEST SWAP4 POP JUMPDEST DUP3 PUSH2 0x17C0 DUP2 PUSH2 0x1A60 JUMP JUMPDEST SWAP4 POP POP POP POP PUSH2 0x171C JUMP JUMPDEST DUP3 DUP10 DUP9 DUP2 MLOAD DUP2 LT PUSH2 0x17DD JUMPI PUSH2 0x17DD PUSH2 0x1A4A JUMP JUMPDEST PUSH1 0x20 MUL PUSH1 0x20 ADD ADD DUP2 DUP2 MSTORE POP POP DUP2 DUP9 DUP9 DUP2 MLOAD DUP2 LT PUSH2 0x17FC JUMPI PUSH2 0x17FC PUSH2 0x1A4A JUMP JUMPDEST PUSH1 0x20 SWAP1 DUP2 MUL SWAP2 SWAP1 SWAP2 ADD ADD MSTORE DUP7 PUSH2 0x1811 DUP2 PUSH2 0x1A60 JUMP JUMPDEST SWAP8 POP POP DUP1 SWAP6 POP POP POP POP POP POP PUSH2 0x1676 JUMP JUMPDEST POP POP SWAP3 POP SWAP3 SWAP1 POP JUMP JUMPDEST PUSH1 0x0 PUSH1 0x3 DUP3 DUP2 SLOAD DUP2 LT PUSH2 0x183F JUMPI PUSH2 0x183F PUSH2 0x1A4A JUMP JUMPDEST PUSH1 0x0 SWAP2 DUP3 MSTORE PUSH1 0x20 DUP1 DUP4 KECCAK256 SWAP1 SWAP2 ADD SLOAD DUP1 DUP4 MSTORE PUSH1 0x2 SWAP1 SWAP2 MSTORE PUSH1 0x40 SWAP1 SWAP2 KECCAK256 PUSH1 0x6 ADD DUP1 SLOAD PUSH1 0xFF NOT AND SWAP1 SSTORE SWAP1 POP PUSH2 0x15E1 PUSH1 0x3 DUP4 PUSH2 0x138F JUMP JUMPDEST PUSH1 0x0 DUP1 PUSH1 0x40 DUP4 DUP6 SUB SLT ISZERO PUSH2 0x1885 JUMPI PUSH1 0x0 DUP1 REVERT JUMPDEST POP POP DUP1 CALLDATALOAD SWAP3 PUSH1 0x20 SWAP1 SWAP2 ADD CALLDATALOAD SWAP2 POP JUMP JUMPDEST PUSH1 0x0 PUSH1 0x20 DUP3 DUP5 SUB SLT ISZERO PUSH2 0x18A6 JUMPI PUSH1 0x0 DUP1 REVERT JUMPDEST POP CALLDATALOAD SWAP2 SWAP1 POP JUMP JUMPDEST PUSH1 0x0 DUP2 MLOAD DUP1 DUP5 MSTORE PUSH1 0x20 DUP5 ADD SWAP4 POP PUSH1 0x20 DUP4 ADD PUSH1 0x0 JUMPDEST DUP3 DUP2 LT ISZERO PUSH2 0x18DF JUMPI DUP2 MLOAD DUP7 MSTORE PUSH1 0x20 SWAP6 DUP7 ADD SWAP6 SWAP1 SWAP2 ADD SWAP1 PUSH1 0x1 ADD PUSH2 0x18C1 JUMP JUMPDEST POP SWAP4 SWAP5 SWAP4 POP POP POP POP JUMP JUMPDEST PUSH1 0x80 DUP2 MSTORE PUSH1 0x0 PUSH2 0x18FC PUSH1 0x80 DUP4 ADD DUP8 PUSH2 0x18AD JUMP JUMPDEST DUP3 DUP2 SUB PUSH1 0x20 DUP5 ADD MSTORE PUSH2 0x190E DUP2 DUP8 PUSH2 0x18AD JUMP JUMPDEST SWAP1 POP DUP3 DUP2 SUB PUSH1 0x40 DUP5 ADD MSTORE PUSH2 0x1922 DUP2 DUP7 PUSH2 0x18AD JUMP JUMPDEST SWAP1 POP DUP3 DUP2 SUB PUSH1 0x60 DUP5 ADD MSTORE PUSH2 0x1936 DUP2 DUP6 PUSH2 0x18AD JUMP JUMPDEST SWAP8 SWAP7 POP POP POP POP POP POP POP JUMP JUMPDEST PUSH4 0x4E487B71 PUSH1 0xE0 SHL PUSH1 0x0 MSTORE PUSH1 0x21 PUSH1 0x4 MSTORE PUSH1 0x24 PUSH1 0x0 REVERT JUMPDEST PUSH1 0x2 DUP2 LT PUSH2 0x1975 JUMPI PUSH4 0x4E487B71 PUSH1 0xE0 SHL PUSH1 0x0 MSTORE PUSH1 0x21 PUSH1 0x4 MSTORE PUSH1 0x24 PUSH1 0x0 REVERT JUMPDEST SWAP1 MSTORE JUMP JUMPDEST DUP9 DUP2 MSTORE PUSH1 0x1 PUSH1 0x1 PUSH1 0xA0 SHL SUB DUP9 AND PUSH1 0x20 DUP3 ADD MSTORE PUSH2 0x100 DUP2 ADD PUSH2 0x199D PUSH1 0x40 DUP4 ADD DUP10 PUSH2 0x1957 JUMP JUMPDEST PUSH1 0x60 DUP3 ADD SWAP7 SWAP1 SWAP7 MSTORE PUSH1 0x80 DUP2 ADD SWAP5 SWAP1 SWAP5 MSTORE PUSH1 0xA0 DUP5 ADD SWAP3 SWAP1 SWAP3 MSTORE PUSH1 0xC0 DUP4 ADD MSTORE ISZERO ISZERO PUSH1 0xE0 SWAP1 SWAP2 ADD MSTORE SWAP4 SWAP3 POP POP POP JUMP JUMPDEST PUSH4 0x4E487B71 PUSH1 0xE0 SHL PUSH1 0x0 MSTORE PUSH1 0x11 PUSH1 0x4 MSTORE PUSH1 0x24 PUSH1 0x0 REVERT JUMPDEST DUP1 DUP3 MUL DUP2 ISZERO DUP3 DUP3 DIV DUP5 EQ OR PUSH2 0x67A JUMPI PUSH2 0x67A PUSH2 0x19C9 JUMP JUMPDEST PUSH1 0x0 DUP3 PUSH2 0x1A13 JUMPI PUSH4 0x4E487B71 PUSH1 0xE0 SHL PUSH1 0x0 MSTORE PUSH1 0x12 PUSH1 0x4 MSTORE PUSH1 0x24 PUSH1 0x0 REVERT JUMPDEST POP DIV SWAP1 JUMP JUMPDEST PUSH1 0x60 DUP2 ADD PUSH2 0x1A26 DUP3 DUP7 PUSH2 0x1957 JUMP JUMPDEST PUSH1 0x20 DUP3 ADD SWAP4 SWAP1 SWAP4 MSTORE PUSH1 0x40 ADD MSTORE SWAP2 SWAP1 POP JUMP JUMPDEST DUP2 DUP2 SUB DUP2 DUP2 GT ISZERO PUSH2 0x67A JUMPI PUSH2 0x67A PUSH2 0x19C9 JUMP JUMPDEST PUSH4 0x4E487B71 PUSH1 0xE0 SHL PUSH1 0x0 MSTORE PUSH1 0x32 PUSH1 0x4 MSTORE PUSH1 0x24 PUSH1 0x0 REVERT JUMPDEST PUSH1 0x0 PUSH1 0x1 DUP3 ADD PUSH2 0x1A72 JUMPI PUSH2 0x1A72 PUSH2 0x19C9 JUMP JUMPDEST POP PUSH1 0x1 ADD SWAP1 JUMP JUMPDEST DUP1 DUP3 ADD DUP1 DUP3 GT ISZERO PUSH2 0x67A JUMPI PUSH2 0x67A PUSH2 0x19C9 JUMP JUMPDEST PUSH1 0x0 DUP3 MLOAD PUSH1 0x0 JUMPDEST DUP2 DUP2 LT ISZERO PUSH2 0x1AAD JUMPI PUSH1 0x20 DUP2 DUP7 ADD DUP2 ADD MLOAD DUP6 DUP4 ADD MSTORE ADD PUSH2 0x1A93 JUMP JUMPDEST POP PUSH1 0x0 SWAP3 ADD SWAP2 DUP3 MSTORE POP SWAP2 SWAP1 POP JUMP JUMPDEST PUSH1 0x0 PUSH1 0x20 DUP3 DUP5 SUB SLT ISZERO PUSH2 0x1ACD JUMPI PUSH1 0x0 DUP1 REVERT JUMPDEST DUP2 MLOAD DUP1 ISZERO ISZERO DUP2 EQ PUSH2 0x1ADD JUMPI PUSH1 0x0 DUP1 REVERT JUMPDEST SWAP4 SWAP3 POP POP POP JUMP JUMPDEST PUSH1 0x0 DUP2 PUSH2 0x1AF3 JUMPI PUSH2 0x1AF3 PUSH2 0x19C9 JUMP JUMPDEST POP PUSH1 0x0 NOT ADD SWAP1 JUMP JUMPDEST PUSH4 0x4E487B71 PUSH1 0xE0 SHL PUSH1 0x0 MSTORE PUSH1 0x31 PUSH1 0x4 MSTORE PUSH1 0x24 PUSH1 0x0 REVERT JUMPDEST PUSH4 0x4E487B71 PUSH1 0xE0 SHL PUSH1 0x0 MSTORE PUSH1 0x41 PUSH1 0x4 MSTORE PUSH1 0x24 PUSH1 0x0 REVERT INVALID LOG2 PUSH5 0x6970667358 0x22 SLT KECCAK256 0xFB 0xCE SWAP9 0x2B DUP16 CALLCODE SWAP12 PREVRANDAO SWAP7 EXP SUB PREVRANDAO 0x4D DUP11 0xF7 PUSH22 0x47472D7345F7025D06F3851C3FB71FD564736F6C6343 STOP ADDMOD SHR STOP CALLER "
        },
        "methodIdentifiers": {
          "PRICE_SCALE()": "c33f59d3",
          "askIds(uint256)": "43eb749a",
          "baseToken()": "c55dae63",
          "bidIds(uint256)": "ec3e4e6f",
          "cancelOrder(uint256)": "514fcac7",
          "getLastPrice()": "d8cf24fd",
          "getOrderBookDepth(uint256)": "961d537f",
          "lastTradePrice()": "df449cb8",
          "limitBuy(uint256,uint256)": "1a74df19",
          "limitSell(uint256,uint256)": "8ed6910f",
          "marketBuy(uint256)": "8fb84bb0",
          "marketSell(uint256)": "db0c9a02",
          "nextOrderId()": "2a58b330",
          "orders(uint256)": "a85c38ef",
          "quoteToken()": "217a4b70"
        }
      }
    }
  }
}