{
  "contracts/SinglePairOrderBookDEX.sol": {
    "SinglePairOrderBookDEX": {
      "abi": [
        {
          "inputs": [
            {
              "internalType": "address",
              "name": "_base",
              "type": "address"
            },
            {
              "internalType": "address",
              "name": "_quote",
              "type": "address"
            }
          ],
          "stateMutability": "nonpayable",
          "type": "constructor"
        },
        {
          "inputs": [],
          "name": "InsufficientLiquidity",
          "type": "error"
        },
        {
          "inputs": [],
          "name": "InvalidAmount",
          "type": "error"
        },
        {
          "inputs": [],
          "name": "InvalidPrice",
          "type": "error"
        },
        {
          "inputs": [],
          "name": "NotActive",
          "type": "error"
        },
        {
          "inputs": [],
          "name": "NotOwner",
          "type": "error"
        },
        {
          "inputs": [],
          "name": "TransferFailed",
          "type": "error"
        },
        {
          "anonymous": false,
          "inputs": [
            {
              "indexed": true,
              "internalType": "uint256",
              "name": "orderId",
              "type": "uint256"
            },
            {
              "indexed": true,
              "internalType": "address",
              "name": "trader",
              "type": "address"
            },
            {
              "indexed": false,
              "internalType": "enum SinglePairOrderBookDEX.Side",
              "name": "side",
              "type": "uint8"
            },
            {
              "indexed": false,
              "internalType": "uint256",
              "name": "price",
              "type": "uint256"
            },
            {
              "indexed": false,
              "internalType": "uint256",
              "name": "amountBase",
              "type": "uint256"
            }
          ],
          "name": "LimitOrderPlaced",
          "type": "event"
        },
        {
          "anonymous": false,
          "inputs": [
            {
              "indexed": true,
              "internalType": "uint256",
              "name": "orderId",
              "type": "uint256"
            },
            {
              "indexed": true,
              "internalType": "address",
              "name": "trader",
              "type": "address"
            }
          ],
          "name": "OrderCancelled",
          "type": "event"
        },
        {
          "anonymous": false,
          "inputs": [
            {
              "indexed": true,
              "internalType": "uint256",
              "name": "makerOrderId",
              "type": "uint256"
            },
            {
              "indexed": true,
              "internalType": "address",
              "name": "maker",
              "type": "address"
            },
            {
              "indexed": true,
              "internalType": "address",
              "name": "taker",
              "type": "address"
            },
            {
              "indexed": false,
              "internalType": "enum SinglePairOrderBookDEX.Side",
              "name": "takerSide",
              "type": "uint8"
            },
            {
              "indexed": false,
              "internalType": "uint256",
              "name": "price",
              "type": "uint256"
            },
            {
              "indexed": false,
              "internalType": "uint256",
              "name": "amountBase",
              "type": "uint256"
            }
          ],
          "name": "Trade",
          "type": "event"
        },
        {
          "inputs": [],
          "name": "PRICE_SCALE",
          "outputs": [
            {
              "internalType": "uint256",
              "name": "",
              "type": "uint256"
            }
          ],
          "stateMutability": "view",
          "type": "function"
        },
        {
          "inputs": [
            {
              "internalType": "uint256",
              "name": "",
              "type": "uint256"
            }
          ],
          "name": "askIds",
          "outputs": [
            {
              "internalType": "uint256",
              "name": "",
              "type": "uint256"
            }
          ],
          "stateMutability": "view",
          "type": "function"
        },
        {
          "inputs": [],
          "name": "baseDecimals",
          "outputs": [
            {
              "internalType": "uint8",
              "name": "",
              "type": "uint8"
            }
          ],
          "stateMutability": "view",
          "type": "function"
        },
        {
          "inputs": [],
          "name": "baseToken",
          "outputs": [
            {
              "internalType": "contract IERC20",
              "name": "",
              "type": "address"
            }
          ],
          "stateMutability": "view",
          "type": "function"
        },
        {
          "inputs": [
            {
              "internalType": "uint256",
              "name": "",
              "type": "uint256"
            }
          ],
          "name": "bidIds",
          "outputs": [
            {
              "internalType": "uint256",
              "name": "",
              "type": "uint256"
            }
          ],
          "stateMutability": "view",
          "type": "function"
        },
        {
          "inputs": [
            {
              "internalType": "uint256",
              "name": "orderId",
              "type": "uint256"
            }
          ],
          "name": "cancelOrder",
          "outputs": [],
          "stateMutability": "nonpayable",
          "type": "function"
        },
        {
          "inputs": [],
          "name": "getLastPrice",
          "outputs": [
            {
              "internalType": "uint256",
              "name": "",
              "type": "uint256"
            }
          ],
          "stateMutability": "view",
          "type": "function"
        },
        {
          "inputs": [],
          "name": "getMyOpenOrders",
          "outputs": [
            {
              "components": [
                {
                  "internalType": "uint256",
                  "name": "id",
                  "type": "uint256"
                },
                {
                  "internalType": "enum SinglePairOrderBookDEX.Side",
                  "name": "side",
                  "type": "uint8"
                },
                {
                  "internalType": "uint256",
                  "name": "price",
                  "type": "uint256"
                },
                {
                  "internalType": "uint256",
                  "name": "amountBase",
                  "type": "uint256"
                },
                {
                  "internalType": "uint256",
                  "name": "filledBase",
                  "type": "uint256"
                },
                {
                  "internalType": "uint256",
                  "name": "remainingBase",
                  "type": "uint256"
                },
                {
                  "internalType": "uint256",
                  "name": "timestamp",
                  "type": "uint256"
                },
                {
                  "internalType": "bool",
                  "name": "active",
                  "type": "bool"
                }
              ],
              "internalType": "struct SinglePairOrderBookDEX.OrderView[]",
              "name": "",
              "type": "tuple[]"
            }
          ],
          "stateMutability": "view",
          "type": "function"
        },
        {
          "inputs": [
            {
              "internalType": "address",
              "name": "trader",
              "type": "address"
            }
          ],
          "name": "getOpenOrdersOf",
          "outputs": [
            {
              "components": [
                {
                  "internalType": "uint256",
                  "name": "id",
                  "type": "uint256"
                },
                {
                  "internalType": "enum SinglePairOrderBookDEX.Side",
                  "name": "side",
                  "type": "uint8"
                },
                {
                  "internalType": "uint256",
                  "name": "price",
                  "type": "uint256"
                },
                {
                  "internalType": "uint256",
                  "name": "amountBase",
                  "type": "uint256"
                },
                {
                  "internalType": "uint256",
                  "name": "filledBase",
                  "type": "uint256"
                },
                {
                  "internalType": "uint256",
                  "name": "remainingBase",
                  "type": "uint256"
                },
                {
                  "internalType": "uint256",
                  "name": "timestamp",
                  "type": "uint256"
                },
                {
                  "internalType": "bool",
                  "name": "active",
                  "type": "bool"
                }
              ],
              "internalType": "struct SinglePairOrderBookDEX.OrderView[]",
              "name": "",
              "type": "tuple[]"
            }
          ],
          "stateMutability": "view",
          "type": "function"
        },
        {
          "inputs": [
            {
              "internalType": "uint256",
              "name": "topN",
              "type": "uint256"
            }
          ],
          "name": "getOrderBookDepth",
          "outputs": [
            {
              "internalType": "uint256[]",
              "name": "",
              "type": "uint256[]"
            },
            {
              "internalType": "uint256[]",
              "name": "",
              "type": "uint256[]"
            },
            {
              "internalType": "uint256[]",
              "name": "",
              "type": "uint256[]"
            },
            {
              "internalType": "uint256[]",
              "name": "",
              "type": "uint256[]"
            }
          ],
          "stateMutability": "view",
          "type": "function"
        },
        {
          "inputs": [],
          "name": "lastTradePrice",
          "outputs": [
            {
              "internalType": "uint256",
              "name": "",
              "type": "uint256"
            }
          ],
          "stateMutability": "view",
          "type": "function"
        },
        {
          "inputs": [
            {
              "internalType": "uint256",
              "name": "price",
              "type": "uint256"
            },
            {
              "internalType": "uint256",
              "name": "amountBase",
              "type": "uint256"
            }
          ],
          "name": "limitBuy",
          "outputs": [
            {
              "internalType": "uint256",
              "name": "orderId",
              "type": "uint256"
            }
          ],
          "stateMutability": "nonpayable",
          "type": "function"
        },
        {
          "inputs": [
            {
              "internalType": "uint256",
              "name": "price",
              "type": "uint256"
            },
            {
              "internalType": "uint256",
              "name": "amountBase",
              "type": "uint256"
            }
          ],
          "name": "limitSell",
          "outputs": [
            {
              "internalType": "uint256",
              "name": "orderId",
              "type": "uint256"
            }
          ],
          "stateMutability": "nonpayable",
          "type": "function"
        },
        {
          "inputs": [
            {
              "internalType": "uint256",
              "name": "maxQuoteIn",
              "type": "uint256"
            }
          ],
          "name": "marketBuy",
          "outputs": [],
          "stateMutability": "nonpayable",
          "type": "function"
        },
        {
          "inputs": [
            {
              "internalType": "uint256",
              "name": "amountBase",
              "type": "uint256"
            }
          ],
          "name": "marketSell",
          "outputs": [],
          "stateMutability": "nonpayable",
          "type": "function"
        },
        {
          "inputs": [],
          "name": "nextOrderId",
          "outputs": [
            {
              "internalType": "uint256",
              "name": "",
              "type": "uint256"
            }
          ],
          "stateMutability": "view",
          "type": "function"
        },
        {
          "inputs": [
            {
              "internalType": "uint256",
              "name": "",
              "type": "uint256"
            }
          ],
          "name": "orders",
          "outputs": [
            {
              "internalType": "uint256",
              "name": "id",
              "type": "uint256"
            },
            {
              "internalType": "address",
              "name": "trader",
              "type": "address"
            },
            {
              "internalType": "enum SinglePairOrderBookDEX.Side",
              "name": "side",
              "type": "uint8"
            },
            {
              "internalType": "uint256",
              "name": "price",
              "type": "uint256"
            },
            {
              "internalType": "uint256",
              "name": "amountBase",
              "type": "uint256"
            },
            {
              "internalType": "uint256",
              "name": "filledBase",
              "type": "uint256"
            },
            {
              "internalType": "uint256",
              "name": "timestamp",
              "type": "uint256"
            },
            {
              "internalType": "bool",
              "name": "active",
              "type": "bool"
            }
          ],
          "stateMutability": "view",
          "type": "function"
        },
        {
          "inputs": [],
          "name": "quoteDecimals",
          "outputs": [
            {
              "internalType": "uint8",
              "name": "",
              "type": "uint8"
            }
          ],
          "stateMutability": "view",
          "type": "function"
        },
        {
          "inputs": [],
          "name": "quoteToken",
          "outputs": [
            {
              "internalType": "contract IERC20",
              "name": "",
              "type": "address"
            }
          ],
          "stateMutability": "view",
          "type": "function"
        }
      ],
      "evm": {
        "bytecode": {
          "linkReferences": {},
          "object": "610100604052600160005534801561001657600080fd5b506040516124f83803806124f883398101604081905261003591610143565b6001600160a01b03808316608081905290821660a0526040805163313ce56760e01b8152905163313ce567916004808201926020929091908290030181865afa158015610086573d6000803e3d6000fd5b505050506040513d601f19601f820116820180604052508101906100aa9190610176565b60ff1660c08160ff1681525050806001600160a01b031663313ce5676040518163ffffffff1660e01b8152600401602060405180830381865afa1580156100f5573d6000803e3d6000fd5b505050506040513d601f19601f820116820180604052508101906101199190610176565b60ff1660e052506101a09050565b80516001600160a01b038116811461013e57600080fd5b919050565b6000806040838503121561015657600080fd5b61015f83610127565b915061016d60208401610127565b90509250929050565b60006020828403121561018857600080fd5b815160ff8116811461019957600080fd5b9392505050565b60805160a05160c05160e05161229a61025e600039600081816101d2015281816110f20152611af7015260008181610199015281816110b70152611b2a015260008181610151015281816103e30152818161057601528181610ba101528181610d0b01528181610dd301528181610f7f0152818161165901526116d2015260008181610313015281816105a701528181610ae801528181610cda01528181610e6901528181610fb00152818161107a015261161f015261229a6000f3fe608060405234801561001057600080fd5b50600436106101215760003560e01c80638ed6910f116100ad578063c55dae6311610071578063c55dae631461030e578063d8cf24fd14610335578063db0c9a021461033d578063df449cb814610350578063ec3e4e6f1461035957600080fd5b80638ed6910f146102445780638fb84bb014610257578063961d537f1461026a578063a85c38ef1461028d578063c33f59d3146102ff57600080fd5b80633fd1e2bd116100f45780633fd1e2bd146101cd57806343eb749a146101f45780634e40c61314610207578063514fcac71461021c5780636dee20321461023157600080fd5b80631a74df1914610126578063217a4b701461014c5780632a58b3301461018b57806333f7617814610194575b600080fd5b610139610134366004611dfd565b61036c565b6040519081526020015b60405180910390f35b6101737f000000000000000000000000000000000000000000000000000000000000000081565b6040516001600160a01b039091168152602001610143565b61013960005481565b6101bb7f000000000000000000000000000000000000000000000000000000000000000081565b60405160ff9091168152602001610143565b6101bb7f000000000000000000000000000000000000000000000000000000000000000081565b610139610202366004611e1f565b610477565b61020f610498565b6040516101439190611e70565b61022f61022a366004611e1f565b6104a8565b005b61020f61023f366004611f0d565b610641565b610139610252366004611dfd565b610aa0565b61022f610265366004611e1f565b610b7b565b61027d610278366004611e1f565b610dfe565b6040516101439493929190611f72565b6102eb61029b366004611e1f565b6002602081905260009182526040909120805460018201549282015460038301546004840154600585015460069095015493956001600160a01b03811695600160a01b90910460ff908116951688565b604051610143989796959493929190611fca565b610139670de0b6b3a764000081565b6101737f000000000000000000000000000000000000000000000000000000000000000081565b600154610139565b61022f61034b366004611e1f565b610e43565b61013960015481565b610139610367366004611e1f565b6110a0565b60008260000361038e5760405162bfc92160e01b815260040160405180910390fd5b816000036103af5760405163162908e360e11b815260040160405180910390fd5b60006103bb83856110b0565b9050806000036103de5760405163162908e360e11b815260040160405180910390fd5b61040a7f000000000000000000000000000000000000000000000000000000000000000033308461113b565b61041660008585611235565b91506104218261134b565b336001600160a01b0316827fbfa7375f10629d29376d04eeba251f3e7db963fab0091a92b799fdd4b35562ab600087876040516104609392919061201a565b60405180910390a3610470611491565b5092915050565b6004818154811061048757600080fd5b600091825260209091200154905081565b60606104a333610641565b905090565b6000818152600260205260409020600681015460ff166104db57604051634065aaf160e11b815260040160405180910390fd5b60018101546001600160a01b03163314610508576040516330cd747160e01b815260040160405180910390fd5b60068101805460ff191690556004810154600382015460009161052a9161204f565b905080156105cd576000600183810154600160a01b900460ff169081111561055457610554611e38565b036105a25760006105698284600201546110b0565b9050801561059c5761059c7f000000000000000000000000000000000000000000000000000000000000000033836117a9565b506105cd565b6105cd7f000000000000000000000000000000000000000000000000000000000000000033836117a9565b6000600183810154600160a01b900460ff16908111156105ef576105ef611e38565b03610604576105ff60038461189a565b61060f565b61060f60048461189a565b604051339084907fc0362da6f2ff36b382b34aec0814f6b3cdf89f5ef282a1d1f114d0c0b036d59690600090a3505050565b60606000805b6003548110156106da576000600260006003848154811061066a5761066a612062565b600091825260208083209091015483528201929092526040019020600681015490915060ff1680156106ab575060018101546001600160a01b038681169116145b80156106be575080600301548160040154105b156106d157826106cd81612078565b9350505b50600101610647565b5060005b600454811015610771576000600260006004848154811061070157610701612062565b600091825260208083209091015483528201929092526040019020600681015490915060ff168015610742575060018101546001600160a01b038681169116145b8015610755575080600301548160040154105b15610768578261076481612078565b9350505b506001016106de565b5060008167ffffffffffffffff81111561078d5761078d612091565b60405190808252806020026020018201604052801561080957816020015b6107f660408051610100810190915260008082526020820190815260200160008152602001600081526020016000815260200160008152602001600081526020016000151581525090565b8152602001906001900390816107ab5790505b5090506000805b600354811015610951576000600260006003848154811061083357610833612062565b600091825260208083209091015483528201929092526040019020600681015490915060ff168015610874575060018101546001600160a01b038881169116145b8015610887575080600301548160040154105b15610948576000816004015482600301546108a2919061204f565b9050604051806101000160405280836000015481526020018360010160149054906101000a900460ff1660018111156108dd576108dd611e38565b815260028401546020820152600384015460408201526004840154606082015260808101839052600584015460a0820152600684015460ff16151560c090910152858561092981612078565b96508151811061093b5761093b612062565b6020026020010181905250505b50600101610810565b5060005b600454811015610a96576000600260006004848154811061097857610978612062565b600091825260208083209091015483528201929092526040019020600681015490915060ff1680156109b9575060018101546001600160a01b038881169116145b80156109cc575080600301548160040154105b15610a8d576000816004015482600301546109e7919061204f565b9050604051806101000160405280836000015481526020018360010160149054906101000a900460ff166001811115610a2257610a22611e38565b815260028401546020820152600384015460408201526004840154606082015260808101839052600584015460a0820152600684015460ff16151560c0909101528585610a6e81612078565b965081518110610a8057610a80612062565b6020026020010181905250505b50600101610955565b5090949350505050565b600082600003610ac25760405162bfc92160e01b815260040160405180910390fd5b81600003610ae35760405163162908e360e11b815260040160405180910390fd5b610b0f7f000000000000000000000000000000000000000000000000000000000000000033308561113b565b610b1b60018484611235565b9050610b2681611970565b336001600160a01b0316817fbfa7375f10629d29376d04eeba251f3e7db963fab0091a92b799fdd4b35562ab60018686604051610b659392919061201a565b60405180910390a3610b75611491565b92915050565b80600003610b9c5760405163162908e360e11b815260040160405180910390fd5b610bc87f000000000000000000000000000000000000000000000000000000000000000033308461113b565b8060005b60045481108015610bdd5750600082115b15610dc857600060048281548110610bf757610bf7612062565b60009182526020808320909101548083526002909152604090912060068101549192509060ff16610c365782610c2c81612078565b9350505050610bcc565b600081600401548260030154610c4c919061204f565b905080600003610c6757610c5f84611aa4565b505050610bcc565b6000610c77868460020154611af0565b905080600003610c8a5750505050610dc8565b6000828210610c995782610c9b565b815b90506000610cad8286600201546110b0565b905081856004016000828254610cc391906120a7565b90915550610cd39050818961204f565b9750610d007f000000000000000000000000000000000000000000000000000000000000000033846117a9565b6001850154610d3a907f0000000000000000000000000000000000000000000000000000000000000000906001600160a01b0316836117a9565b60028501546001818155860154865460405133936001600160a01b03909316927feb7062411a6997e25eb45e7e1fb3c88cecbfa57b15d77307553b6bf937f108ba91610d8a91600091899061201a565b60405180910390a48460030154856004015403610daf57610daa87611aa4565b610dbd565b86610db981612078565b9750505b505050505050610bcc565b8115610df957610df97f000000000000000000000000000000000000000000000000000000000000000033846117a9565b505050565b60608060608084600003610e1157600a94505b600080610e1f600388611b60565b91509150600080610e3160048a611b60565b949a9399509750929550909350505050565b80600003610e645760405163162908e360e11b815260040160405180910390fd5b610e907f000000000000000000000000000000000000000000000000000000000000000033308461113b565b8060005b60035481108015610ea55750600082115b1561106f57600060038281548110610ebf57610ebf612062565b60009182526020808320909101548083526002909152604090912060068101549192509060ff16610efe5782610ef481612078565b9350505050610e94565b600081600401548260030154610f14919061204f565b905080600003610f2f57610f2784611da5565b505050610e94565b6000818610610f3e5781610f40565b855b90506000610f528285600201546110b0565b905081846004016000828254610f6891906120a7565b90915550610f789050828861204f565b9650610fa57f000000000000000000000000000000000000000000000000000000000000000033836117a9565b6001840154610fdf907f0000000000000000000000000000000000000000000000000000000000000000906001600160a01b0316846117a9565b6002840154600181815580860154865460405133946001600160a01b039093169391927feb7062411a6997e25eb45e7e1fb3c88cecbfa57b15d77307553b6bf937f108ba9261103292909190899061201a565b60405180910390a483600301548460040154036110575761105286611da5565b611065565b8561106181612078565b9650505b5050505050610e94565b8115610df957610df97f000000000000000000000000000000000000000000000000000000000000000033846117a9565b6003818154811061048757600080fd5b60006110db7f0000000000000000000000000000000000000000000000000000000000000000611ded565b6110ed90670de0b6b3a76400006120ba565b6111167f0000000000000000000000000000000000000000000000000000000000000000611ded565b61112084866120ba565b61112a91906120ba565b61113491906120d1565b9392505050565b604080516001600160a01b0385811660248301528481166044830152606480830185905283518084039091018152608490920183526020820180516001600160e01b03166323b872dd60e01b179052915160009283929088169161119f91906120f3565b6000604051808303816000865af19150503d80600081146111dc576040519150601f19603f3d011682016040523d82523d6000602084013e6111e1565b606091505b509150915081158061120f575080511580159061120f57508080602001905181019061120d9190612122565b155b1561122d576040516312171d8360e31b815260040160405180910390fd5b505050505050565b60008054818061124483612078565b909155506040805161010081018252828152336020820152919250810185600181111561127357611273611e38565b815260208082018690526040808301869052600060608401819052426080850152600160a090940184905285815260028352819020845181559184015182840180546001600160a01b031981166001600160a01b03909316928317825592860151939490926001600160a81b03191690911790600160a01b9084908111156112fd576112fd611e38565b0217905550606082015160028201556080820151600382015560a0820151600482015560c0820151600582015560e0909101516006909101805460ff19169115159190911790559392505050565b60008181526002602052604081206003805460018101825592527fc2575a0e9e593c00f959f8c92f12db2869c3395a3b0502d05e2516446f71f85b820183905590805b801561146b57600060028160036113a660018661204f565b815481106113b6576113b6612062565b9060005260206000200154815260200190815260200160002090506000816002015485600201541180611402575081600201548560020154148015611402575081600501548560050154105b90508061141057505061146b565b600361141d60018561204f565b8154811061142d5761142d612062565b90600052602060002001546003848154811061144b5761144b612062565b6000918252602090912001558261146181612144565b935050505061138e565b836003828154811061147f5761147f612062565b60009182526020909120015550505050565b600354158015906114a3575060045415155b156117a75760006002600060036000815481106114c2576114c2612062565b90600052602060002001548152602001908152602001600020905060006002600060046000815481106114f7576114f7612062565b600091825260208083209091015483528201929092526040019020600683015490915060ff166115325761152b6000611da5565b5050611491565b600681015460ff166115485761152b6000611aa4565b80600201548260020154101561155c575050565b600082600401548360030154611572919061204f565b905060008260040154836003015461158a919061204f565b9050816000036115a75761159e6000611da5565b50505050611491565b806000036115b95761159e6000611aa4565b60008183106115c857816115ca565b825b600285015490915060006115de83836110b0565b9050828760040160008282546115f491906120a7565b925050819055508286600401600082825461160f91906120a7565b9091555050600187015461164e907f0000000000000000000000000000000000000000000000000000000000000000906001600160a01b0316856117a9565b6001860154611688907f0000000000000000000000000000000000000000000000000000000000000000906001600160a01b0316836117a9565b866003015487600401540361170d5760006116ab886003015489600201546110b0565b905060006116bd8960030154856110b0565b90508082111561170a57600189015461170a907f0000000000000000000000000000000000000000000000000000000000000000906001600160a01b0316611705848661204f565b6117a9565b50505b6001828155878101549087015487546040516001600160a01b0393841693909216917feb7062411a6997e25eb45e7e1fb3c88cecbfa57b15d77307553b6bf937f108ba906117619060009088908a9061201a565b60405180910390a48660030154876004015403611782576117826000611da5565b856003015486600401540361179b5761179b6000611aa4565b50505050505050611491565b565b604080516001600160a01b038481166024830152604480830185905283518084039091018152606490920183526020820180516001600160e01b031663a9059cbb60e01b179052915160009283929087169161180591906120f3565b6000604051808303816000865af19150503d8060008114611842576040519150601f19603f3d011682016040523d82523d6000602084013e611847565b606091505b509150915081158061187557508051158015906118755750808060200190518101906118739190612122565b155b15611893576040516312171d8360e31b815260040160405180910390fd5b5050505050565b815460005b8181101561196a57828482815481106118ba576118ba612062565b90600052602060002001540361196257805b826118d88260016120a7565b101561193557846118ea8260016120a7565b815481106118fa576118fa612062565b906000526020600020015485828154811061191757611917612062565b6000918252602090912001558061192d81612078565b9150506118cc565b50838054806119465761194661215b565b6001900381819060005260206000200160009055905550505050565b60010161189f565b50505050565b60008181526002602052604081206004805460018101825592527f8a35acfbc15ff81a39ae7d344fd709f28e8600b4aa8c65c6b64bfe7fe36bd19b820183905590805b8015611a9057600060028160046119cb60018661204f565b815481106119db576119db612062565b9060005260206000200154815260200190815260200160002090506000816002015485600201541080611a27575081600201548560020154148015611a27575081600501548560050154105b905080611a35575050611a90565b6004611a4260018561204f565b81548110611a5257611a52612062565b906000526020600020015460048481548110611a7057611a70612062565b60009182526020909120015582611a8681612144565b93505050506119b3565b836004828154811061147f5761147f612062565b600060048281548110611ab957611ab9612062565b600091825260208083209091015480835260029091526040909120600601805460ff191690559050611aec60048261189a565b5050565b6000611b1b7f0000000000000000000000000000000000000000000000000000000000000000611ded565b611b2590836120ba565b611b4e7f0000000000000000000000000000000000000000000000000000000000000000611ded565b611120670de0b6b3a7640000866120ba565b6060808267ffffffffffffffff811115611b7c57611b7c612091565b604051908082528060200260200182016040528015611ba5578160200160208202803683370190505b5091508267ffffffffffffffff811115611bc157611bc1612091565b604051908082528060200260200182016040528015611bea578160200160208202803683370190505b5090506000805b855481108015611c0057508482105b15611d9c57600060026000888481548110611c1d57611c1d612062565b600091825260208083209091015483528201929092526040019020600681015490915060ff16611c5a5781611c5181612078565b92505050611bf1565b600081600401548260030154611c70919061204f565b905080600003611c8e5782611c8481612078565b9350505050611bf1565b60028201546000845b8a54811015611d45576000600260008d8481548110611cb857611cb8612062565b600091825260208083209091015483528201929092526040019020600681015490915060ff16611cf55781611cec81612078565b92505050611c97565b83816002015414611d065750611d45565b600081600401548260030154611d1c919061204f565b90508015611d3157611d2e81856120a7565b93505b82611d3b81612078565b9350505050611c97565b82898881518110611d5857611d58612062565b60200260200101818152505081888881518110611d7757611d77612062565b602090810291909101015286611d8c81612078565b9750508095505050505050611bf1565b50509250929050565b600060038281548110611dba57611dba612062565b600091825260208083209091015480835260029091526040909120600601805460ff191690559050611aec60038261189a565b6000610b7560ff8316600a612258565b60008060408385031215611e1057600080fd5b50508035926020909101359150565b600060208284031215611e3157600080fd5b5035919050565b634e487b7160e01b600052602160045260246000fd5b60028110611e6c57634e487b7160e01b600052602160045260246000fd5b9052565b602080825282518282018190526000918401906040840190835b81811015611f02578351805184526020810151611eaa6020860182611e4e565b5060408101516040850152606081015160608501526080810151608085015260a081015160a085015260c081015160c085015260e0810151151560e08501525061010083019250602084019350600181019050611e8a565b509095945050505050565b600060208284031215611f1f57600080fd5b81356001600160a01b038116811461113457600080fd5b600081518084526020840193506020830160005b82811015611f68578151865260209586019590910190600101611f4a565b5093949350505050565b608081526000611f856080830187611f36565b8281036020840152611f978187611f36565b90508281036040840152611fab8186611f36565b90508281036060840152611fbf8185611f36565b979650505050505050565b8881526001600160a01b03881660208201526101008101611fee6040830189611e4e565b6060820196909652608081019490945260a084019290925260c0830152151560e0909101529392505050565b606081016120288286611e4e565b602082019390935260400152919050565b634e487b7160e01b600052601160045260246000fd5b81810381811115610b7557610b75612039565b634e487b7160e01b600052603260045260246000fd5b60006001820161208a5761208a612039565b5060010190565b634e487b7160e01b600052604160045260246000fd5b80820180821115610b7557610b75612039565b8082028115828204841417610b7557610b75612039565b6000826120ee57634e487b7160e01b600052601260045260246000fd5b500490565b6000825160005b8181101561211457602081860181015185830152016120fa565b506000920191825250919050565b60006020828403121561213457600080fd5b8151801515811461113457600080fd5b60008161215357612153612039565b506000190190565b634e487b7160e01b600052603160045260246000fd5b6001815b60018411156121ac5780850481111561219057612190612039565b600184161561219e57908102905b60019390931c928002612175565b935093915050565b6000826121c357506001610b75565b816121d057506000610b75565b81600181146121e657600281146121f05761220c565b6001915050610b75565b60ff84111561220157612201612039565b50506001821b610b75565b5060208310610133831016604e8410600b841016171561222f575081810a610b75565b61223c6000198484612171565b806000190482111561225057612250612039565b029392505050565b600061113483836121b456fea26469706673582212205e9b94a31c3fa15db5f229787aa9442b9feaf524d3f0db322f08d5ae224702e364736f6c634300081c0033",
          "opcodes": "PUSH2 0x100 PUSH1 0x40 MSTORE PUSH1 0x1 PUSH1 0x0 SSTORE CALLVALUE DUP1 ISZERO PUSH2 0x16 JUMPI PUSH1 0x0 DUP1 REVERT JUMPDEST POP PUSH1 0x40 MLOAD PUSH2 0x24F8 CODESIZE SUB DUP1 PUSH2 0x24F8 DUP4 CODECOPY DUP2 ADD PUSH1 0x40 DUP2 SWAP1 MSTORE PUSH2 0x35 SWAP2 PUSH2 0x143 JUMP JUMPDEST PUSH1 0x1 PUSH1 0x1 PUSH1 0xA0 SHL SUB DUP1 DUP4 AND PUSH1 0x80 DUP2 SWAP1 MSTORE SWAP1 DUP3 AND PUSH1 0xA0 MSTORE PUSH1 0x40 DUP1 MLOAD PUSH4 0x313CE567 PUSH1 0xE0 SHL DUP2 MSTORE SWAP1 MLOAD PUSH4 0x313CE567 SWAP2 PUSH1 0x4 DUP1 DUP3 ADD SWAP3 PUSH1 0x20 SWAP3 SWAP1 SWAP2 SWAP1 DUP3 SWAP1 SUB ADD DUP2 DUP7 GAS STATICCALL ISZERO DUP1 ISZERO PUSH2 0x86 JUMPI RETURNDATASIZE PUSH1 0x0 DUP1 RETURNDATACOPY RETURNDATASIZE PUSH1 0x0 REVERT JUMPDEST POP POP POP POP PUSH1 0x40 MLOAD RETURNDATASIZE PUSH1 0x1F NOT PUSH1 0x1F DUP3 ADD AND DUP3 ADD DUP1 PUSH1 0x40 MSTORE POP DUP2 ADD SWAP1 PUSH2 0xAA SWAP2 SWAP1 PUSH2 0x176 JUMP JUMPDEST PUSH1 0xFF AND PUSH1 0xC0 DUP2 PUSH1 0xFF AND DUP2 MSTORE POP POP DUP1 PUSH1 0x1 PUSH1 0x1 PUSH1 0xA0 SHL SUB AND PUSH4 0x313CE567 PUSH1 0x40 MLOAD DUP2 PUSH4 0xFFFFFFFF AND PUSH1 0xE0 SHL DUP2 MSTORE PUSH1 0x4 ADD PUSH1 0x20 PUSH1 0x40 MLOAD DUP1 DUP4 SUB DUP2 DUP7 GAS STATICCALL ISZERO DUP1 ISZERO PUSH2 0xF5 JUMPI RETURNDATASIZE PUSH1 0x0 DUP1 RETURNDATACOPY RETURNDATASIZE PUSH1 0x0 REVERT JUMPDEST POP POP POP POP PUSH1 0x40 MLOAD RETURNDATASIZE PUSH1 0x1F NOT PUSH1 0x1F DUP3 ADD AND DUP3 ADD DUP1 PUSH1 0x40 MSTORE POP DUP2 ADD SWAP1 PUSH2 0x119 SWAP2 SWAP1 PUSH2 0x176 JUMP JUMPDEST PUSH1 0xFF AND PUSH1 0xE0 MSTORE POP PUSH2 0x1A0 SWAP1 POP JUMP JUMPDEST DUP1 MLOAD PUSH1 0x1 PUSH1 0x1 PUSH1 0xA0 SHL SUB DUP2 AND DUP2 EQ PUSH2 0x13E JUMPI PUSH1 0x0 DUP1 REVERT JUMPDEST SWAP2 SWAP1 POP JUMP JUMPDEST PUSH1 0x0 DUP1 PUSH1 0x40 DUP4 DUP6 SUB SLT ISZERO PUSH2 0x156 JUMPI PUSH1 0x0 DUP1 REVERT JUMPDEST PUSH2 0x15F DUP4 PUSH2 0x127 JUMP JUMPDEST SWAP2 POP PUSH2 0x16D PUSH1 0x20 DUP5 ADD PUSH2 0x127 JUMP JUMPDEST SWAP1 POP SWAP3 POP SWAP3 SWAP1 POP JUMP JUMPDEST PUSH1 0x0 PUSH1 0x20 DUP3 DUP5 SUB SLT ISZERO PUSH2 0x188 JUMPI PUSH1 0x0 DUP1 REVERT JUMPDEST DUP2 MLOAD PUSH1 0xFF DUP2 AND DUP2 EQ PUSH2 0x199 JUMPI PUSH1 0x0 DUP1 REVERT JUMPDEST SWAP4 SWAP3 POP POP POP JUMP JUMPDEST PUSH1 0x80 MLOAD PUSH1 0xA0 MLOAD PUSH1 0xC0 MLOAD PUSH1 0xE0 MLOAD PUSH2 0x229A PUSH2 0x25E PUSH1 0x0 CODECOPY PUSH1 0x0 DUP2 DUP2 PUSH2 0x1D2 ADD MSTORE DUP2 DUP2 PUSH2 0x10F2 ADD MSTORE PUSH2 0x1AF7 ADD MSTORE PUSH1 0x0 DUP2 DUP2 PUSH2 0x199 ADD MSTORE DUP2 DUP2 PUSH2 0x10B7 ADD MSTORE PUSH2 0x1B2A ADD MSTORE PUSH1 0x0 DUP2 DUP2 PUSH2 0x151 ADD MSTORE DUP2 DUP2 PUSH2 0x3E3 ADD MSTORE DUP2 DUP2 PUSH2 0x576 ADD MSTORE DUP2 DUP2 PUSH2 0xBA1 ADD MSTORE DUP2 DUP2 PUSH2 0xD0B ADD MSTORE DUP2 DUP2 PUSH2 0xDD3 ADD MSTORE DUP2 DUP2 PUSH2 0xF7F ADD MSTORE DUP2 DUP2 PUSH2 0x1659 ADD MSTORE PUSH2 0x16D2 ADD MSTORE PUSH1 0x0 DUP2 DUP2 PUSH2 0x313 ADD MSTORE DUP2 DUP2 PUSH2 0x5A7 ADD MSTORE DUP2 DUP2 PUSH2 0xAE8 ADD MSTORE DUP2 DUP2 PUSH2 0xCDA ADD MSTORE DUP2 DUP2 PUSH2 0xE69 ADD MSTORE DUP2 DUP2 PUSH2 0xFB0 ADD MSTORE DUP2 DUP2 PUSH2 0x107A ADD MSTORE PUSH2 0x161F ADD MSTORE PUSH2 0x229A PUSH1 0x0 RETURN INVALID PUSH1 0x80 PUSH1 0x40 MSTORE CALLVALUE DUP1 ISZERO PUSH2 0x10 JUMPI PUSH1 0x0 DUP1 REVERT JUMPDEST POP PUSH1 0x4 CALLDATASIZE LT PUSH2 0x121 JUMPI PUSH1 0x0 CALLDATALOAD PUSH1 0xE0 SHR DUP1 PUSH4 0x8ED6910F GT PUSH2 0xAD JUMPI DUP1 PUSH4 0xC55DAE63 GT PUSH2 0x71 JUMPI DUP1 PUSH4 0xC55DAE63 EQ PUSH2 0x30E JUMPI DUP1 PUSH4 0xD8CF24FD EQ PUSH2 0x335 JUMPI DUP1 PUSH4 0xDB0C9A02 EQ PUSH2 0x33D JUMPI DUP1 PUSH4 0xDF449CB8 EQ PUSH2 0x350 JUMPI DUP1 PUSH4 0xEC3E4E6F EQ PUSH2 0x359 JUMPI PUSH1 0x0 DUP1 REVERT JUMPDEST DUP1 PUSH4 0x8ED6910F EQ PUSH2 0x244 JUMPI DUP1 PUSH4 0x8FB84BB0 EQ PUSH2 0x257 JUMPI DUP1 PUSH4 0x961D537F EQ PUSH2 0x26A JUMPI DUP1 PUSH4 0xA85C38EF EQ PUSH2 0x28D JUMPI DUP1 PUSH4 0xC33F59D3 EQ PUSH2 0x2FF JUMPI PUSH1 0x0 DUP1 REVERT JUMPDEST DUP1 PUSH4 0x3FD1E2BD GT PUSH2 0xF4 JUMPI DUP1 PUSH4 0x3FD1E2BD EQ PUSH2 0x1CD JUMPI DUP1 PUSH4 0x43EB749A EQ PUSH2 0x1F4 JUMPI DUP1 PUSH4 0x4E40C613 EQ PUSH2 0x207 JUMPI DUP1 PUSH4 0x514FCAC7 EQ PUSH2 0x21C JUMPI DUP1 PUSH4 0x6DEE2032 EQ PUSH2 0x231 JUMPI PUSH1 0x0 DUP1 REVERT JUMPDEST DUP1 PUSH4 0x1A74DF19 EQ PUSH2 0x126 JUMPI DUP1 PUSH4 0x217A4B70 EQ PUSH2 0x14C JUMPI DUP1 PUSH4 0x2A58B330 EQ PUSH2 0x18B JUMPI DUP1 PUSH4 0x33F76178 EQ PUSH2 0x194 JUMPI JUMPDEST PUSH1 0x0 DUP1 REVERT JUMPDEST PUSH2 0x139 PUSH2 0x134 CALLDATASIZE PUSH1 0x4 PUSH2 0x1DFD JUMP JUMPDEST PUSH2 0x36C JUMP JUMPDEST PUSH1 0x40 MLOAD SWAP1 DUP2 MSTORE PUSH1 0x20 ADD JUMPDEST PUSH1 0x40 MLOAD DUP1 SWAP2 SUB SWAP1 RETURN JUMPDEST PUSH2 0x173 PUSH32 0x0 DUP2 JUMP JUMPDEST PUSH1 0x40 MLOAD PUSH1 0x1 PUSH1 0x1 PUSH1 0xA0 SHL SUB SWAP1 SWAP2 AND DUP2 MSTORE PUSH1 0x20 ADD PUSH2 0x143 JUMP JUMPDEST PUSH2 0x139 PUSH1 0x0 SLOAD DUP2 JUMP JUMPDEST PUSH2 0x1BB PUSH32 0x0 DUP2 JUMP JUMPDEST PUSH1 0x40 MLOAD PUSH1 0xFF SWAP1 SWAP2 AND DUP2 MSTORE PUSH1 0x20 ADD PUSH2 0x143 JUMP JUMPDEST PUSH2 0x1BB PUSH32 0x0 DUP2 JUMP JUMPDEST PUSH2 0x139 PUSH2 0x202 CALLDATASIZE PUSH1 0x4 PUSH2 0x1E1F JUMP JUMPDEST PUSH2 0x477 JUMP JUMPDEST PUSH2 0x20F PUSH2 0x498 JUMP JUMPDEST PUSH1 0x40 MLOAD PUSH2 0x143 SWAP2 SWAP1 PUSH2 0x1E70 JUMP JUMPDEST PUSH2 0x22F PUSH2 0x22A CALLDATASIZE PUSH1 0x4 PUSH2 0x1E1F JUMP JUMPDEST PUSH2 0x4A8 JUMP JUMPDEST STOP JUMPDEST PUSH2 0x20F PUSH2 0x23F CALLDATASIZE PUSH1 0x4 PUSH2 0x1F0D JUMP JUMPDEST PUSH2 0x641 JUMP JUMPDEST PUSH2 0x139 PUSH2 0x252 CALLDATASIZE PUSH1 0x4 PUSH2 0x1DFD JUMP JUMPDEST PUSH2 0xAA0 JUMP JUMPDEST PUSH2 0x22F PUSH2 0x265 CALLDATASIZE PUSH1 0x4 PUSH2 0x1E1F JUMP JUMPDEST PUSH2 0xB7B JUMP JUMPDEST PUSH2 0x27D PUSH2 0x278 CALLDATASIZE PUSH1 0x4 PUSH2 0x1E1F JUMP JUMPDEST PUSH2 0xDFE JUMP JUMPDEST PUSH1 0x40 MLOAD PUSH2 0x143 SWAP5 SWAP4 SWAP3 SWAP2 SWAP1 PUSH2 0x1F72 JUMP JUMPDEST PUSH2 0x2EB PUSH2 0x29B CALLDATASIZE PUSH1 0x4 PUSH2 0x1E1F JUMP JUMPDEST PUSH1 0x2 PUSH1 0x20 DUP2 SWAP1 MSTORE PUSH1 0x0 SWAP2 DUP3 MSTORE PUSH1 0x40 SWAP1 SWAP2 KECCAK256 DUP1 SLOAD PUSH1 0x1 DUP3 ADD SLOAD SWAP3 DUP3 ADD SLOAD PUSH1 0x3 DUP4 ADD SLOAD PUSH1 0x4 DUP5 ADD SLOAD PUSH1 0x5 DUP6 ADD SLOAD PUSH1 0x6 SWAP1 SWAP6 ADD SLOAD SWAP4 SWAP6 PUSH1 0x1 PUSH1 0x1 PUSH1 0xA0 SHL SUB DUP2 AND SWAP6 PUSH1 0x1 PUSH1 0xA0 SHL SWAP1 SWAP2 DIV PUSH1 0xFF SWAP1 DUP2 AND SWAP6 AND DUP9 JUMP JUMPDEST PUSH1 0x40 MLOAD PUSH2 0x143 SWAP9 SWAP8 SWAP7 SWAP6 SWAP5 SWAP4 SWAP3 SWAP2 SWAP1 PUSH2 0x1FCA JUMP JUMPDEST PUSH2 0x139 PUSH8 0xDE0B6B3A7640000 DUP2 JUMP JUMPDEST PUSH2 0x173 PUSH32 0x0 DUP2 JUMP JUMPDEST PUSH1 0x1 SLOAD PUSH2 0x139 JUMP JUMPDEST PUSH2 0x22F PUSH2 0x34B CALLDATASIZE PUSH1 0x4 PUSH2 0x1E1F JUMP JUMPDEST PUSH2 0xE43 JUMP JUMPDEST PUSH2 0x139 PUSH1 0x1 SLOAD DUP2 JUMP JUMPDEST PUSH2 0x139 PUSH2 0x367 CALLDATASIZE PUSH1 0x4 PUSH2 0x1E1F JUMP JUMPDEST PUSH2 0x10A0 JUMP JUMPDEST PUSH1 0x0 DUP3 PUSH1 0x0 SUB PUSH2 0x38E JUMPI PUSH1 0x40 MLOAD PUSH3 0xBFC921 PUSH1 0xE0 SHL DUP2 MSTORE PUSH1 0x4 ADD PUSH1 0x40 MLOAD DUP1 SWAP2 SUB SWAP1 REVERT JUMPDEST DUP2 PUSH1 0x0 SUB PUSH2 0x3AF JUMPI PUSH1 0x40 MLOAD PUSH4 0x162908E3 PUSH1 0xE1 SHL DUP2 MSTORE PUSH1 0x4 ADD PUSH1 0x40 MLOAD DUP1 SWAP2 SUB SWAP1 REVERT JUMPDEST PUSH1 0x0 PUSH2 0x3BB DUP4 DUP6 PUSH2 0x10B0 JUMP JUMPDEST SWAP1 POP DUP1 PUSH1 0x0 SUB PUSH2 0x3DE JUMPI PUSH1 0x40 MLOAD PUSH4 0x162908E3 PUSH1 0xE1 SHL DUP2 MSTORE PUSH1 0x4 ADD PUSH1 0x40 MLOAD DUP1 SWAP2 SUB SWAP1 REVERT JUMPDEST PUSH2 0x40A PUSH32 0x0 CALLER ADDRESS DUP5 PUSH2 0x113B JUMP JUMPDEST PUSH2 0x416 PUSH1 0x0 DUP6 DUP6 PUSH2 0x1235 JUMP JUMPDEST SWAP2 POP PUSH2 0x421 DUP3 PUSH2 0x134B JUMP JUMPDEST CALLER PUSH1 0x1 PUSH1 0x1 PUSH1 0xA0 SHL SUB AND DUP3 PUSH32 0xBFA7375F10629D29376D04EEBA251F3E7DB963FAB0091A92B799FDD4B35562AB PUSH1 0x0 DUP8 DUP8 PUSH1 0x40 MLOAD PUSH2 0x460 SWAP4 SWAP3 SWAP2 SWAP1 PUSH2 0x201A JUMP JUMPDEST PUSH1 0x40 MLOAD DUP1 SWAP2 SUB SWAP1 LOG3 PUSH2 0x470 PUSH2 0x1491 JUMP JUMPDEST POP SWAP3 SWAP2 POP POP JUMP JUMPDEST PUSH1 0x4 DUP2 DUP2 SLOAD DUP2 LT PUSH2 0x487 JUMPI PUSH1 0x0 DUP1 REVERT JUMPDEST PUSH1 0x0 SWAP2 DUP3 MSTORE PUSH1 0x20 SWAP1 SWAP2 KECCAK256 ADD SLOAD SWAP1 POP DUP2 JUMP JUMPDEST PUSH1 0x60 PUSH2 0x4A3 CALLER PUSH2 0x641 JUMP JUMPDEST SWAP1 POP SWAP1 JUMP JUMPDEST PUSH1 0x0 DUP2 DUP2 MSTORE PUSH1 0x2 PUSH1 0x20 MSTORE PUSH1 0x40 SWAP1 KECCAK256 PUSH1 0x6 DUP2 ADD SLOAD PUSH1 0xFF AND PUSH2 0x4DB JUMPI PUSH1 0x40 MLOAD PUSH4 0x4065AAF1 PUSH1 0xE1 SHL DUP2 MSTORE PUSH1 0x4 ADD PUSH1 0x40 MLOAD DUP1 SWAP2 SUB SWAP1 REVERT JUMPDEST PUSH1 0x1 DUP2 ADD SLOAD PUSH1 0x1 PUSH1 0x1 PUSH1 0xA0 SHL SUB AND CALLER EQ PUSH2 0x508 JUMPI PUSH1 0x40 MLOAD PUSH4 0x30CD7471 PUSH1 0xE0 SHL DUP2 MSTORE PUSH1 0x4 ADD PUSH1 0x40 MLOAD DUP1 SWAP2 SUB SWAP1 REVERT JUMPDEST PUSH1 0x6 DUP2 ADD DUP1 SLOAD PUSH1 0xFF NOT AND SWAP1 SSTORE PUSH1 0x4 DUP2 ADD SLOAD PUSH1 0x3 DUP3 ADD SLOAD PUSH1 0x0 SWAP2 PUSH2 0x52A SWAP2 PUSH2 0x204F JUMP JUMPDEST SWAP1 POP DUP1 ISZERO PUSH2 0x5CD JUMPI PUSH1 0x0 PUSH1 0x1 DUP4 DUP2 ADD SLOAD PUSH1 0x1 PUSH1 0xA0 SHL SWAP1 DIV PUSH1 0xFF AND SWAP1 DUP2 GT ISZERO PUSH2 0x554 JUMPI PUSH2 0x554 PUSH2 0x1E38 JUMP JUMPDEST SUB PUSH2 0x5A2 JUMPI PUSH1 0x0 PUSH2 0x569 DUP3 DUP5 PUSH1 0x2 ADD SLOAD PUSH2 0x10B0 JUMP JUMPDEST SWAP1 POP DUP1 ISZERO PUSH2 0x59C JUMPI PUSH2 0x59C PUSH32 0x0 CALLER DUP4 PUSH2 0x17A9 JUMP JUMPDEST POP PUSH2 0x5CD JUMP JUMPDEST PUSH2 0x5CD PUSH32 0x0 CALLER DUP4 PUSH2 0x17A9 JUMP JUMPDEST PUSH1 0x0 PUSH1 0x1 DUP4 DUP2 ADD SLOAD PUSH1 0x1 PUSH1 0xA0 SHL SWAP1 DIV PUSH1 0xFF AND SWAP1 DUP2 GT ISZERO PUSH2 0x5EF JUMPI PUSH2 0x5EF PUSH2 0x1E38 JUMP JUMPDEST SUB PUSH2 0x604 JUMPI PUSH2 0x5FF PUSH1 0x3 DUP5 PUSH2 0x189A JUMP JUMPDEST PUSH2 0x60F JUMP JUMPDEST PUSH2 0x60F PUSH1 0x4 DUP5 PUSH2 0x189A JUMP JUMPDEST PUSH1 0x40 MLOAD CALLER SWAP1 DUP5 SWAP1 PUSH32 0xC0362DA6F2FF36B382B34AEC0814F6B3CDF89F5EF282A1D1F114D0C0B036D596 SWAP1 PUSH1 0x0 SWAP1 LOG3 POP POP POP JUMP JUMPDEST PUSH1 0x60 PUSH1 0x0 DUP1 JUMPDEST PUSH1 0x3 SLOAD DUP2 LT ISZERO PUSH2 0x6DA JUMPI PUSH1 0x0 PUSH1 0x2 PUSH1 0x0 PUSH1 0x3 DUP5 DUP2 SLOAD DUP2 LT PUSH2 0x66A JUMPI PUSH2 0x66A PUSH2 0x2062 JUMP JUMPDEST PUSH1 0x0 SWAP2 DUP3 MSTORE PUSH1 0x20 DUP1 DUP4 KECCAK256 SWAP1 SWAP2 ADD SLOAD DUP4 MSTORE DUP3 ADD SWAP3 SWAP1 SWAP3 MSTORE PUSH1 0x40 ADD SWAP1 KECCAK256 PUSH1 0x6 DUP2 ADD SLOAD SWAP1 SWAP2 POP PUSH1 0xFF AND DUP1 ISZERO PUSH2 0x6AB JUMPI POP PUSH1 0x1 DUP2 ADD SLOAD PUSH1 0x1 PUSH1 0x1 PUSH1 0xA0 SHL SUB DUP7 DUP2 AND SWAP2 AND EQ JUMPDEST DUP1 ISZERO PUSH2 0x6BE JUMPI POP DUP1 PUSH1 0x3 ADD SLOAD DUP2 PUSH1 0x4 ADD SLOAD LT JUMPDEST ISZERO PUSH2 0x6D1 JUMPI DUP3 PUSH2 0x6CD DUP2 PUSH2 0x2078 JUMP JUMPDEST SWAP4 POP POP JUMPDEST POP PUSH1 0x1 ADD PUSH2 0x647 JUMP JUMPDEST POP PUSH1 0x0 JUMPDEST PUSH1 0x4 SLOAD DUP2 LT ISZERO PUSH2 0x771 JUMPI PUSH1 0x0 PUSH1 0x2 PUSH1 0x0 PUSH1 0x4 DUP5 DUP2 SLOAD DUP2 LT PUSH2 0x701 JUMPI PUSH2 0x701 PUSH2 0x2062 JUMP JUMPDEST PUSH1 0x0 SWAP2 DUP3 MSTORE PUSH1 0x20 DUP1 DUP4 KECCAK256 SWAP1 SWAP2 ADD SLOAD DUP4 MSTORE DUP3 ADD SWAP3 SWAP1 SWAP3 MSTORE PUSH1 0x40 ADD SWAP1 KECCAK256 PUSH1 0x6 DUP2 ADD SLOAD SWAP1 SWAP2 POP PUSH1 0xFF AND DUP1 ISZERO PUSH2 0x742 JUMPI POP PUSH1 0x1 DUP2 ADD SLOAD PUSH1 0x1 PUSH1 0x1 PUSH1 0xA0 SHL SUB DUP7 DUP2 AND SWAP2 AND EQ JUMPDEST DUP1 ISZERO PUSH2 0x755 JUMPI POP DUP1 PUSH1 0x3 ADD SLOAD DUP2 PUSH1 0x4 ADD SLOAD LT JUMPDEST ISZERO PUSH2 0x768 JUMPI DUP3 PUSH2 0x764 DUP2 PUSH2 0x2078 JUMP JUMPDEST SWAP4 POP POP JUMPDEST POP PUSH1 0x1 ADD PUSH2 0x6DE JUMP JUMPDEST POP PUSH1 0x0 DUP2 PUSH8 0xFFFFFFFFFFFFFFFF DUP2 GT ISZERO PUSH2 0x78D JUMPI PUSH2 0x78D PUSH2 0x2091 JUMP JUMPDEST PUSH1 0x40 MLOAD SWAP1 DUP1 DUP3 MSTORE DUP1 PUSH1 0x20 MUL PUSH1 0x20 ADD DUP3 ADD PUSH1 0x40 MSTORE DUP1 ISZERO PUSH2 0x809 JUMPI DUP2 PUSH1 0x20 ADD JUMPDEST PUSH2 0x7F6 PUSH1 0x40 DUP1 MLOAD PUSH2 0x100 DUP2 ADD SWAP1 SWAP2 MSTORE PUSH1 0x0 DUP1 DUP3 MSTORE PUSH1 0x20 DUP3 ADD SWAP1 DUP2 MSTORE PUSH1 0x20 ADD PUSH1 0x0 DUP2 MSTORE PUSH1 0x20 ADD PUSH1 0x0 DUP2 MSTORE PUSH1 0x20 ADD PUSH1 0x0 DUP2 MSTORE PUSH1 0x20 ADD PUSH1 0x0 DUP2 MSTORE PUSH1 0x20 ADD PUSH1 0x0 DUP2 MSTORE PUSH1 0x20 ADD PUSH1 0x0 ISZERO ISZERO DUP2 MSTORE POP SWAP1 JUMP JUMPDEST DUP2 MSTORE PUSH1 0x20 ADD SWAP1 PUSH1 0x1 SWAP1 SUB SWAP1 DUP2 PUSH2 0x7AB JUMPI SWAP1 POP JUMPDEST POP SWAP1 POP PUSH1 0x0 DUP1 JUMPDEST PUSH1 0x3 SLOAD DUP2 LT ISZERO PUSH2 0x951 JUMPI PUSH1 0x0 PUSH1 0x2 PUSH1 0x0 PUSH1 0x3 DUP5 DUP2 SLOAD DUP2 LT PUSH2 0x833 JUMPI PUSH2 0x833 PUSH2 0x2062 JUMP JUMPDEST PUSH1 0x0 SWAP2 DUP3 MSTORE PUSH1 0x20 DUP1 DUP4 KECCAK256 SWAP1 SWAP2 ADD SLOAD DUP4 MSTORE DUP3 ADD SWAP3 SWAP1 SWAP3 MSTORE PUSH1 0x40 ADD SWAP1 KECCAK256 PUSH1 0x6 DUP2 ADD SLOAD SWAP1 SWAP2 POP PUSH1 0xFF AND DUP1 ISZERO PUSH2 0x874 JUMPI POP PUSH1 0x1 DUP2 ADD SLOAD PUSH1 0x1 PUSH1 0x1 PUSH1 0xA0 SHL SUB DUP9 DUP2 AND SWAP2 AND EQ JUMPDEST DUP1 ISZERO PUSH2 0x887 JUMPI POP DUP1 PUSH1 0x3 ADD SLOAD DUP2 PUSH1 0x4 ADD SLOAD LT JUMPDEST ISZERO PUSH2 0x948 JUMPI PUSH1 0x0 DUP2 PUSH1 0x4 ADD SLOAD DUP3 PUSH1 0x3 ADD SLOAD PUSH2 0x8A2 SWAP2 SWAP1 PUSH2 0x204F JUMP JUMPDEST SWAP1 POP PUSH1 0x40 MLOAD DUP1 PUSH2 0x100 ADD PUSH1 0x40 MSTORE DUP1 DUP4 PUSH1 0x0 ADD SLOAD DUP2 MSTORE PUSH1 0x20 ADD DUP4 PUSH1 0x1 ADD PUSH1 0x14 SWAP1 SLOAD SWAP1 PUSH2 0x100 EXP SWAP1 DIV PUSH1 0xFF AND PUSH1 0x1 DUP2 GT ISZERO PUSH2 0x8DD JUMPI PUSH2 0x8DD PUSH2 0x1E38 JUMP JUMPDEST DUP2 MSTORE PUSH1 0x2 DUP5 ADD SLOAD PUSH1 0x20 DUP3 ADD MSTORE PUSH1 0x3 DUP5 ADD SLOAD PUSH1 0x40 DUP3 ADD MSTORE PUSH1 0x4 DUP5 ADD SLOAD PUSH1 0x60 DUP3 ADD MSTORE PUSH1 0x80 DUP2 ADD DUP4 SWAP1 MSTORE PUSH1 0x5 DUP5 ADD SLOAD PUSH1 0xA0 DUP3 ADD MSTORE PUSH1 0x6 DUP5 ADD SLOAD PUSH1 0xFF AND ISZERO ISZERO PUSH1 0xC0 SWAP1 SWAP2 ADD MSTORE DUP6 DUP6 PUSH2 0x929 DUP2 PUSH2 0x2078 JUMP JUMPDEST SWAP7 POP DUP2 MLOAD DUP2 LT PUSH2 0x93B JUMPI PUSH2 0x93B PUSH2 0x2062 JUMP JUMPDEST PUSH1 0x20 MUL PUSH1 0x20 ADD ADD DUP2 SWAP1 MSTORE POP POP JUMPDEST POP PUSH1 0x1 ADD PUSH2 0x810 JUMP JUMPDEST POP PUSH1 0x0 JUMPDEST PUSH1 0x4 SLOAD DUP2 LT ISZERO PUSH2 0xA96 JUMPI PUSH1 0x0 PUSH1 0x2 PUSH1 0x0 PUSH1 0x4 DUP5 DUP2 SLOAD DUP2 LT PUSH2 0x978 JUMPI PUSH2 0x978 PUSH2 0x2062 JUMP JUMPDEST PUSH1 0x0 SWAP2 DUP3 MSTORE PUSH1 0x20 DUP1 DUP4 KECCAK256 SWAP1 SWAP2 ADD SLOAD DUP4 MSTORE DUP3 ADD SWAP3 SWAP1 SWAP3 MSTORE PUSH1 0x40 ADD SWAP1 KECCAK256 PUSH1 0x6 DUP2 ADD SLOAD SWAP1 SWAP2 POP PUSH1 0xFF AND DUP1 ISZERO PUSH2 0x9B9 JUMPI POP PUSH1 0x1 DUP2 ADD SLOAD PUSH1 0x1 PUSH1 0x1 PUSH1 0xA0 SHL SUB DUP9 DUP2 AND SWAP2 AND EQ JUMPDEST DUP1 ISZERO PUSH2 0x9CC JUMPI POP DUP1 PUSH1 0x3 ADD SLOAD DUP2 PUSH1 0x4 ADD SLOAD LT JUMPDEST ISZERO PUSH2 0xA8D JUMPI PUSH1 0x0 DUP2 PUSH1 0x4 ADD SLOAD DUP3 PUSH1 0x3 ADD SLOAD PUSH2 0x9E7 SWAP2 SWAP1 PUSH2 0x204F JUMP JUMPDEST SWAP1 POP PUSH1 0x40 MLOAD DUP1 PUSH2 0x100 ADD PUSH1 0x40 MSTORE DUP1 DUP4 PUSH1 0x0 ADD SLOAD DUP2 MSTORE PUSH1 0x20 ADD DUP4 PUSH1 0x1 ADD PUSH1 0x14 SWAP1 SLOAD SWAP1 PUSH2 0x100 EXP SWAP1 DIV PUSH1 0xFF AND PUSH1 0x1 DUP2 GT ISZERO PUSH2 0xA22 JUMPI PUSH2 0xA22 PUSH2 0x1E38 JUMP JUMPDEST DUP2 MSTORE PUSH1 0x2 DUP5 ADD SLOAD PUSH1 0x20 DUP3 ADD MSTORE PUSH1 0x3 DUP5 ADD SLOAD PUSH1 0x40 DUP3 ADD MSTORE PUSH1 0x4 DUP5 ADD SLOAD PUSH1 0x60 DUP3 ADD MSTORE PUSH1 0x80 DUP2 ADD DUP4 SWAP1 MSTORE PUSH1 0x5 DUP5 ADD SLOAD PUSH1 0xA0 DUP3 ADD MSTORE PUSH1 0x6 DUP5 ADD SLOAD PUSH1 0xFF AND ISZERO ISZERO PUSH1 0xC0 SWAP1 SWAP2 ADD MSTORE DUP6 DUP6 PUSH2 0xA6E DUP2 PUSH2 0x2078 JUMP JUMPDEST SWAP7 POP DUP2 MLOAD DUP2 LT PUSH2 0xA80 JUMPI PUSH2 0xA80 PUSH2 0x2062 JUMP JUMPDEST PUSH1 0x20 MUL PUSH1 0x20 ADD ADD DUP2 SWAP1 MSTORE POP POP JUMPDEST POP PUSH1 0x1 ADD PUSH2 0x955 JUMP JUMPDEST POP SWAP1 SWAP5 SWAP4 POP POP POP POP JUMP JUMPDEST PUSH1 0x0 DUP3 PUSH1 0x0 SUB PUSH2 0xAC2 JUMPI PUSH1 0x40 MLOAD PUSH3 0xBFC921 PUSH1 0xE0 SHL DUP2 MSTORE PUSH1 0x4 ADD PUSH1 0x40 MLOAD DUP1 SWAP2 SUB SWAP1 REVERT JUMPDEST DUP2 PUSH1 0x0 SUB PUSH2 0xAE3 JUMPI PUSH1 0x40 MLOAD PUSH4 0x162908E3 PUSH1 0xE1 SHL DUP2 MSTORE PUSH1 0x4 ADD PUSH1 0x40 MLOAD DUP1 SWAP2 SUB SWAP1 REVERT JUMPDEST PUSH2 0xB0F PUSH32 0x0 CALLER ADDRESS DUP6 PUSH2 0x113B JUMP JUMPDEST PUSH2 0xB1B PUSH1 0x1 DUP5 DUP5 PUSH2 0x1235 JUMP JUMPDEST SWAP1 POP PUSH2 0xB26 DUP2 PUSH2 0x1970 JUMP JUMPDEST CALLER PUSH1 0x1 PUSH1 0x1 PUSH1 0xA0 SHL SUB AND DUP2 PUSH32 0xBFA7375F10629D29376D04EEBA251F3E7DB963FAB0091A92B799FDD4B35562AB PUSH1 0x1 DUP7 DUP7 PUSH1 0x40 MLOAD PUSH2 0xB65 SWAP4 SWAP3 SWAP2 SWAP1 PUSH2 0x201A JUMP JUMPDEST PUSH1 0x40 MLOAD DUP1 SWAP2 SUB SWAP1 LOG3 PUSH2 0xB75 PUSH2 0x1491 JUMP JUMPDEST SWAP3 SWAP2 POP POP JUMP JUMPDEST DUP1 PUSH1 0x0 SUB PUSH2 0xB9C JUMPI PUSH1 0x40 MLOAD PUSH4 0x162908E3 PUSH1 0xE1 SHL DUP2 MSTORE PUSH1 0x4 ADD PUSH1 0x40 MLOAD DUP1 SWAP2 SUB SWAP1 REVERT JUMPDEST PUSH2 0xBC8 PUSH32 0x0 CALLER ADDRESS DUP5 PUSH2 0x113B JUMP JUMPDEST DUP1 PUSH1 0x0 JUMPDEST PUSH1 0x4 SLOAD DUP2 LT DUP1 ISZERO PUSH2 0xBDD JUMPI POP PUSH1 0x0 DUP3 GT JUMPDEST ISZERO PUSH2 0xDC8 JUMPI PUSH1 0x0 PUSH1 0x4 DUP3 DUP2 SLOAD DUP2 LT PUSH2 0xBF7 JUMPI PUSH2 0xBF7 PUSH2 0x2062 JUMP JUMPDEST PUSH1 0x0 SWAP2 DUP3 MSTORE PUSH1 0x20 DUP1 DUP4 KECCAK256 SWAP1 SWAP2 ADD SLOAD DUP1 DUP4 MSTORE PUSH1 0x2 SWAP1 SWAP2 MSTORE PUSH1 0x40 SWAP1 SWAP2 KECCAK256 PUSH1 0x6 DUP2 ADD SLOAD SWAP2 SWAP3 POP SWAP1 PUSH1 0xFF AND PUSH2 0xC36 JUMPI DUP3 PUSH2 0xC2C DUP2 PUSH2 0x2078 JUMP JUMPDEST SWAP4 POP POP POP POP PUSH2 0xBCC JUMP JUMPDEST PUSH1 0x0 DUP2 PUSH1 0x4 ADD SLOAD DUP3 PUSH1 0x3 ADD SLOAD PUSH2 0xC4C SWAP2 SWAP1 PUSH2 0x204F JUMP JUMPDEST SWAP1 POP DUP1 PUSH1 0x0 SUB PUSH2 0xC67 JUMPI PUSH2 0xC5F DUP5 PUSH2 0x1AA4 JUMP JUMPDEST POP POP POP PUSH2 0xBCC JUMP JUMPDEST PUSH1 0x0 PUSH2 0xC77 DUP7 DUP5 PUSH1 0x2 ADD SLOAD PUSH2 0x1AF0 JUMP JUMPDEST SWAP1 POP DUP1 PUSH1 0x0 SUB PUSH2 0xC8A JUMPI POP POP POP POP PUSH2 0xDC8 JUMP JUMPDEST PUSH1 0x0 DUP3 DUP3 LT PUSH2 0xC99 JUMPI DUP3 PUSH2 0xC9B JUMP JUMPDEST DUP2 JUMPDEST SWAP1 POP PUSH1 0x0 PUSH2 0xCAD DUP3 DUP7 PUSH1 0x2 ADD SLOAD PUSH2 0x10B0 JUMP JUMPDEST SWAP1 POP DUP2 DUP6 PUSH1 0x4 ADD PUSH1 0x0 DUP3 DUP3 SLOAD PUSH2 0xCC3 SWAP2 SWAP1 PUSH2 0x20A7 JUMP JUMPDEST SWAP1 SWAP2 SSTORE POP PUSH2 0xCD3 SWAP1 POP DUP2 DUP10 PUSH2 0x204F JUMP JUMPDEST SWAP8 POP PUSH2 0xD00 PUSH32 0x0 CALLER DUP5 PUSH2 0x17A9 JUMP JUMPDEST PUSH1 0x1 DUP6 ADD SLOAD PUSH2 0xD3A SWAP1 PUSH32 0x0 SWAP1 PUSH1 0x1 PUSH1 0x1 PUSH1 0xA0 SHL SUB AND DUP4 PUSH2 0x17A9 JUMP JUMPDEST PUSH1 0x2 DUP6 ADD SLOAD PUSH1 0x1 DUP2 DUP2 SSTORE DUP7 ADD SLOAD DUP7 SLOAD PUSH1 0x40 MLOAD CALLER SWAP4 PUSH1 0x1 PUSH1 0x1 PUSH1 0xA0 SHL SUB SWAP1 SWAP4 AND SWAP3 PUSH32 0xEB7062411A6997E25EB45E7E1FB3C88CECBFA57B15D77307553B6BF937F108BA SWAP2 PUSH2 0xD8A SWAP2 PUSH1 0x0 SWAP2 DUP10 SWAP1 PUSH2 0x201A JUMP JUMPDEST PUSH1 0x40 MLOAD DUP1 SWAP2 SUB SWAP1 LOG4 DUP5 PUSH1 0x3 ADD SLOAD DUP6 PUSH1 0x4 ADD SLOAD SUB PUSH2 0xDAF JUMPI PUSH2 0xDAA DUP8 PUSH2 0x1AA4 JUMP JUMPDEST PUSH2 0xDBD JUMP JUMPDEST DUP7 PUSH2 0xDB9 DUP2 PUSH2 0x2078 JUMP JUMPDEST SWAP8 POP POP JUMPDEST POP POP POP POP POP POP PUSH2 0xBCC JUMP JUMPDEST DUP2 ISZERO PUSH2 0xDF9 JUMPI PUSH2 0xDF9 PUSH32 0x0 CALLER DUP5 PUSH2 0x17A9 JUMP JUMPDEST POP POP POP JUMP JUMPDEST PUSH1 0x60 DUP1 PUSH1 0x60 DUP1 DUP5 PUSH1 0x0 SUB PUSH2 0xE11 JUMPI PUSH1 0xA SWAP5 POP JUMPDEST PUSH1 0x0 DUP1 PUSH2 0xE1F PUSH1 0x3 DUP9 PUSH2 0x1B60 JUMP JUMPDEST SWAP2 POP SWAP2 POP PUSH1 0x0 DUP1 PUSH2 0xE31 PUSH1 0x4 DUP11 PUSH2 0x1B60 JUMP JUMPDEST SWAP5 SWAP11 SWAP4 SWAP10 POP SWAP8 POP SWAP3 SWAP6 POP SWAP1 SWAP4 POP POP POP POP JUMP JUMPDEST DUP1 PUSH1 0x0 SUB PUSH2 0xE64 JUMPI PUSH1 0x40 MLOAD PUSH4 0x162908E3 PUSH1 0xE1 SHL DUP2 MSTORE PUSH1 0x4 ADD PUSH1 0x40 MLOAD DUP1 SWAP2 SUB SWAP1 REVERT JUMPDEST PUSH2 0xE90 PUSH32 0x0 CALLER ADDRESS DUP5 PUSH2 0x113B JUMP JUMPDEST DUP1 PUSH1 0x0 JUMPDEST PUSH1 0x3 SLOAD DUP2 LT DUP1 ISZERO PUSH2 0xEA5 JUMPI POP PUSH1 0x0 DUP3 GT JUMPDEST ISZERO PUSH2 0x106F JUMPI PUSH1 0x0 PUSH1 0x3 DUP3 DUP2 SLOAD DUP2 LT PUSH2 0xEBF JUMPI PUSH2 0xEBF PUSH2 0x2062 JUMP JUMPDEST PUSH1 0x0 SWAP2 DUP3 MSTORE PUSH1 0x20 DUP1 DUP4 KECCAK256 SWAP1 SWAP2 ADD SLOAD DUP1 DUP4 MSTORE PUSH1 0x2 SWAP1 SWAP2 MSTORE PUSH1 0x40 SWAP1 SWAP2 KECCAK256 PUSH1 0x6 DUP2 ADD SLOAD SWAP2 SWAP3 POP SWAP1 PUSH1 0xFF AND PUSH2 0xEFE JUMPI DUP3 PUSH2 0xEF4 DUP2 PUSH2 0x2078 JUMP JUMPDEST SWAP4 POP POP POP POP PUSH2 0xE94 JUMP JUMPDEST PUSH1 0x0 DUP2 PUSH1 0x4 ADD SLOAD DUP3 PUSH1 0x3 ADD SLOAD PUSH2 0xF14 SWAP2 SWAP1 PUSH2 0x204F JUMP JUMPDEST SWAP1 POP DUP1 PUSH1 0x0 SUB PUSH2 0xF2F JUMPI PUSH2 0xF27 DUP5 PUSH2 0x1DA5 JUMP JUMPDEST POP POP POP PUSH2 0xE94 JUMP JUMPDEST PUSH1 0x0 DUP2 DUP7 LT PUSH2 0xF3E JUMPI DUP2 PUSH2 0xF40 JUMP JUMPDEST DUP6 JUMPDEST SWAP1 POP PUSH1 0x0 PUSH2 0xF52 DUP3 DUP6 PUSH1 0x2 ADD SLOAD PUSH2 0x10B0 JUMP JUMPDEST SWAP1 POP DUP2 DUP5 PUSH1 0x4 ADD PUSH1 0x0 DUP3 DUP3 SLOAD PUSH2 0xF68 SWAP2 SWAP1 PUSH2 0x20A7 JUMP JUMPDEST SWAP1 SWAP2 SSTORE POP PUSH2 0xF78 SWAP1 POP DUP3 DUP9 PUSH2 0x204F JUMP JUMPDEST SWAP7 POP PUSH2 0xFA5 PUSH32 0x0 CALLER DUP4 PUSH2 0x17A9 JUMP JUMPDEST PUSH1 0x1 DUP5 ADD SLOAD PUSH2 0xFDF SWAP1 PUSH32 0x0 SWAP1 PUSH1 0x1 PUSH1 0x1 PUSH1 0xA0 SHL SUB AND DUP5 PUSH2 0x17A9 JUMP JUMPDEST PUSH1 0x2 DUP5 ADD SLOAD PUSH1 0x1 DUP2 DUP2 SSTORE DUP1 DUP7 ADD SLOAD DUP7 SLOAD PUSH1 0x40 MLOAD CALLER SWAP5 PUSH1 0x1 PUSH1 0x1 PUSH1 0xA0 SHL SUB SWAP1 SWAP4 AND SWAP4 SWAP2 SWAP3 PUSH32 0xEB7062411A6997E25EB45E7E1FB3C88CECBFA57B15D77307553B6BF937F108BA SWAP3 PUSH2 0x1032 SWAP3 SWAP1 SWAP2 SWAP1 DUP10 SWAP1 PUSH2 0x201A JUMP JUMPDEST PUSH1 0x40 MLOAD DUP1 SWAP2 SUB SWAP1 LOG4 DUP4 PUSH1 0x3 ADD SLOAD DUP5 PUSH1 0x4 ADD SLOAD SUB PUSH2 0x1057 JUMPI PUSH2 0x1052 DUP7 PUSH2 0x1DA5 JUMP JUMPDEST PUSH2 0x1065 JUMP JUMPDEST DUP6 PUSH2 0x1061 DUP2 PUSH2 0x2078 JUMP JUMPDEST SWAP7 POP POP JUMPDEST POP POP POP POP POP PUSH2 0xE94 JUMP JUMPDEST DUP2 ISZERO PUSH2 0xDF9 JUMPI PUSH2 0xDF9 PUSH32 0x0 CALLER DUP5 PUSH2 0x17A9 JUMP JUMPDEST PUSH1 0x3 DUP2 DUP2 SLOAD DUP2 LT PUSH2 0x487 JUMPI PUSH1 0x0 DUP1 REVERT JUMPDEST PUSH1 0x0 PUSH2 0x10DB PUSH32 0x0 PUSH2 0x1DED JUMP JUMPDEST PUSH2 0x10ED SWAP1 PUSH8 0xDE0B6B3A7640000 PUSH2 0x20BA JUMP JUMPDEST PUSH2 0x1116 PUSH32 0x0 PUSH2 0x1DED JUMP JUMPDEST PUSH2 0x1120 DUP5 DUP7 PUSH2 0x20BA JUMP JUMPDEST PUSH2 0x112A SWAP2 SWAP1 PUSH2 0x20BA JUMP JUMPDEST PUSH2 0x1134 SWAP2 SWAP1 PUSH2 0x20D1 JUMP JUMPDEST SWAP4 SWAP3 POP POP POP JUMP JUMPDEST PUSH1 0x40 DUP1 MLOAD PUSH1 0x1 PUSH1 0x1 PUSH1 0xA0 SHL SUB DUP6 DUP2 AND PUSH1 0x24 DUP4 ADD MSTORE DUP5 DUP2 AND PUSH1 0x44 DUP4 ADD MSTORE PUSH1 0x64 DUP1 DUP4 ADD DUP6 SWAP1 MSTORE DUP4 MLOAD DUP1 DUP5 SUB SWAP1 SWAP2 ADD DUP2 MSTORE PUSH1 0x84 SWAP1 SWAP3 ADD DUP4 MSTORE PUSH1 0x20 DUP3 ADD DUP1 MLOAD PUSH1 0x1 PUSH1 0x1 PUSH1 0xE0 SHL SUB AND PUSH4 0x23B872DD PUSH1 0xE0 SHL OR SWAP1 MSTORE SWAP2 MLOAD PUSH1 0x0 SWAP3 DUP4 SWAP3 SWAP1 DUP9 AND SWAP2 PUSH2 0x119F SWAP2 SWAP1 PUSH2 0x20F3 JUMP JUMPDEST PUSH1 0x0 PUSH1 0x40 MLOAD DUP1 DUP4 SUB DUP2 PUSH1 0x0 DUP7 GAS CALL SWAP2 POP POP RETURNDATASIZE DUP1 PUSH1 0x0 DUP2 EQ PUSH2 0x11DC JUMPI PUSH1 0x40 MLOAD SWAP2 POP PUSH1 0x1F NOT PUSH1 0x3F RETURNDATASIZE ADD AND DUP3 ADD PUSH1 0x40 MSTORE RETURNDATASIZE DUP3 MSTORE RETURNDATASIZE PUSH1 0x0 PUSH1 0x20 DUP5 ADD RETURNDATACOPY PUSH2 0x11E1 JUMP JUMPDEST PUSH1 0x60 SWAP2 POP JUMPDEST POP SWAP2 POP SWAP2 POP DUP2 ISZERO DUP1 PUSH2 0x120F JUMPI POP DUP1 MLOAD ISZERO DUP1 ISZERO SWAP1 PUSH2 0x120F JUMPI POP DUP1 DUP1 PUSH1 0x20 ADD SWAP1 MLOAD DUP2 ADD SWAP1 PUSH2 0x120D SWAP2 SWAP1 PUSH2 0x2122 JUMP JUMPDEST ISZERO JUMPDEST ISZERO PUSH2 0x122D JUMPI PUSH1 0x40 MLOAD PUSH4 0x12171D83 PUSH1 0xE3 SHL DUP2 MSTORE PUSH1 0x4 ADD PUSH1 0x40 MLOAD DUP1 SWAP2 SUB SWAP1 REVERT JUMPDEST POP POP POP POP POP POP JUMP JUMPDEST PUSH1 0x0 DUP1 SLOAD DUP2 DUP1 PUSH2 0x1244 DUP4 PUSH2 0x2078 JUMP JUMPDEST SWAP1 SWAP2 SSTORE POP PUSH1 0x40 DUP1 MLOAD PUSH2 0x100 DUP2 ADD DUP3 MSTORE DUP3 DUP2 MSTORE CALLER PUSH1 0x20 DUP3 ADD MSTORE SWAP2 SWAP3 POP DUP2 ADD DUP6 PUSH1 0x1 DUP2 GT ISZERO PUSH2 0x1273 JUMPI PUSH2 0x1273 PUSH2 0x1E38 JUMP JUMPDEST DUP2 MSTORE PUSH1 0x20 DUP1 DUP3 ADD DUP7 SWAP1 MSTORE PUSH1 0x40 DUP1 DUP4 ADD DUP7 SWAP1 MSTORE PUSH1 0x0 PUSH1 0x60 DUP5 ADD DUP2 SWAP1 MSTORE TIMESTAMP PUSH1 0x80 DUP6 ADD MSTORE PUSH1 0x1 PUSH1 0xA0 SWAP1 SWAP5 ADD DUP5 SWAP1 MSTORE DUP6 DUP2 MSTORE PUSH1 0x2 DUP4 MSTORE DUP2 SWAP1 KECCAK256 DUP5 MLOAD DUP2 SSTORE SWAP2 DUP5 ADD MLOAD DUP3 DUP5 ADD DUP1 SLOAD PUSH1 0x1 PUSH1 0x1 PUSH1 0xA0 SHL SUB NOT DUP2 AND PUSH1 0x1 PUSH1 0x1 PUSH1 0xA0 SHL SUB SWAP1 SWAP4 AND SWAP3 DUP4 OR DUP3 SSTORE SWAP3 DUP7 ADD MLOAD SWAP4 SWAP5 SWAP1 SWAP3 PUSH1 0x1 PUSH1 0x1 PUSH1 0xA8 SHL SUB NOT AND SWAP1 SWAP2 OR SWAP1 PUSH1 0x1 PUSH1 0xA0 SHL SWAP1 DUP5 SWAP1 DUP2 GT ISZERO PUSH2 0x12FD JUMPI PUSH2 0x12FD PUSH2 0x1E38 JUMP JUMPDEST MUL OR SWAP1 SSTORE POP PUSH1 0x60 DUP3 ADD MLOAD PUSH1 0x2 DUP3 ADD SSTORE PUSH1 0x80 DUP3 ADD MLOAD PUSH1 0x3 DUP3 ADD SSTORE PUSH1 0xA0 DUP3 ADD MLOAD PUSH1 0x4 DUP3 ADD SSTORE PUSH1 0xC0 DUP3 ADD MLOAD PUSH1 0x5 DUP3 ADD SSTORE PUSH1 0xE0 SWAP1 SWAP2 ADD MLOAD PUSH1 0x6 SWAP1 SWAP2 ADD DUP1 SLOAD PUSH1 0xFF NOT AND SWAP2 ISZERO ISZERO SWAP2 SWAP1 SWAP2 OR SWAP1 SSTORE SWAP4 SWAP3 POP POP POP JUMP JUMPDEST PUSH1 0x0 DUP2 DUP2 MSTORE PUSH1 0x2 PUSH1 0x20 MSTORE PUSH1 0x40 DUP2 KECCAK256 PUSH1 0x3 DUP1 SLOAD PUSH1 0x1 DUP2 ADD DUP3 SSTORE SWAP3 MSTORE PUSH32 0xC2575A0E9E593C00F959F8C92F12DB2869C3395A3B0502D05E2516446F71F85B DUP3 ADD DUP4 SWAP1 SSTORE SWAP1 DUP1 JUMPDEST DUP1 ISZERO PUSH2 0x146B JUMPI PUSH1 0x0 PUSH1 0x2 DUP2 PUSH1 0x3 PUSH2 0x13A6 PUSH1 0x1 DUP7 PUSH2 0x204F JUMP JUMPDEST DUP2 SLOAD DUP2 LT PUSH2 0x13B6 JUMPI PUSH2 0x13B6 PUSH2 0x2062 JUMP JUMPDEST SWAP1 PUSH1 0x0 MSTORE PUSH1 0x20 PUSH1 0x0 KECCAK256 ADD SLOAD DUP2 MSTORE PUSH1 0x20 ADD SWAP1 DUP2 MSTORE PUSH1 0x20 ADD PUSH1 0x0 KECCAK256 SWAP1 POP PUSH1 0x0 DUP2 PUSH1 0x2 ADD SLOAD DUP6 PUSH1 0x2 ADD SLOAD GT DUP1 PUSH2 0x1402 JUMPI POP DUP2 PUSH1 0x2 ADD SLOAD DUP6 PUSH1 0x2 ADD SLOAD EQ DUP1 ISZERO PUSH2 0x1402 JUMPI POP DUP2 PUSH1 0x5 ADD SLOAD DUP6 PUSH1 0x5 ADD SLOAD LT JUMPDEST SWAP1 POP DUP1 PUSH2 0x1410 JUMPI POP POP PUSH2 0x146B JUMP JUMPDEST PUSH1 0x3 PUSH2 0x141D PUSH1 0x1 DUP6 PUSH2 0x204F JUMP JUMPDEST DUP2 SLOAD DUP2 LT PUSH2 0x142D JUMPI PUSH2 0x142D PUSH2 0x2062 JUMP JUMPDEST SWAP1 PUSH1 0x0 MSTORE PUSH1 0x20 PUSH1 0x0 KECCAK256 ADD SLOAD PUSH1 0x3 DUP5 DUP2 SLOAD DUP2 LT PUSH2 0x144B JUMPI PUSH2 0x144B PUSH2 0x2062 JUMP JUMPDEST PUSH1 0x0 SWAP2 DUP3 MSTORE PUSH1 0x20 SWAP1 SWAP2 KECCAK256 ADD SSTORE DUP3 PUSH2 0x1461 DUP2 PUSH2 0x2144 JUMP JUMPDEST SWAP4 POP POP POP POP PUSH2 0x138E JUMP JUMPDEST DUP4 PUSH1 0x3 DUP3 DUP2 SLOAD DUP2 LT PUSH2 0x147F JUMPI PUSH2 0x147F PUSH2 0x2062 JUMP JUMPDEST PUSH1 0x0 SWAP2 DUP3 MSTORE PUSH1 0x20 SWAP1 SWAP2 KECCAK256 ADD SSTORE POP POP POP POP JUMP JUMPDEST PUSH1 0x3 SLOAD ISZERO DUP1 ISZERO SWAP1 PUSH2 0x14A3 JUMPI POP PUSH1 0x4 SLOAD ISZERO ISZERO JUMPDEST ISZERO PUSH2 0x17A7 JUMPI PUSH1 0x0 PUSH1 0x2 PUSH1 0x0 PUSH1 0x3 PUSH1 0x0 DUP2 SLOAD DUP2 LT PUSH2 0x14C2 JUMPI PUSH2 0x14C2 PUSH2 0x2062 JUMP JUMPDEST SWAP1 PUSH1 0x0 MSTORE PUSH1 0x20 PUSH1 0x0 KECCAK256 ADD SLOAD DUP2 MSTORE PUSH1 0x20 ADD SWAP1 DUP2 MSTORE PUSH1 0x20 ADD PUSH1 0x0 KECCAK256 SWAP1 POP PUSH1 0x0 PUSH1 0x2 PUSH1 0x0 PUSH1 0x4 PUSH1 0x0 DUP2 SLOAD DUP2 LT PUSH2 0x14F7 JUMPI PUSH2 0x14F7 PUSH2 0x2062 JUMP JUMPDEST PUSH1 0x0 SWAP2 DUP3 MSTORE PUSH1 0x20 DUP1 DUP4 KECCAK256 SWAP1 SWAP2 ADD SLOAD DUP4 MSTORE DUP3 ADD SWAP3 SWAP1 SWAP3 MSTORE PUSH1 0x40 ADD SWAP1 KECCAK256 PUSH1 0x6 DUP4 ADD SLOAD SWAP1 SWAP2 POP PUSH1 0xFF AND PUSH2 0x1532 JUMPI PUSH2 0x152B PUSH1 0x0 PUSH2 0x1DA5 JUMP JUMPDEST POP POP PUSH2 0x1491 JUMP JUMPDEST PUSH1 0x6 DUP2 ADD SLOAD PUSH1 0xFF AND PUSH2 0x1548 JUMPI PUSH2 0x152B PUSH1 0x0 PUSH2 0x1AA4 JUMP JUMPDEST DUP1 PUSH1 0x2 ADD SLOAD DUP3 PUSH1 0x2 ADD SLOAD LT ISZERO PUSH2 0x155C JUMPI POP POP JUMP JUMPDEST PUSH1 0x0 DUP3 PUSH1 0x4 ADD SLOAD DUP4 PUSH1 0x3 ADD SLOAD PUSH2 0x1572 SWAP2 SWAP1 PUSH2 0x204F JUMP JUMPDEST SWAP1 POP PUSH1 0x0 DUP3 PUSH1 0x4 ADD SLOAD DUP4 PUSH1 0x3 ADD SLOAD PUSH2 0x158A SWAP2 SWAP1 PUSH2 0x204F JUMP JUMPDEST SWAP1 POP DUP2 PUSH1 0x0 SUB PUSH2 0x15A7 JUMPI PUSH2 0x159E PUSH1 0x0 PUSH2 0x1DA5 JUMP JUMPDEST POP POP POP POP PUSH2 0x1491 JUMP JUMPDEST DUP1 PUSH1 0x0 SUB PUSH2 0x15B9 JUMPI PUSH2 0x159E PUSH1 0x0 PUSH2 0x1AA4 JUMP JUMPDEST PUSH1 0x0 DUP2 DUP4 LT PUSH2 0x15C8 JUMPI DUP2 PUSH2 0x15CA JUMP JUMPDEST DUP3 JUMPDEST PUSH1 0x2 DUP6 ADD SLOAD SWAP1 SWAP2 POP PUSH1 0x0 PUSH2 0x15DE DUP4 DUP4 PUSH2 0x10B0 JUMP JUMPDEST SWAP1 POP DUP3 DUP8 PUSH1 0x4 ADD PUSH1 0x0 DUP3 DUP3 SLOAD PUSH2 0x15F4 SWAP2 SWAP1 PUSH2 0x20A7 JUMP JUMPDEST SWAP3 POP POP DUP2 SWAP1 SSTORE POP DUP3 DUP7 PUSH1 0x4 ADD PUSH1 0x0 DUP3 DUP3 SLOAD PUSH2 0x160F SWAP2 SWAP1 PUSH2 0x20A7 JUMP JUMPDEST SWAP1 SWAP2 SSTORE POP POP PUSH1 0x1 DUP8 ADD SLOAD PUSH2 0x164E SWAP1 PUSH32 0x0 SWAP1 PUSH1 0x1 PUSH1 0x1 PUSH1 0xA0 SHL SUB AND DUP6 PUSH2 0x17A9 JUMP JUMPDEST PUSH1 0x1 DUP7 ADD SLOAD PUSH2 0x1688 SWAP1 PUSH32 0x0 SWAP1 PUSH1 0x1 PUSH1 0x1 PUSH1 0xA0 SHL SUB AND DUP4 PUSH2 0x17A9 JUMP JUMPDEST DUP7 PUSH1 0x3 ADD SLOAD DUP8 PUSH1 0x4 ADD SLOAD SUB PUSH2 0x170D JUMPI PUSH1 0x0 PUSH2 0x16AB DUP9 PUSH1 0x3 ADD SLOAD DUP10 PUSH1 0x2 ADD SLOAD PUSH2 0x10B0 JUMP JUMPDEST SWAP1 POP PUSH1 0x0 PUSH2 0x16BD DUP10 PUSH1 0x3 ADD SLOAD DUP6 PUSH2 0x10B0 JUMP JUMPDEST SWAP1 POP DUP1 DUP3 GT ISZERO PUSH2 0x170A JUMPI PUSH1 0x1 DUP10 ADD SLOAD PUSH2 0x170A SWAP1 PUSH32 0x0 SWAP1 PUSH1 0x1 PUSH1 0x1 PUSH1 0xA0 SHL SUB AND PUSH2 0x1705 DUP5 DUP7 PUSH2 0x204F JUMP JUMPDEST PUSH2 0x17A9 JUMP JUMPDEST POP POP JUMPDEST PUSH1 0x1 DUP3 DUP2 SSTORE DUP8 DUP2 ADD SLOAD SWAP1 DUP8 ADD SLOAD DUP8 SLOAD PUSH1 0x40 MLOAD PUSH1 0x1 PUSH1 0x1 PUSH1 0xA0 SHL SUB SWAP4 DUP5 AND SWAP4 SWAP1 SWAP3 AND SWAP2 PUSH32 0xEB7062411A6997E25EB45E7E1FB3C88CECBFA57B15D77307553B6BF937F108BA SWAP1 PUSH2 0x1761 SWAP1 PUSH1 0x0 SWAP1 DUP9 SWAP1 DUP11 SWAP1 PUSH2 0x201A JUMP JUMPDEST PUSH1 0x40 MLOAD DUP1 SWAP2 SUB SWAP1 LOG4 DUP7 PUSH1 0x3 ADD SLOAD DUP8 PUSH1 0x4 ADD SLOAD SUB PUSH2 0x1782 JUMPI PUSH2 0x1782 PUSH1 0x0 PUSH2 0x1DA5 JUMP JUMPDEST DUP6 PUSH1 0x3 ADD SLOAD DUP7 PUSH1 0x4 ADD SLOAD SUB PUSH2 0x179B JUMPI PUSH2 0x179B PUSH1 0x0 PUSH2 0x1AA4 JUMP JUMPDEST POP POP POP POP POP POP POP PUSH2 0x1491 JUMP JUMPDEST JUMP JUMPDEST PUSH1 0x40 DUP1 MLOAD PUSH1 0x1 PUSH1 0x1 PUSH1 0xA0 SHL SUB DUP5 DUP2 AND PUSH1 0x24 DUP4 ADD MSTORE PUSH1 0x44 DUP1 DUP4 ADD DUP6 SWAP1 MSTORE DUP4 MLOAD DUP1 DUP5 SUB SWAP1 SWAP2 ADD DUP2 MSTORE PUSH1 0x64 SWAP1 SWAP3 ADD DUP4 MSTORE PUSH1 0x20 DUP3 ADD DUP1 MLOAD PUSH1 0x1 PUSH1 0x1 PUSH1 0xE0 SHL SUB AND PUSH4 0xA9059CBB PUSH1 0xE0 SHL OR SWAP1 MSTORE SWAP2 MLOAD PUSH1 0x0 SWAP3 DUP4 SWAP3 SWAP1 DUP8 AND SWAP2 PUSH2 0x1805 SWAP2 SWAP1 PUSH2 0x20F3 JUMP JUMPDEST PUSH1 0x0 PUSH1 0x40 MLOAD DUP1 DUP4 SUB DUP2 PUSH1 0x0 DUP7 GAS CALL SWAP2 POP POP RETURNDATASIZE DUP1 PUSH1 0x0 DUP2 EQ PUSH2 0x1842 JUMPI PUSH1 0x40 MLOAD SWAP2 POP PUSH1 0x1F NOT PUSH1 0x3F RETURNDATASIZE ADD AND DUP3 ADD PUSH1 0x40 MSTORE RETURNDATASIZE DUP3 MSTORE RETURNDATASIZE PUSH1 0x0 PUSH1 0x20 DUP5 ADD RETURNDATACOPY PUSH2 0x1847 JUMP JUMPDEST PUSH1 0x60 SWAP2 POP JUMPDEST POP SWAP2 POP SWAP2 POP DUP2 ISZERO DUP1 PUSH2 0x1875 JUMPI POP DUP1 MLOAD ISZERO DUP1 ISZERO SWAP1 PUSH2 0x1875 JUMPI POP DUP1 DUP1 PUSH1 0x20 ADD SWAP1 MLOAD DUP2 ADD SWAP1 PUSH2 0x1873 SWAP2 SWAP1 PUSH2 0x2122 JUMP JUMPDEST ISZERO JUMPDEST ISZERO PUSH2 0x1893 JUMPI PUSH1 0x40 MLOAD PUSH4 0x12171D83 PUSH1 0xE3 SHL DUP2 MSTORE PUSH1 0x4 ADD PUSH1 0x40 MLOAD DUP1 SWAP2 SUB SWAP1 REVERT JUMPDEST POP POP POP POP POP JUMP JUMPDEST DUP2 SLOAD PUSH1 0x0 JUMPDEST DUP2 DUP2 LT ISZERO PUSH2 0x196A JUMPI DUP3 DUP5 DUP3 DUP2 SLOAD DUP2 LT PUSH2 0x18BA JUMPI PUSH2 0x18BA PUSH2 0x2062 JUMP JUMPDEST SWAP1 PUSH1 0x0 MSTORE PUSH1 0x20 PUSH1 0x0 KECCAK256 ADD SLOAD SUB PUSH2 0x1962 JUMPI DUP1 JUMPDEST DUP3 PUSH2 0x18D8 DUP3 PUSH1 0x1 PUSH2 0x20A7 JUMP JUMPDEST LT ISZERO PUSH2 0x1935 JUMPI DUP5 PUSH2 0x18EA DUP3 PUSH1 0x1 PUSH2 0x20A7 JUMP JUMPDEST DUP2 SLOAD DUP2 LT PUSH2 0x18FA JUMPI PUSH2 0x18FA PUSH2 0x2062 JUMP JUMPDEST SWAP1 PUSH1 0x0 MSTORE PUSH1 0x20 PUSH1 0x0 KECCAK256 ADD SLOAD DUP6 DUP3 DUP2 SLOAD DUP2 LT PUSH2 0x1917 JUMPI PUSH2 0x1917 PUSH2 0x2062 JUMP JUMPDEST PUSH1 0x0 SWAP2 DUP3 MSTORE PUSH1 0x20 SWAP1 SWAP2 KECCAK256 ADD SSTORE DUP1 PUSH2 0x192D DUP2 PUSH2 0x2078 JUMP JUMPDEST SWAP2 POP POP PUSH2 0x18CC JUMP JUMPDEST POP DUP4 DUP1 SLOAD DUP1 PUSH2 0x1946 JUMPI PUSH2 0x1946 PUSH2 0x215B JUMP JUMPDEST PUSH1 0x1 SWAP1 SUB DUP2 DUP2 SWAP1 PUSH1 0x0 MSTORE PUSH1 0x20 PUSH1 0x0 KECCAK256 ADD PUSH1 0x0 SWAP1 SSTORE SWAP1 SSTORE POP POP POP POP JUMP JUMPDEST PUSH1 0x1 ADD PUSH2 0x189F JUMP JUMPDEST POP POP POP POP JUMP JUMPDEST PUSH1 0x0 DUP2 DUP2 MSTORE PUSH1 0x2 PUSH1 0x20 MSTORE PUSH1 0x40 DUP2 KECCAK256 PUSH1 0x4 DUP1 SLOAD PUSH1 0x1 DUP2 ADD DUP3 SSTORE SWAP3 MSTORE PUSH32 0x8A35ACFBC15FF81A39AE7D344FD709F28E8600B4AA8C65C6B64BFE7FE36BD19B DUP3 ADD DUP4 SWAP1 SSTORE SWAP1 DUP1 JUMPDEST DUP1 ISZERO PUSH2 0x1A90 JUMPI PUSH1 0x0 PUSH1 0x2 DUP2 PUSH1 0x4 PUSH2 0x19CB PUSH1 0x1 DUP7 PUSH2 0x204F JUMP JUMPDEST DUP2 SLOAD DUP2 LT PUSH2 0x19DB JUMPI PUSH2 0x19DB PUSH2 0x2062 JUMP JUMPDEST SWAP1 PUSH1 0x0 MSTORE PUSH1 0x20 PUSH1 0x0 KECCAK256 ADD SLOAD DUP2 MSTORE PUSH1 0x20 ADD SWAP1 DUP2 MSTORE PUSH1 0x20 ADD PUSH1 0x0 KECCAK256 SWAP1 POP PUSH1 0x0 DUP2 PUSH1 0x2 ADD SLOAD DUP6 PUSH1 0x2 ADD SLOAD LT DUP1 PUSH2 0x1A27 JUMPI POP DUP2 PUSH1 0x2 ADD SLOAD DUP6 PUSH1 0x2 ADD SLOAD EQ DUP1 ISZERO PUSH2 0x1A27 JUMPI POP DUP2 PUSH1 0x5 ADD SLOAD DUP6 PUSH1 0x5 ADD SLOAD LT JUMPDEST SWAP1 POP DUP1 PUSH2 0x1A35 JUMPI POP POP PUSH2 0x1A90 JUMP JUMPDEST PUSH1 0x4 PUSH2 0x1A42 PUSH1 0x1 DUP6 PUSH2 0x204F JUMP JUMPDEST DUP2 SLOAD DUP2 LT PUSH2 0x1A52 JUMPI PUSH2 0x1A52 PUSH2 0x2062 JUMP JUMPDEST SWAP1 PUSH1 0x0 MSTORE PUSH1 0x20 PUSH1 0x0 KECCAK256 ADD SLOAD PUSH1 0x4 DUP5 DUP2 SLOAD DUP2 LT PUSH2 0x1A70 JUMPI PUSH2 0x1A70 PUSH2 0x2062 JUMP JUMPDEST PUSH1 0x0 SWAP2 DUP3 MSTORE PUSH1 0x20 SWAP1 SWAP2 KECCAK256 ADD SSTORE DUP3 PUSH2 0x1A86 DUP2 PUSH2 0x2144 JUMP JUMPDEST SWAP4 POP POP POP POP PUSH2 0x19B3 JUMP JUMPDEST DUP4 PUSH1 0x4 DUP3 DUP2 SLOAD DUP2 LT PUSH2 0x147F JUMPI PUSH2 0x147F PUSH2 0x2062 JUMP JUMPDEST PUSH1 0x0 PUSH1 0x4 DUP3 DUP2 SLOAD DUP2 LT PUSH2 0x1AB9 JUMPI PUSH2 0x1AB9 PUSH2 0x2062 JUMP JUMPDEST PUSH1 0x0 SWAP2 DUP3 MSTORE PUSH1 0x20 DUP1 DUP4 KECCAK256 SWAP1 SWAP2 ADD SLOAD DUP1 DUP4 MSTORE PUSH1 0x2 SWAP1 SWAP2 MSTORE PUSH1 0x40 SWAP1 SWAP2 KECCAK256 PUSH1 0x6 ADD DUP1 SLOAD PUSH1 0xFF NOT AND SWAP1 SSTORE SWAP1 POP PUSH2 0x1AEC PUSH1 0x4 DUP3 PUSH2 0x189A JUMP JUMPDEST POP POP JUMP JUMPDEST PUSH1 0x0 PUSH2 0x1B1B PUSH32 0x0 PUSH2 0x1DED JUMP JUMPDEST PUSH2 0x1B25 SWAP1 DUP4 PUSH2 0x20BA JUMP JUMPDEST PUSH2 0x1B4E PUSH32 0x0 PUSH2 0x1DED JUMP JUMPDEST PUSH2 0x1120 PUSH8 0xDE0B6B3A7640000 DUP7 PUSH2 0x20BA JUMP JUMPDEST PUSH1 0x60 DUP1 DUP3 PUSH8 0xFFFFFFFFFFFFFFFF DUP2 GT ISZERO PUSH2 0x1B7C JUMPI PUSH2 0x1B7C PUSH2 0x2091 JUMP JUMPDEST PUSH1 0x40 MLOAD SWAP1 DUP1 DUP3 MSTORE DUP1 PUSH1 0x20 MUL PUSH1 0x20 ADD DUP3 ADD PUSH1 0x40 MSTORE DUP1 ISZERO PUSH2 0x1BA5 JUMPI DUP2 PUSH1 0x20 ADD PUSH1 0x20 DUP3 MUL DUP1 CALLDATASIZE DUP4 CALLDATACOPY ADD SWAP1 POP JUMPDEST POP SWAP2 POP DUP3 PUSH8 0xFFFFFFFFFFFFFFFF DUP2 GT ISZERO PUSH2 0x1BC1 JUMPI PUSH2 0x1BC1 PUSH2 0x2091 JUMP JUMPDEST PUSH1 0x40 MLOAD SWAP1 DUP1 DUP3 MSTORE DUP1 PUSH1 0x20 MUL PUSH1 0x20 ADD DUP3 ADD PUSH1 0x40 MSTORE DUP1 ISZERO PUSH2 0x1BEA JUMPI DUP2 PUSH1 0x20 ADD PUSH1 0x20 DUP3 MUL DUP1 CALLDATASIZE DUP4 CALLDATACOPY ADD SWAP1 POP JUMPDEST POP SWAP1 POP PUSH1 0x0 DUP1 JUMPDEST DUP6 SLOAD DUP2 LT DUP1 ISZERO PUSH2 0x1C00 JUMPI POP DUP5 DUP3 LT JUMPDEST ISZERO PUSH2 0x1D9C JUMPI PUSH1 0x0 PUSH1 0x2 PUSH1 0x0 DUP9 DUP5 DUP2 SLOAD DUP2 LT PUSH2 0x1C1D JUMPI PUSH2 0x1C1D PUSH2 0x2062 JUMP JUMPDEST PUSH1 0x0 SWAP2 DUP3 MSTORE PUSH1 0x20 DUP1 DUP4 KECCAK256 SWAP1 SWAP2 ADD SLOAD DUP4 MSTORE DUP3 ADD SWAP3 SWAP1 SWAP3 MSTORE PUSH1 0x40 ADD SWAP1 KECCAK256 PUSH1 0x6 DUP2 ADD SLOAD SWAP1 SWAP2 POP PUSH1 0xFF AND PUSH2 0x1C5A JUMPI DUP2 PUSH2 0x1C51 DUP2 PUSH2 0x2078 JUMP JUMPDEST SWAP3 POP POP POP PUSH2 0x1BF1 JUMP JUMPDEST PUSH1 0x0 DUP2 PUSH1 0x4 ADD SLOAD DUP3 PUSH1 0x3 ADD SLOAD PUSH2 0x1C70 SWAP2 SWAP1 PUSH2 0x204F JUMP JUMPDEST SWAP1 POP DUP1 PUSH1 0x0 SUB PUSH2 0x1C8E JUMPI DUP3 PUSH2 0x1C84 DUP2 PUSH2 0x2078 JUMP JUMPDEST SWAP4 POP POP POP POP PUSH2 0x1BF1 JUMP JUMPDEST PUSH1 0x2 DUP3 ADD SLOAD PUSH1 0x0 DUP5 JUMPDEST DUP11 SLOAD DUP2 LT ISZERO PUSH2 0x1D45 JUMPI PUSH1 0x0 PUSH1 0x2 PUSH1 0x0 DUP14 DUP5 DUP2 SLOAD DUP2 LT PUSH2 0x1CB8 JUMPI PUSH2 0x1CB8 PUSH2 0x2062 JUMP JUMPDEST PUSH1 0x0 SWAP2 DUP3 MSTORE PUSH1 0x20 DUP1 DUP4 KECCAK256 SWAP1 SWAP2 ADD SLOAD DUP4 MSTORE DUP3 ADD SWAP3 SWAP1 SWAP3 MSTORE PUSH1 0x40 ADD SWAP1 KECCAK256 PUSH1 0x6 DUP2 ADD SLOAD SWAP1 SWAP2 POP PUSH1 0xFF AND PUSH2 0x1CF5 JUMPI DUP2 PUSH2 0x1CEC DUP2 PUSH2 0x2078 JUMP JUMPDEST SWAP3 POP POP POP PUSH2 0x1C97 JUMP JUMPDEST DUP4 DUP2 PUSH1 0x2 ADD SLOAD EQ PUSH2 0x1D06 JUMPI POP PUSH2 0x1D45 JUMP JUMPDEST PUSH1 0x0 DUP2 PUSH1 0x4 ADD SLOAD DUP3 PUSH1 0x3 ADD SLOAD PUSH2 0x1D1C SWAP2 SWAP1 PUSH2 0x204F JUMP JUMPDEST SWAP1 POP DUP1 ISZERO PUSH2 0x1D31 JUMPI PUSH2 0x1D2E DUP2 DUP6 PUSH2 0x20A7 JUMP JUMPDEST SWAP4 POP JUMPDEST DUP3 PUSH2 0x1D3B DUP2 PUSH2 0x2078 JUMP JUMPDEST SWAP4 POP POP POP POP PUSH2 0x1C97 JUMP JUMPDEST DUP3 DUP10 DUP9 DUP2 MLOAD DUP2 LT PUSH2 0x1D58 JUMPI PUSH2 0x1D58 PUSH2 0x2062 JUMP JUMPDEST PUSH1 0x20 MUL PUSH1 0x20 ADD ADD DUP2 DUP2 MSTORE POP POP DUP2 DUP9 DUP9 DUP2 MLOAD DUP2 LT PUSH2 0x1D77 JUMPI PUSH2 0x1D77 PUSH2 0x2062 JUMP JUMPDEST PUSH1 0x20 SWAP1 DUP2 MUL SWAP2 SWAP1 SWAP2 ADD ADD MSTORE DUP7 PUSH2 0x1D8C DUP2 PUSH2 0x2078 JUMP JUMPDEST SWAP8 POP POP DUP1 SWAP6 POP POP POP POP POP POP PUSH2 0x1BF1 JUMP JUMPDEST POP POP SWAP3 POP SWAP3 SWAP1 POP JUMP JUMPDEST PUSH1 0x0 PUSH1 0x3 DUP3 DUP2 SLOAD DUP2 LT PUSH2 0x1DBA JUMPI PUSH2 0x1DBA PUSH2 0x2062 JUMP JUMPDEST PUSH1 0x0 SWAP2 DUP3 MSTORE PUSH1 0x20 DUP1 DUP4 KECCAK256 SWAP1 SWAP2 ADD SLOAD DUP1 DUP4 MSTORE PUSH1 0x2 SWAP1 SWAP2 MSTORE PUSH1 0x40 SWAP1 SWAP2 KECCAK256 PUSH1 0x6 ADD DUP1 SLOAD PUSH1 0xFF NOT AND SWAP1 SSTORE SWAP1 POP PUSH2 0x1AEC PUSH1 0x3 DUP3 PUSH2 0x189A JUMP JUMPDEST PUSH1 0x0 PUSH2 0xB75 PUSH1 0xFF DUP4 AND PUSH1 0xA PUSH2 0x2258 JUMP JUMPDEST PUSH1 0x0 DUP1 PUSH1 0x40 DUP4 DUP6 SUB SLT ISZERO PUSH2 0x1E10 JUMPI PUSH1 0x0 DUP1 REVERT JUMPDEST POP POP DUP1 CALLDATALOAD SWAP3 PUSH1 0x20 SWAP1 SWAP2 ADD CALLDATALOAD SWAP2 POP JUMP JUMPDEST PUSH1 0x0 PUSH1 0x20 DUP3 DUP5 SUB SLT ISZERO PUSH2 0x1E31 JUMPI PUSH1 0x0 DUP1 REVERT JUMPDEST POP CALLDATALOAD SWAP2 SWAP1 POP JUMP JUMPDEST PUSH4 0x4E487B71 PUSH1 0xE0 SHL PUSH1 0x0 MSTORE PUSH1 0x21 PUSH1 0x4 MSTORE PUSH1 0x24 PUSH1 0x0 REVERT JUMPDEST PUSH1 0x2 DUP2 LT PUSH2 0x1E6C JUMPI PUSH4 0x4E487B71 PUSH1 0xE0 SHL PUSH1 0x0 MSTORE PUSH1 0x21 PUSH1 0x4 MSTORE PUSH1 0x24 PUSH1 0x0 REVERT JUMPDEST SWAP1 MSTORE JUMP JUMPDEST PUSH1 0x20 DUP1 DUP3 MSTORE DUP3 MLOAD DUP3 DUP3 ADD DUP2 SWAP1 MSTORE PUSH1 0x0 SWAP2 DUP5 ADD SWAP1 PUSH1 0x40 DUP5 ADD SWAP1 DUP4 JUMPDEST DUP2 DUP2 LT ISZERO PUSH2 0x1F02 JUMPI DUP4 MLOAD DUP1 MLOAD DUP5 MSTORE PUSH1 0x20 DUP2 ADD MLOAD PUSH2 0x1EAA PUSH1 0x20 DUP7 ADD DUP3 PUSH2 0x1E4E JUMP JUMPDEST POP PUSH1 0x40 DUP2 ADD MLOAD PUSH1 0x40 DUP6 ADD MSTORE PUSH1 0x60 DUP2 ADD MLOAD PUSH1 0x60 DUP6 ADD MSTORE PUSH1 0x80 DUP2 ADD MLOAD PUSH1 0x80 DUP6 ADD MSTORE PUSH1 0xA0 DUP2 ADD MLOAD PUSH1 0xA0 DUP6 ADD MSTORE PUSH1 0xC0 DUP2 ADD MLOAD PUSH1 0xC0 DUP6 ADD MSTORE PUSH1 0xE0 DUP2 ADD MLOAD ISZERO ISZERO PUSH1 0xE0 DUP6 ADD MSTORE POP PUSH2 0x100 DUP4 ADD SWAP3 POP PUSH1 0x20 DUP5 ADD SWAP4 POP PUSH1 0x1 DUP2 ADD SWAP1 POP PUSH2 0x1E8A JUMP JUMPDEST POP SWAP1 SWAP6 SWAP5 POP POP POP POP POP JUMP JUMPDEST PUSH1 0x0 PUSH1 0x20 DUP3 DUP5 SUB SLT ISZERO PUSH2 0x1F1F JUMPI PUSH1 0x0 DUP1 REVERT JUMPDEST DUP2 CALLDATALOAD PUSH1 0x1 PUSH1 0x1 PUSH1 0xA0 SHL SUB DUP2 AND DUP2 EQ PUSH2 0x1134 JUMPI PUSH1 0x0 DUP1 REVERT JUMPDEST PUSH1 0x0 DUP2 MLOAD DUP1 DUP5 MSTORE PUSH1 0x20 DUP5 ADD SWAP4 POP PUSH1 0x20 DUP4 ADD PUSH1 0x0 JUMPDEST DUP3 DUP2 LT ISZERO PUSH2 0x1F68 JUMPI DUP2 MLOAD DUP7 MSTORE PUSH1 0x20 SWAP6 DUP7 ADD SWAP6 SWAP1 SWAP2 ADD SWAP1 PUSH1 0x1 ADD PUSH2 0x1F4A JUMP JUMPDEST POP SWAP4 SWAP5 SWAP4 POP POP POP POP JUMP JUMPDEST PUSH1 0x80 DUP2 MSTORE PUSH1 0x0 PUSH2 0x1F85 PUSH1 0x80 DUP4 ADD DUP8 PUSH2 0x1F36 JUMP JUMPDEST DUP3 DUP2 SUB PUSH1 0x20 DUP5 ADD MSTORE PUSH2 0x1F97 DUP2 DUP8 PUSH2 0x1F36 JUMP JUMPDEST SWAP1 POP DUP3 DUP2 SUB PUSH1 0x40 DUP5 ADD MSTORE PUSH2 0x1FAB DUP2 DUP7 PUSH2 0x1F36 JUMP JUMPDEST SWAP1 POP DUP3 DUP2 SUB PUSH1 0x60 DUP5 ADD MSTORE PUSH2 0x1FBF DUP2 DUP6 PUSH2 0x1F36 JUMP JUMPDEST SWAP8 SWAP7 POP POP POP POP POP POP POP JUMP JUMPDEST DUP9 DUP2 MSTORE PUSH1 0x1 PUSH1 0x1 PUSH1 0xA0 SHL SUB DUP9 AND PUSH1 0x20 DUP3 ADD MSTORE PUSH2 0x100 DUP2 ADD PUSH2 0x1FEE PUSH1 0x40 DUP4 ADD DUP10 PUSH2 0x1E4E JUMP JUMPDEST PUSH1 0x60 DUP3 ADD SWAP7 SWAP1 SWAP7 MSTORE PUSH1 0x80 DUP2 ADD SWAP5 SWAP1 SWAP5 MSTORE PUSH1 0xA0 DUP5 ADD SWAP3 SWAP1 SWAP3 MSTORE PUSH1 0xC0 DUP4 ADD MSTORE ISZERO ISZERO PUSH1 0xE0 SWAP1 SWAP2 ADD MSTORE SWAP4 SWAP3 POP POP POP JUMP JUMPDEST PUSH1 0x60 DUP2 ADD PUSH2 0x2028 DUP3 DUP7 PUSH2 0x1E4E JUMP JUMPDEST PUSH1 0x20 DUP3 ADD SWAP4 SWAP1 SWAP4 MSTORE PUSH1 0x40 ADD MSTORE SWAP2 SWAP1 POP JUMP JUMPDEST PUSH4 0x4E487B71 PUSH1 0xE0 SHL PUSH1 0x0 MSTORE PUSH1 0x11 PUSH1 0x4 MSTORE PUSH1 0x24 PUSH1 0x0 REVERT JUMPDEST DUP2 DUP2 SUB DUP2 DUP2 GT ISZERO PUSH2 0xB75 JUMPI PUSH2 0xB75 PUSH2 0x2039 JUMP JUMPDEST PUSH4 0x4E487B71 PUSH1 0xE0 SHL PUSH1 0x0 MSTORE PUSH1 0x32 PUSH1 0x4 MSTORE PUSH1 0x24 PUSH1 0x0 REVERT JUMPDEST PUSH1 0x0 PUSH1 0x1 DUP3 ADD PUSH2 0x208A JUMPI PUSH2 0x208A PUSH2 0x2039 JUMP JUMPDEST POP PUSH1 0x1 ADD SWAP1 JUMP JUMPDEST PUSH4 0x4E487B71 PUSH1 0xE0 SHL PUSH1 0x0 MSTORE PUSH1 0x41 PUSH1 0x4 MSTORE PUSH1 0x24 PUSH1 0x0 REVERT JUMPDEST DUP1 DUP3 ADD DUP1 DUP3 GT ISZERO PUSH2 0xB75 JUMPI PUSH2 0xB75 PUSH2 0x2039 JUMP JUMPDEST DUP1 DUP3 MUL DUP2 ISZERO DUP3 DUP3 DIV DUP5 EQ OR PUSH2 0xB75 JUMPI PUSH2 0xB75 PUSH2 0x2039 JUMP JUMPDEST PUSH1 0x0 DUP3 PUSH2 0x20EE JUMPI PUSH4 0x4E487B71 PUSH1 0xE0 SHL PUSH1 0x0 MSTORE PUSH1 0x12 PUSH1 0x4 MSTORE PUSH1 0x24 PUSH1 0x0 REVERT JUMPDEST POP DIV SWAP1 JUMP JUMPDEST PUSH1 0x0 DUP3 MLOAD PUSH1 0x0 JUMPDEST DUP2 DUP2 LT ISZERO PUSH2 0x2114 JUMPI PUSH1 0x20 DUP2 DUP7 ADD DUP2 ADD MLOAD DUP6 DUP4 ADD MSTORE ADD PUSH2 0x20FA JUMP JUMPDEST POP PUSH1 0x0 SWAP3 ADD SWAP2 DUP3 MSTORE POP SWAP2 SWAP1 POP JUMP JUMPDEST PUSH1 0x0 PUSH1 0x20 DUP3 DUP5 SUB SLT ISZERO PUSH2 0x2134 JUMPI PUSH1 0x0 DUP1 REVERT JUMPDEST DUP2 MLOAD DUP1 ISZERO ISZERO DUP2 EQ PUSH2 0x1134 JUMPI PUSH1 0x0 DUP1 REVERT JUMPDEST PUSH1 0x0 DUP2 PUSH2 0x2153 JUMPI PUSH2 0x2153 PUSH2 0x2039 JUMP JUMPDEST POP PUSH1 0x0 NOT ADD SWAP1 JUMP JUMPDEST PUSH4 0x4E487B71 PUSH1 0xE0 SHL PUSH1 0x0 MSTORE PUSH1 0x31 PUSH1 0x4 MSTORE PUSH1 0x24 PUSH1 0x0 REVERT JUMPDEST PUSH1 0x1 DUP2 JUMPDEST PUSH1 0x1 DUP5 GT ISZERO PUSH2 0x21AC JUMPI DUP1 DUP6 DIV DUP2 GT ISZERO PUSH2 0x2190 JUMPI PUSH2 0x2190 PUSH2 0x2039 JUMP JUMPDEST PUSH1 0x1 DUP5 AND ISZERO PUSH2 0x219E JUMPI SWAP1 DUP2 MUL SWAP1 JUMPDEST PUSH1 0x1 SWAP4 SWAP1 SWAP4 SHR SWAP3 DUP1 MUL PUSH2 0x2175 JUMP JUMPDEST SWAP4 POP SWAP4 SWAP2 POP POP JUMP JUMPDEST PUSH1 0x0 DUP3 PUSH2 0x21C3 JUMPI POP PUSH1 0x1 PUSH2 0xB75 JUMP JUMPDEST DUP2 PUSH2 0x21D0 JUMPI POP PUSH1 0x0 PUSH2 0xB75 JUMP JUMPDEST DUP2 PUSH1 0x1 DUP2 EQ PUSH2 0x21E6 JUMPI PUSH1 0x2 DUP2 EQ PUSH2 0x21F0 JUMPI PUSH2 0x220C JUMP JUMPDEST PUSH1 0x1 SWAP2 POP POP PUSH2 0xB75 JUMP JUMPDEST PUSH1 0xFF DUP5 GT ISZERO PUSH2 0x2201 JUMPI PUSH2 0x2201 PUSH2 0x2039 JUMP JUMPDEST POP POP PUSH1 0x1 DUP3 SHL PUSH2 0xB75 JUMP JUMPDEST POP PUSH1 0x20 DUP4 LT PUSH2 0x133 DUP4 LT AND PUSH1 0x4E DUP5 LT PUSH1 0xB DUP5 LT AND OR ISZERO PUSH2 0x222F JUMPI POP DUP2 DUP2 EXP PUSH2 0xB75 JUMP JUMPDEST PUSH2 0x223C PUSH1 0x0 NOT DUP5 DUP5 PUSH2 0x2171 JUMP JUMPDEST DUP1 PUSH1 0x0 NOT DIV DUP3 GT ISZERO PUSH2 0x2250 JUMPI PUSH2 0x2250 PUSH2 0x2039 JUMP JUMPDEST MUL SWAP4 SWAP3 POP POP POP JUMP JUMPDEST PUSH1 0x0 PUSH2 0x1134 DUP4 DUP4 PUSH2 0x21B4 JUMP INVALID LOG2 PUSH5 0x6970667358 0x22 SLT KECCAK256 MCOPY SWAP12 SWAP5 LOG3 SHR EXTCODEHASH LOG1 TSTORE 0xB5 CALLCODE 0x29 PUSH25 0x7AA9442B9FEAF524D3F0DB322F08D5AE224702E364736F6C63 NUMBER STOP ADDMOD SHR STOP CALLER "
        },
        "methodIdentifiers": {
          "PRICE_SCALE()": "c33f59d3",
          "askIds(uint256)": "43eb749a",
          "baseDecimals()": "33f76178",
          "baseToken()": "c55dae63",
          "bidIds(uint256)": "ec3e4e6f",
          "cancelOrder(uint256)": "514fcac7",
          "getLastPrice()": "d8cf24fd",
          "getMyOpenOrders()": "4e40c613",
          "getOpenOrdersOf(address)": "6dee2032",
          "getOrderBookDepth(uint256)": "961d537f",
          "lastTradePrice()": "df449cb8",
          "limitBuy(uint256,uint256)": "1a74df19",
          "limitSell(uint256,uint256)": "8ed6910f",
          "marketBuy(uint256)": "8fb84bb0",
          "marketSell(uint256)": "db0c9a02",
          "nextOrderId()": "2a58b330",
          "orders(uint256)": "a85c38ef",
          "quoteDecimals()": "3fd1e2bd",
          "quoteToken()": "217a4b70"
        }
      }
    }
  }
}