{
  "contracts/SinglePairOrderBookDEX.sol": {
    "SinglePairOrderBookDEX": {
      "abi": [
        {
          "inputs": [
            {
              "internalType": "address",
              "name": "_base",
              "type": "address"
            },
            {
              "internalType": "address",
              "name": "_quote",
              "type": "address"
            }
          ],
          "stateMutability": "nonpayable",
          "type": "constructor"
        },
        {
          "inputs": [],
          "name": "InsufficientLiquidity",
          "type": "error"
        },
        {
          "inputs": [],
          "name": "InvalidAmount",
          "type": "error"
        },
        {
          "inputs": [],
          "name": "InvalidPrice",
          "type": "error"
        },
        {
          "inputs": [],
          "name": "NotActive",
          "type": "error"
        },
        {
          "inputs": [],
          "name": "NotOwner",
          "type": "error"
        },
        {
          "inputs": [],
          "name": "TransferFailed",
          "type": "error"
        },
        {
          "anonymous": false,
          "inputs": [
            {
              "indexed": true,
              "internalType": "uint256",
              "name": "orderId",
              "type": "uint256"
            },
            {
              "indexed": true,
              "internalType": "address",
              "name": "trader",
              "type": "address"
            },
            {
              "indexed": false,
              "internalType": "enum SinglePairOrderBookDEX.Side",
              "name": "side",
              "type": "uint8"
            },
            {
              "indexed": false,
              "internalType": "uint256",
              "name": "price",
              "type": "uint256"
            },
            {
              "indexed": false,
              "internalType": "uint256",
              "name": "amountBase",
              "type": "uint256"
            }
          ],
          "name": "LimitOrderPlaced",
          "type": "event"
        },
        {
          "anonymous": false,
          "inputs": [
            {
              "indexed": true,
              "internalType": "uint256",
              "name": "orderId",
              "type": "uint256"
            },
            {
              "indexed": true,
              "internalType": "address",
              "name": "trader",
              "type": "address"
            }
          ],
          "name": "OrderCancelled",
          "type": "event"
        },
        {
          "anonymous": false,
          "inputs": [
            {
              "indexed": true,
              "internalType": "uint256",
              "name": "makerOrderId",
              "type": "uint256"
            },
            {
              "indexed": true,
              "internalType": "address",
              "name": "maker",
              "type": "address"
            },
            {
              "indexed": true,
              "internalType": "address",
              "name": "taker",
              "type": "address"
            },
            {
              "indexed": false,
              "internalType": "enum SinglePairOrderBookDEX.Side",
              "name": "takerSide",
              "type": "uint8"
            },
            {
              "indexed": false,
              "internalType": "uint256",
              "name": "price",
              "type": "uint256"
            },
            {
              "indexed": false,
              "internalType": "uint256",
              "name": "amountBase",
              "type": "uint256"
            }
          ],
          "name": "Trade",
          "type": "event"
        },
        {
          "inputs": [],
          "name": "PRICE_SCALE",
          "outputs": [
            {
              "internalType": "uint256",
              "name": "",
              "type": "uint256"
            }
          ],
          "stateMutability": "view",
          "type": "function"
        },
        {
          "inputs": [
            {
              "internalType": "uint256",
              "name": "",
              "type": "uint256"
            }
          ],
          "name": "askIds",
          "outputs": [
            {
              "internalType": "uint256",
              "name": "",
              "type": "uint256"
            }
          ],
          "stateMutability": "view",
          "type": "function"
        },
        {
          "inputs": [],
          "name": "baseDecimals",
          "outputs": [
            {
              "internalType": "uint8",
              "name": "",
              "type": "uint8"
            }
          ],
          "stateMutability": "view",
          "type": "function"
        },
        {
          "inputs": [],
          "name": "baseToken",
          "outputs": [
            {
              "internalType": "contract IERC20",
              "name": "",
              "type": "address"
            }
          ],
          "stateMutability": "view",
          "type": "function"
        },
        {
          "inputs": [
            {
              "internalType": "uint256",
              "name": "",
              "type": "uint256"
            }
          ],
          "name": "bidIds",
          "outputs": [
            {
              "internalType": "uint256",
              "name": "",
              "type": "uint256"
            }
          ],
          "stateMutability": "view",
          "type": "function"
        },
        {
          "inputs": [
            {
              "internalType": "uint256",
              "name": "orderId",
              "type": "uint256"
            }
          ],
          "name": "cancelOrder",
          "outputs": [],
          "stateMutability": "nonpayable",
          "type": "function"
        },
        {
          "inputs": [],
          "name": "getLastPrice",
          "outputs": [
            {
              "internalType": "uint256",
              "name": "",
              "type": "uint256"
            }
          ],
          "stateMutability": "view",
          "type": "function"
        },
        {
          "inputs": [
            {
              "internalType": "uint256",
              "name": "topN",
              "type": "uint256"
            }
          ],
          "name": "getOrderBookDepth",
          "outputs": [
            {
              "internalType": "uint256[]",
              "name": "",
              "type": "uint256[]"
            },
            {
              "internalType": "uint256[]",
              "name": "",
              "type": "uint256[]"
            },
            {
              "internalType": "uint256[]",
              "name": "",
              "type": "uint256[]"
            },
            {
              "internalType": "uint256[]",
              "name": "",
              "type": "uint256[]"
            }
          ],
          "stateMutability": "view",
          "type": "function"
        },
        {
          "inputs": [],
          "name": "lastTradePrice",
          "outputs": [
            {
              "internalType": "uint256",
              "name": "",
              "type": "uint256"
            }
          ],
          "stateMutability": "view",
          "type": "function"
        },
        {
          "inputs": [
            {
              "internalType": "uint256",
              "name": "price",
              "type": "uint256"
            },
            {
              "internalType": "uint256",
              "name": "amountBase",
              "type": "uint256"
            }
          ],
          "name": "limitBuy",
          "outputs": [
            {
              "internalType": "uint256",
              "name": "orderId",
              "type": "uint256"
            }
          ],
          "stateMutability": "nonpayable",
          "type": "function"
        },
        {
          "inputs": [
            {
              "internalType": "uint256",
              "name": "price",
              "type": "uint256"
            },
            {
              "internalType": "uint256",
              "name": "amountBase",
              "type": "uint256"
            }
          ],
          "name": "limitSell",
          "outputs": [
            {
              "internalType": "uint256",
              "name": "orderId",
              "type": "uint256"
            }
          ],
          "stateMutability": "nonpayable",
          "type": "function"
        },
        {
          "inputs": [
            {
              "internalType": "uint256",
              "name": "maxQuoteIn",
              "type": "uint256"
            }
          ],
          "name": "marketBuy",
          "outputs": [],
          "stateMutability": "nonpayable",
          "type": "function"
        },
        {
          "inputs": [
            {
              "internalType": "uint256",
              "name": "amountBase",
              "type": "uint256"
            }
          ],
          "name": "marketSell",
          "outputs": [],
          "stateMutability": "nonpayable",
          "type": "function"
        },
        {
          "inputs": [],
          "name": "nextOrderId",
          "outputs": [
            {
              "internalType": "uint256",
              "name": "",
              "type": "uint256"
            }
          ],
          "stateMutability": "view",
          "type": "function"
        },
        {
          "inputs": [
            {
              "internalType": "uint256",
              "name": "",
              "type": "uint256"
            }
          ],
          "name": "orders",
          "outputs": [
            {
              "internalType": "uint256",
              "name": "id",
              "type": "uint256"
            },
            {
              "internalType": "address",
              "name": "trader",
              "type": "address"
            },
            {
              "internalType": "enum SinglePairOrderBookDEX.Side",
              "name": "side",
              "type": "uint8"
            },
            {
              "internalType": "uint256",
              "name": "price",
              "type": "uint256"
            },
            {
              "internalType": "uint256",
              "name": "amountBase",
              "type": "uint256"
            },
            {
              "internalType": "uint256",
              "name": "filledBase",
              "type": "uint256"
            },
            {
              "internalType": "uint256",
              "name": "timestamp",
              "type": "uint256"
            },
            {
              "internalType": "bool",
              "name": "active",
              "type": "bool"
            }
          ],
          "stateMutability": "view",
          "type": "function"
        },
        {
          "inputs": [],
          "name": "quoteDecimals",
          "outputs": [
            {
              "internalType": "uint8",
              "name": "",
              "type": "uint8"
            }
          ],
          "stateMutability": "view",
          "type": "function"
        },
        {
          "inputs": [],
          "name": "quoteToken",
          "outputs": [
            {
              "internalType": "contract IERC20",
              "name": "",
              "type": "address"
            }
          ],
          "stateMutability": "view",
          "type": "function"
        }
      ],
      "evm": {
        "bytecode": {
          "linkReferences": {},
          "object": "610100604052600160005534801561001657600080fd5b50604051611f85380380611f8583398101604081905261003591610143565b6001600160a01b03808316608081905290821660a0526040805163313ce56760e01b8152905163313ce567916004808201926020929091908290030181865afa158015610086573d6000803e3d6000fd5b505050506040513d601f19601f820116820180604052508101906100aa9190610176565b60ff1660c08160ff1681525050806001600160a01b031663313ce5676040518163ffffffff1660e01b8152600401602060405180830381865afa1580156100f5573d6000803e3d6000fd5b505050506040513d601f19601f820116820180604052508101906101199190610176565b60ff1660e052506101a09050565b80516001600160a01b038116811461013e57600080fd5b919050565b6000806040838503121561015657600080fd5b61015f83610127565b915061016d60208401610127565b90509250929050565b60006020828403121561018857600080fd5b815160ff8116811461019957600080fd5b9392505050565b60805160a05160c05160e051611d2761025e600039600081816101bc01528181610c45015261164a01526000818161018301528181610c0a015261167d01526000818161013b015281816103a501528181610528015281816106f40152818161085e0152818161092601528181610ad2015281816111ac01526112250152600081816102d5015281816105590152818161063b0152818161082d015281816109bc01528181610b0301528181610bcd01526111720152611d276000f3fe608060405234801561001057600080fd5b506004361061010b5760003560e01c80638fb84bb0116100a2578063c55dae6311610071578063c55dae63146102d0578063d8cf24fd146102f7578063db0c9a02146102ff578063df449cb814610312578063ec3e4e6f1461031b57600080fd5b80638fb84bb014610219578063961d537f1461022c578063a85c38ef1461024f578063c33f59d3146102c157600080fd5b80633fd1e2bd116100de5780633fd1e2bd146101b757806343eb749a146101de578063514fcac7146101f15780638ed6910f1461020657600080fd5b80631a74df1914610110578063217a4b70146101365780632a58b3301461017557806333f761781461017e575b600080fd5b61012361011e366004611950565b61032e565b6040519081526020015b60405180910390f35b61015d7f000000000000000000000000000000000000000000000000000000000000000081565b6040516001600160a01b03909116815260200161012d565b61012360005481565b6101a57f000000000000000000000000000000000000000000000000000000000000000081565b60405160ff909116815260200161012d565b6101a57f000000000000000000000000000000000000000000000000000000000000000081565b6101236101ec366004611972565b610439565b6102046101ff366004611972565b61045a565b005b610123610214366004611950565b6105f3565b610204610227366004611972565b6106ce565b61023f61023a366004611972565b610951565b60405161012d94939291906119c7565b6102ad61025d366004611972565b6002602081905260009182526040909120805460018201549282015460038301546004840154600585015460069095015493956001600160a01b03811695600160a01b90910460ff908116951688565b60405161012d989796959493929190611a57565b610123670de0b6b3a764000081565b61015d7f000000000000000000000000000000000000000000000000000000000000000081565b600154610123565b61020461030d366004611972565b610996565b61012360015481565b610123610329366004611972565b610bf3565b6000826000036103505760405162bfc92160e01b815260040160405180910390fd5b816000036103715760405163162908e360e11b815260040160405180910390fd5b600061037d8385610c03565b9050806000036103a05760405163162908e360e11b815260040160405180910390fd5b6103cc7f0000000000000000000000000000000000000000000000000000000000000000333084610c8e565b6103d860008585610d88565b91506103e382610e9e565b336001600160a01b0316827fbfa7375f10629d29376d04eeba251f3e7db963fab0091a92b799fdd4b35562ab6000878760405161042293929190611aa7565b60405180910390a3610432610fe4565b5092915050565b6004818154811061044957600080fd5b600091825260209091200154905081565b6000818152600260205260409020600681015460ff1661048d57604051634065aaf160e11b815260040160405180910390fd5b60018101546001600160a01b031633146104ba576040516330cd747160e01b815260040160405180910390fd5b60068101805460ff19169055600481015460038201546000916104dc91611adc565b9050801561057f576000600183810154600160a01b900460ff169081111561050657610506611a1f565b0361055457600061051b828460020154610c03565b9050801561054e5761054e7f000000000000000000000000000000000000000000000000000000000000000033836112fc565b5061057f565b61057f7f000000000000000000000000000000000000000000000000000000000000000033836112fc565b6000600183810154600160a01b900460ff16908111156105a1576105a1611a1f565b036105b6576105b16003846113ed565b6105c1565b6105c16004846113ed565b604051339084907fc0362da6f2ff36b382b34aec0814f6b3cdf89f5ef282a1d1f114d0c0b036d59690600090a3505050565b6000826000036106155760405162bfc92160e01b815260040160405180910390fd5b816000036106365760405163162908e360e11b815260040160405180910390fd5b6106627f0000000000000000000000000000000000000000000000000000000000000000333085610c8e565b61066e60018484610d88565b9050610679816114c3565b336001600160a01b0316817fbfa7375f10629d29376d04eeba251f3e7db963fab0091a92b799fdd4b35562ab600186866040516106b893929190611aa7565b60405180910390a36106c8610fe4565b92915050565b806000036106ef5760405163162908e360e11b815260040160405180910390fd5b61071b7f0000000000000000000000000000000000000000000000000000000000000000333084610c8e565b8060005b600454811080156107305750600082115b1561091b5760006004828154811061074a5761074a611aef565b60009182526020808320909101548083526002909152604090912060068101549192509060ff16610789578261077f81611b05565b935050505061071f565b60008160040154826003015461079f9190611adc565b9050806000036107ba576107b2846115f7565b50505061071f565b60006107ca868460020154611643565b9050806000036107dd575050505061091b565b60008282106107ec57826107ee565b815b90506000610800828660020154610c03565b9050818560040160008282546108169190611b1e565b9091555061082690508189611adc565b97506108537f000000000000000000000000000000000000000000000000000000000000000033846112fc565b600185015461088d907f0000000000000000000000000000000000000000000000000000000000000000906001600160a01b0316836112fc565b60028501546001818155860154865460405133936001600160a01b03909316927feb7062411a6997e25eb45e7e1fb3c88cecbfa57b15d77307553b6bf937f108ba916108dd916000918990611aa7565b60405180910390a48460030154856004015403610902576108fd876115f7565b610910565b8661090c81611b05565b9750505b50505050505061071f565b811561094c5761094c7f000000000000000000000000000000000000000000000000000000000000000033846112fc565b505050565b6060806060808460000361096457600a94505b6000806109726003886116b3565b9150915060008061098460048a6116b3565b949a9399509750929550909350505050565b806000036109b75760405163162908e360e11b815260040160405180910390fd5b6109e37f0000000000000000000000000000000000000000000000000000000000000000333084610c8e565b8060005b600354811080156109f85750600082115b15610bc257600060038281548110610a1257610a12611aef565b60009182526020808320909101548083526002909152604090912060068101549192509060ff16610a515782610a4781611b05565b93505050506109e7565b600081600401548260030154610a679190611adc565b905080600003610a8257610a7a846118f8565b5050506109e7565b6000818610610a915781610a93565b855b90506000610aa5828560020154610c03565b905081846004016000828254610abb9190611b1e565b90915550610acb90508288611adc565b9650610af87f000000000000000000000000000000000000000000000000000000000000000033836112fc565b6001840154610b32907f0000000000000000000000000000000000000000000000000000000000000000906001600160a01b0316846112fc565b6002840154600181815580860154865460405133946001600160a01b039093169391927feb7062411a6997e25eb45e7e1fb3c88cecbfa57b15d77307553b6bf937f108ba92610b85929091908990611aa7565b60405180910390a48360030154846004015403610baa57610ba5866118f8565b610bb8565b85610bb481611b05565b9650505b50505050506109e7565b811561094c5761094c7f000000000000000000000000000000000000000000000000000000000000000033846112fc565b6003818154811061044957600080fd5b6000610c2e7f0000000000000000000000000000000000000000000000000000000000000000611940565b610c4090670de0b6b3a7640000611b31565b610c697f0000000000000000000000000000000000000000000000000000000000000000611940565b610c738486611b31565b610c7d9190611b31565b610c879190611b48565b9392505050565b604080516001600160a01b0385811660248301528481166044830152606480830185905283518084039091018152608490920183526020820180516001600160e01b03166323b872dd60e01b1790529151600092839290881691610cf29190611b6a565b6000604051808303816000865af19150503d8060008114610d2f576040519150601f19603f3d011682016040523d82523d6000602084013e610d34565b606091505b5091509150811580610d625750805115801590610d62575080806020019051810190610d609190611b99565b155b15610d80576040516312171d8360e31b815260040160405180910390fd5b505050505050565b600080548180610d9783611b05565b9091555060408051610100810182528281523360208201529192508101856001811115610dc657610dc6611a1f565b815260208082018690526040808301869052600060608401819052426080850152600160a090940184905285815260028352819020845181559184015182840180546001600160a01b031981166001600160a01b03909316928317825592860151939490926001600160a81b03191690911790600160a01b908490811115610e5057610e50611a1f565b0217905550606082015160028201556080820151600382015560a0820151600482015560c0820151600582015560e0909101516006909101805460ff19169115159190911790559392505050565b60008181526002602052604081206003805460018101825592527fc2575a0e9e593c00f959f8c92f12db2869c3395a3b0502d05e2516446f71f85b820183905590805b8015610fbe5760006002816003610ef9600186611adc565b81548110610f0957610f09611aef565b9060005260206000200154815260200190815260200160002090506000816002015485600201541180610f55575081600201548560020154148015610f55575081600501548560050154105b905080610f63575050610fbe565b6003610f70600185611adc565b81548110610f8057610f80611aef565b906000526020600020015460038481548110610f9e57610f9e611aef565b60009182526020909120015582610fb481611bbb565b9350505050610ee1565b8360038281548110610fd257610fd2611aef565b60009182526020909120015550505050565b60035415801590610ff6575060045415155b156112fa57600060026000600360008154811061101557611015611aef565b906000526020600020015481526020019081526020016000209050600060026000600460008154811061104a5761104a611aef565b600091825260208083209091015483528201929092526040019020600683015490915060ff166110855761107e60006118f8565b5050610fe4565b600681015460ff1661109b5761107e60006115f7565b8060020154826002015410156110af575050565b6000826004015483600301546110c59190611adc565b90506000826004015483600301546110dd9190611adc565b9050816000036110fa576110f160006118f8565b50505050610fe4565b8060000361110c576110f160006115f7565b600081831061111b578161111d565b825b600285015490915060006111318383610c03565b9050828760040160008282546111479190611b1e565b92505081905550828660040160008282546111629190611b1e565b909155505060018701546111a1907f0000000000000000000000000000000000000000000000000000000000000000906001600160a01b0316856112fc565b60018601546111db907f0000000000000000000000000000000000000000000000000000000000000000906001600160a01b0316836112fc565b86600301548760040154036112605760006111fe88600301548960020154610c03565b90506000611210896003015485610c03565b90508082111561125d57600189015461125d907f0000000000000000000000000000000000000000000000000000000000000000906001600160a01b03166112588486611adc565b6112fc565b50505b6001828155878101549087015487546040516001600160a01b0393841693909216917feb7062411a6997e25eb45e7e1fb3c88cecbfa57b15d77307553b6bf937f108ba906112b49060009088908a90611aa7565b60405180910390a486600301548760040154036112d5576112d560006118f8565b85600301548660040154036112ee576112ee60006115f7565b50505050505050610fe4565b565b604080516001600160a01b038481166024830152604480830185905283518084039091018152606490920183526020820180516001600160e01b031663a9059cbb60e01b17905291516000928392908716916113589190611b6a565b6000604051808303816000865af19150503d8060008114611395576040519150601f19603f3d011682016040523d82523d6000602084013e61139a565b606091505b50915091508115806113c857508051158015906113c85750808060200190518101906113c69190611b99565b155b156113e6576040516312171d8360e31b815260040160405180910390fd5b5050505050565b815460005b818110156114bd578284828154811061140d5761140d611aef565b9060005260206000200154036114b557805b8261142b826001611b1e565b1015611488578461143d826001611b1e565b8154811061144d5761144d611aef565b906000526020600020015485828154811061146a5761146a611aef565b6000918252602090912001558061148081611b05565b91505061141f565b508380548061149957611499611bd2565b6001900381819060005260206000200160009055905550505050565b6001016113f2565b50505050565b60008181526002602052604081206004805460018101825592527f8a35acfbc15ff81a39ae7d344fd709f28e8600b4aa8c65c6b64bfe7fe36bd19b820183905590805b80156115e3576000600281600461151e600186611adc565b8154811061152e5761152e611aef565b906000526020600020015481526020019081526020016000209050600081600201548560020154108061157a57508160020154856002015414801561157a575081600501548560050154105b9050806115885750506115e3565b6004611595600185611adc565b815481106115a5576115a5611aef565b9060005260206000200154600484815481106115c3576115c3611aef565b600091825260209091200155826115d981611bbb565b9350505050611506565b8360048281548110610fd257610fd2611aef565b60006004828154811061160c5761160c611aef565b600091825260208083209091015480835260029091526040909120600601805460ff19169055905061163f6004826113ed565b5050565b600061166e7f0000000000000000000000000000000000000000000000000000000000000000611940565b6116789083611b31565b6116a17f0000000000000000000000000000000000000000000000000000000000000000611940565b610c73670de0b6b3a764000086611b31565b6060808267ffffffffffffffff8111156116cf576116cf611be8565b6040519080825280602002602001820160405280156116f8578160200160208202803683370190505b5091508267ffffffffffffffff81111561171457611714611be8565b60405190808252806020026020018201604052801561173d578160200160208202803683370190505b5090506000805b85548110801561175357508482105b156118ef5760006002600088848154811061177057611770611aef565b600091825260208083209091015483528201929092526040019020600681015490915060ff166117ad57816117a481611b05565b92505050611744565b6000816004015482600301546117c39190611adc565b9050806000036117e157826117d781611b05565b9350505050611744565b60028201546000845b8a54811015611898576000600260008d848154811061180b5761180b611aef565b600091825260208083209091015483528201929092526040019020600681015490915060ff16611848578161183f81611b05565b925050506117ea565b838160020154146118595750611898565b60008160040154826003015461186f9190611adc565b90508015611884576118818185611b1e565b93505b8261188e81611b05565b93505050506117ea565b828988815181106118ab576118ab611aef565b602002602001018181525050818888815181106118ca576118ca611aef565b6020908102919091010152866118df81611b05565b9750508095505050505050611744565b50509250929050565b60006003828154811061190d5761190d611aef565b600091825260208083209091015480835260029091526040909120600601805460ff19169055905061163f6003826113ed565b60006106c860ff8316600a611ce5565b6000806040838503121561196357600080fd5b50508035926020909101359150565b60006020828403121561198457600080fd5b5035919050565b600081518084526020840193506020830160005b828110156119bd57815186526020958601959091019060010161199f565b5093949350505050565b6080815260006119da608083018761198b565b82810360208401526119ec818761198b565b90508281036040840152611a00818661198b565b90508281036060840152611a14818561198b565b979650505050505050565b634e487b7160e01b600052602160045260246000fd5b60028110611a5357634e487b7160e01b600052602160045260246000fd5b9052565b8881526001600160a01b03881660208201526101008101611a7b6040830189611a35565b6060820196909652608081019490945260a084019290925260c0830152151560e0909101529392505050565b60608101611ab58286611a35565b602082019390935260400152919050565b634e487b7160e01b600052601160045260246000fd5b818103818111156106c8576106c8611ac6565b634e487b7160e01b600052603260045260246000fd5b600060018201611b1757611b17611ac6565b5060010190565b808201808211156106c8576106c8611ac6565b80820281158282048414176106c8576106c8611ac6565b600082611b6557634e487b7160e01b600052601260045260246000fd5b500490565b6000825160005b81811015611b8b5760208186018101518583015201611b71565b506000920191825250919050565b600060208284031215611bab57600080fd5b81518015158114610c8757600080fd5b600081611bca57611bca611ac6565b506000190190565b634e487b7160e01b600052603160045260246000fd5b634e487b7160e01b600052604160045260246000fd5b6001815b6001841115611c3957808504811115611c1d57611c1d611ac6565b6001841615611c2b57908102905b60019390931c928002611c02565b935093915050565b600082611c50575060016106c8565b81611c5d575060006106c8565b8160018114611c735760028114611c7d57611c99565b60019150506106c8565b60ff841115611c8e57611c8e611ac6565b50506001821b6106c8565b5060208310610133831016604e8410600b8410161715611cbc575081810a6106c8565b611cc96000198484611bfe565b8060001904821115611cdd57611cdd611ac6565b029392505050565b6000610c878383611c4156fea2646970667358221220e5c3f629c34e4952914e8048723b548537b22b5a9cdc6e9b909f5bcc47aed4fb64736f6c634300081c0033",
          "opcodes": "PUSH2 0x100 PUSH1 0x40 MSTORE PUSH1 0x1 PUSH1 0x0 SSTORE CALLVALUE DUP1 ISZERO PUSH2 0x16 JUMPI PUSH1 0x0 DUP1 REVERT JUMPDEST POP PUSH1 0x40 MLOAD PUSH2 0x1F85 CODESIZE SUB DUP1 PUSH2 0x1F85 DUP4 CODECOPY DUP2 ADD PUSH1 0x40 DUP2 SWAP1 MSTORE PUSH2 0x35 SWAP2 PUSH2 0x143 JUMP JUMPDEST PUSH1 0x1 PUSH1 0x1 PUSH1 0xA0 SHL SUB DUP1 DUP4 AND PUSH1 0x80 DUP2 SWAP1 MSTORE SWAP1 DUP3 AND PUSH1 0xA0 MSTORE PUSH1 0x40 DUP1 MLOAD PUSH4 0x313CE567 PUSH1 0xE0 SHL DUP2 MSTORE SWAP1 MLOAD PUSH4 0x313CE567 SWAP2 PUSH1 0x4 DUP1 DUP3 ADD SWAP3 PUSH1 0x20 SWAP3 SWAP1 SWAP2 SWAP1 DUP3 SWAP1 SUB ADD DUP2 DUP7 GAS STATICCALL ISZERO DUP1 ISZERO PUSH2 0x86 JUMPI RETURNDATASIZE PUSH1 0x0 DUP1 RETURNDATACOPY RETURNDATASIZE PUSH1 0x0 REVERT JUMPDEST POP POP POP POP PUSH1 0x40 MLOAD RETURNDATASIZE PUSH1 0x1F NOT PUSH1 0x1F DUP3 ADD AND DUP3 ADD DUP1 PUSH1 0x40 MSTORE POP DUP2 ADD SWAP1 PUSH2 0xAA SWAP2 SWAP1 PUSH2 0x176 JUMP JUMPDEST PUSH1 0xFF AND PUSH1 0xC0 DUP2 PUSH1 0xFF AND DUP2 MSTORE POP POP DUP1 PUSH1 0x1 PUSH1 0x1 PUSH1 0xA0 SHL SUB AND PUSH4 0x313CE567 PUSH1 0x40 MLOAD DUP2 PUSH4 0xFFFFFFFF AND PUSH1 0xE0 SHL DUP2 MSTORE PUSH1 0x4 ADD PUSH1 0x20 PUSH1 0x40 MLOAD DUP1 DUP4 SUB DUP2 DUP7 GAS STATICCALL ISZERO DUP1 ISZERO PUSH2 0xF5 JUMPI RETURNDATASIZE PUSH1 0x0 DUP1 RETURNDATACOPY RETURNDATASIZE PUSH1 0x0 REVERT JUMPDEST POP POP POP POP PUSH1 0x40 MLOAD RETURNDATASIZE PUSH1 0x1F NOT PUSH1 0x1F DUP3 ADD AND DUP3 ADD DUP1 PUSH1 0x40 MSTORE POP DUP2 ADD SWAP1 PUSH2 0x119 SWAP2 SWAP1 PUSH2 0x176 JUMP JUMPDEST PUSH1 0xFF AND PUSH1 0xE0 MSTORE POP PUSH2 0x1A0 SWAP1 POP JUMP JUMPDEST DUP1 MLOAD PUSH1 0x1 PUSH1 0x1 PUSH1 0xA0 SHL SUB DUP2 AND DUP2 EQ PUSH2 0x13E JUMPI PUSH1 0x0 DUP1 REVERT JUMPDEST SWAP2 SWAP1 POP JUMP JUMPDEST PUSH1 0x0 DUP1 PUSH1 0x40 DUP4 DUP6 SUB SLT ISZERO PUSH2 0x156 JUMPI PUSH1 0x0 DUP1 REVERT JUMPDEST PUSH2 0x15F DUP4 PUSH2 0x127 JUMP JUMPDEST SWAP2 POP PUSH2 0x16D PUSH1 0x20 DUP5 ADD PUSH2 0x127 JUMP JUMPDEST SWAP1 POP SWAP3 POP SWAP3 SWAP1 POP JUMP JUMPDEST PUSH1 0x0 PUSH1 0x20 DUP3 DUP5 SUB SLT ISZERO PUSH2 0x188 JUMPI PUSH1 0x0 DUP1 REVERT JUMPDEST DUP2 MLOAD PUSH1 0xFF DUP2 AND DUP2 EQ PUSH2 0x199 JUMPI PUSH1 0x0 DUP1 REVERT JUMPDEST SWAP4 SWAP3 POP POP POP JUMP JUMPDEST PUSH1 0x80 MLOAD PUSH1 0xA0 MLOAD PUSH1 0xC0 MLOAD PUSH1 0xE0 MLOAD PUSH2 0x1D27 PUSH2 0x25E PUSH1 0x0 CODECOPY PUSH1 0x0 DUP2 DUP2 PUSH2 0x1BC ADD MSTORE DUP2 DUP2 PUSH2 0xC45 ADD MSTORE PUSH2 0x164A ADD MSTORE PUSH1 0x0 DUP2 DUP2 PUSH2 0x183 ADD MSTORE DUP2 DUP2 PUSH2 0xC0A ADD MSTORE PUSH2 0x167D ADD MSTORE PUSH1 0x0 DUP2 DUP2 PUSH2 0x13B ADD MSTORE DUP2 DUP2 PUSH2 0x3A5 ADD MSTORE DUP2 DUP2 PUSH2 0x528 ADD MSTORE DUP2 DUP2 PUSH2 0x6F4 ADD MSTORE DUP2 DUP2 PUSH2 0x85E ADD MSTORE DUP2 DUP2 PUSH2 0x926 ADD MSTORE DUP2 DUP2 PUSH2 0xAD2 ADD MSTORE DUP2 DUP2 PUSH2 0x11AC ADD MSTORE PUSH2 0x1225 ADD MSTORE PUSH1 0x0 DUP2 DUP2 PUSH2 0x2D5 ADD MSTORE DUP2 DUP2 PUSH2 0x559 ADD MSTORE DUP2 DUP2 PUSH2 0x63B ADD MSTORE DUP2 DUP2 PUSH2 0x82D ADD MSTORE DUP2 DUP2 PUSH2 0x9BC ADD MSTORE DUP2 DUP2 PUSH2 0xB03 ADD MSTORE DUP2 DUP2 PUSH2 0xBCD ADD MSTORE PUSH2 0x1172 ADD MSTORE PUSH2 0x1D27 PUSH1 0x0 RETURN INVALID PUSH1 0x80 PUSH1 0x40 MSTORE CALLVALUE DUP1 ISZERO PUSH2 0x10 JUMPI PUSH1 0x0 DUP1 REVERT JUMPDEST POP PUSH1 0x4 CALLDATASIZE LT PUSH2 0x10B JUMPI PUSH1 0x0 CALLDATALOAD PUSH1 0xE0 SHR DUP1 PUSH4 0x8FB84BB0 GT PUSH2 0xA2 JUMPI DUP1 PUSH4 0xC55DAE63 GT PUSH2 0x71 JUMPI DUP1 PUSH4 0xC55DAE63 EQ PUSH2 0x2D0 JUMPI DUP1 PUSH4 0xD8CF24FD EQ PUSH2 0x2F7 JUMPI DUP1 PUSH4 0xDB0C9A02 EQ PUSH2 0x2FF JUMPI DUP1 PUSH4 0xDF449CB8 EQ PUSH2 0x312 JUMPI DUP1 PUSH4 0xEC3E4E6F EQ PUSH2 0x31B JUMPI PUSH1 0x0 DUP1 REVERT JUMPDEST DUP1 PUSH4 0x8FB84BB0 EQ PUSH2 0x219 JUMPI DUP1 PUSH4 0x961D537F EQ PUSH2 0x22C JUMPI DUP1 PUSH4 0xA85C38EF EQ PUSH2 0x24F JUMPI DUP1 PUSH4 0xC33F59D3 EQ PUSH2 0x2C1 JUMPI PUSH1 0x0 DUP1 REVERT JUMPDEST DUP1 PUSH4 0x3FD1E2BD GT PUSH2 0xDE JUMPI DUP1 PUSH4 0x3FD1E2BD EQ PUSH2 0x1B7 JUMPI DUP1 PUSH4 0x43EB749A EQ PUSH2 0x1DE JUMPI DUP1 PUSH4 0x514FCAC7 EQ PUSH2 0x1F1 JUMPI DUP1 PUSH4 0x8ED6910F EQ PUSH2 0x206 JUMPI PUSH1 0x0 DUP1 REVERT JUMPDEST DUP1 PUSH4 0x1A74DF19 EQ PUSH2 0x110 JUMPI DUP1 PUSH4 0x217A4B70 EQ PUSH2 0x136 JUMPI DUP1 PUSH4 0x2A58B330 EQ PUSH2 0x175 JUMPI DUP1 PUSH4 0x33F76178 EQ PUSH2 0x17E JUMPI JUMPDEST PUSH1 0x0 DUP1 REVERT JUMPDEST PUSH2 0x123 PUSH2 0x11E CALLDATASIZE PUSH1 0x4 PUSH2 0x1950 JUMP JUMPDEST PUSH2 0x32E JUMP JUMPDEST PUSH1 0x40 MLOAD SWAP1 DUP2 MSTORE PUSH1 0x20 ADD JUMPDEST PUSH1 0x40 MLOAD DUP1 SWAP2 SUB SWAP1 RETURN JUMPDEST PUSH2 0x15D PUSH32 0x0 DUP2 JUMP JUMPDEST PUSH1 0x40 MLOAD PUSH1 0x1 PUSH1 0x1 PUSH1 0xA0 SHL SUB SWAP1 SWAP2 AND DUP2 MSTORE PUSH1 0x20 ADD PUSH2 0x12D JUMP JUMPDEST PUSH2 0x123 PUSH1 0x0 SLOAD DUP2 JUMP JUMPDEST PUSH2 0x1A5 PUSH32 0x0 DUP2 JUMP JUMPDEST PUSH1 0x40 MLOAD PUSH1 0xFF SWAP1 SWAP2 AND DUP2 MSTORE PUSH1 0x20 ADD PUSH2 0x12D JUMP JUMPDEST PUSH2 0x1A5 PUSH32 0x0 DUP2 JUMP JUMPDEST PUSH2 0x123 PUSH2 0x1EC CALLDATASIZE PUSH1 0x4 PUSH2 0x1972 JUMP JUMPDEST PUSH2 0x439 JUMP JUMPDEST PUSH2 0x204 PUSH2 0x1FF CALLDATASIZE PUSH1 0x4 PUSH2 0x1972 JUMP JUMPDEST PUSH2 0x45A JUMP JUMPDEST STOP JUMPDEST PUSH2 0x123 PUSH2 0x214 CALLDATASIZE PUSH1 0x4 PUSH2 0x1950 JUMP JUMPDEST PUSH2 0x5F3 JUMP JUMPDEST PUSH2 0x204 PUSH2 0x227 CALLDATASIZE PUSH1 0x4 PUSH2 0x1972 JUMP JUMPDEST PUSH2 0x6CE JUMP JUMPDEST PUSH2 0x23F PUSH2 0x23A CALLDATASIZE PUSH1 0x4 PUSH2 0x1972 JUMP JUMPDEST PUSH2 0x951 JUMP JUMPDEST PUSH1 0x40 MLOAD PUSH2 0x12D SWAP5 SWAP4 SWAP3 SWAP2 SWAP1 PUSH2 0x19C7 JUMP JUMPDEST PUSH2 0x2AD PUSH2 0x25D CALLDATASIZE PUSH1 0x4 PUSH2 0x1972 JUMP JUMPDEST PUSH1 0x2 PUSH1 0x20 DUP2 SWAP1 MSTORE PUSH1 0x0 SWAP2 DUP3 MSTORE PUSH1 0x40 SWAP1 SWAP2 KECCAK256 DUP1 SLOAD PUSH1 0x1 DUP3 ADD SLOAD SWAP3 DUP3 ADD SLOAD PUSH1 0x3 DUP4 ADD SLOAD PUSH1 0x4 DUP5 ADD SLOAD PUSH1 0x5 DUP6 ADD SLOAD PUSH1 0x6 SWAP1 SWAP6 ADD SLOAD SWAP4 SWAP6 PUSH1 0x1 PUSH1 0x1 PUSH1 0xA0 SHL SUB DUP2 AND SWAP6 PUSH1 0x1 PUSH1 0xA0 SHL SWAP1 SWAP2 DIV PUSH1 0xFF SWAP1 DUP2 AND SWAP6 AND DUP9 JUMP JUMPDEST PUSH1 0x40 MLOAD PUSH2 0x12D SWAP9 SWAP8 SWAP7 SWAP6 SWAP5 SWAP4 SWAP3 SWAP2 SWAP1 PUSH2 0x1A57 JUMP JUMPDEST PUSH2 0x123 PUSH8 0xDE0B6B3A7640000 DUP2 JUMP JUMPDEST PUSH2 0x15D PUSH32 0x0 DUP2 JUMP JUMPDEST PUSH1 0x1 SLOAD PUSH2 0x123 JUMP JUMPDEST PUSH2 0x204 PUSH2 0x30D CALLDATASIZE PUSH1 0x4 PUSH2 0x1972 JUMP JUMPDEST PUSH2 0x996 JUMP JUMPDEST PUSH2 0x123 PUSH1 0x1 SLOAD DUP2 JUMP JUMPDEST PUSH2 0x123 PUSH2 0x329 CALLDATASIZE PUSH1 0x4 PUSH2 0x1972 JUMP JUMPDEST PUSH2 0xBF3 JUMP JUMPDEST PUSH1 0x0 DUP3 PUSH1 0x0 SUB PUSH2 0x350 JUMPI PUSH1 0x40 MLOAD PUSH3 0xBFC921 PUSH1 0xE0 SHL DUP2 MSTORE PUSH1 0x4 ADD PUSH1 0x40 MLOAD DUP1 SWAP2 SUB SWAP1 REVERT JUMPDEST DUP2 PUSH1 0x0 SUB PUSH2 0x371 JUMPI PUSH1 0x40 MLOAD PUSH4 0x162908E3 PUSH1 0xE1 SHL DUP2 MSTORE PUSH1 0x4 ADD PUSH1 0x40 MLOAD DUP1 SWAP2 SUB SWAP1 REVERT JUMPDEST PUSH1 0x0 PUSH2 0x37D DUP4 DUP6 PUSH2 0xC03 JUMP JUMPDEST SWAP1 POP DUP1 PUSH1 0x0 SUB PUSH2 0x3A0 JUMPI PUSH1 0x40 MLOAD PUSH4 0x162908E3 PUSH1 0xE1 SHL DUP2 MSTORE PUSH1 0x4 ADD PUSH1 0x40 MLOAD DUP1 SWAP2 SUB SWAP1 REVERT JUMPDEST PUSH2 0x3CC PUSH32 0x0 CALLER ADDRESS DUP5 PUSH2 0xC8E JUMP JUMPDEST PUSH2 0x3D8 PUSH1 0x0 DUP6 DUP6 PUSH2 0xD88 JUMP JUMPDEST SWAP2 POP PUSH2 0x3E3 DUP3 PUSH2 0xE9E JUMP JUMPDEST CALLER PUSH1 0x1 PUSH1 0x1 PUSH1 0xA0 SHL SUB AND DUP3 PUSH32 0xBFA7375F10629D29376D04EEBA251F3E7DB963FAB0091A92B799FDD4B35562AB PUSH1 0x0 DUP8 DUP8 PUSH1 0x40 MLOAD PUSH2 0x422 SWAP4 SWAP3 SWAP2 SWAP1 PUSH2 0x1AA7 JUMP JUMPDEST PUSH1 0x40 MLOAD DUP1 SWAP2 SUB SWAP1 LOG3 PUSH2 0x432 PUSH2 0xFE4 JUMP JUMPDEST POP SWAP3 SWAP2 POP POP JUMP JUMPDEST PUSH1 0x4 DUP2 DUP2 SLOAD DUP2 LT PUSH2 0x449 JUMPI PUSH1 0x0 DUP1 REVERT JUMPDEST PUSH1 0x0 SWAP2 DUP3 MSTORE PUSH1 0x20 SWAP1 SWAP2 KECCAK256 ADD SLOAD SWAP1 POP DUP2 JUMP JUMPDEST PUSH1 0x0 DUP2 DUP2 MSTORE PUSH1 0x2 PUSH1 0x20 MSTORE PUSH1 0x40 SWAP1 KECCAK256 PUSH1 0x6 DUP2 ADD SLOAD PUSH1 0xFF AND PUSH2 0x48D JUMPI PUSH1 0x40 MLOAD PUSH4 0x4065AAF1 PUSH1 0xE1 SHL DUP2 MSTORE PUSH1 0x4 ADD PUSH1 0x40 MLOAD DUP1 SWAP2 SUB SWAP1 REVERT JUMPDEST PUSH1 0x1 DUP2 ADD SLOAD PUSH1 0x1 PUSH1 0x1 PUSH1 0xA0 SHL SUB AND CALLER EQ PUSH2 0x4BA JUMPI PUSH1 0x40 MLOAD PUSH4 0x30CD7471 PUSH1 0xE0 SHL DUP2 MSTORE PUSH1 0x4 ADD PUSH1 0x40 MLOAD DUP1 SWAP2 SUB SWAP1 REVERT JUMPDEST PUSH1 0x6 DUP2 ADD DUP1 SLOAD PUSH1 0xFF NOT AND SWAP1 SSTORE PUSH1 0x4 DUP2 ADD SLOAD PUSH1 0x3 DUP3 ADD SLOAD PUSH1 0x0 SWAP2 PUSH2 0x4DC SWAP2 PUSH2 0x1ADC JUMP JUMPDEST SWAP1 POP DUP1 ISZERO PUSH2 0x57F JUMPI PUSH1 0x0 PUSH1 0x1 DUP4 DUP2 ADD SLOAD PUSH1 0x1 PUSH1 0xA0 SHL SWAP1 DIV PUSH1 0xFF AND SWAP1 DUP2 GT ISZERO PUSH2 0x506 JUMPI PUSH2 0x506 PUSH2 0x1A1F JUMP JUMPDEST SUB PUSH2 0x554 JUMPI PUSH1 0x0 PUSH2 0x51B DUP3 DUP5 PUSH1 0x2 ADD SLOAD PUSH2 0xC03 JUMP JUMPDEST SWAP1 POP DUP1 ISZERO PUSH2 0x54E JUMPI PUSH2 0x54E PUSH32 0x0 CALLER DUP4 PUSH2 0x12FC JUMP JUMPDEST POP PUSH2 0x57F JUMP JUMPDEST PUSH2 0x57F PUSH32 0x0 CALLER DUP4 PUSH2 0x12FC JUMP JUMPDEST PUSH1 0x0 PUSH1 0x1 DUP4 DUP2 ADD SLOAD PUSH1 0x1 PUSH1 0xA0 SHL SWAP1 DIV PUSH1 0xFF AND SWAP1 DUP2 GT ISZERO PUSH2 0x5A1 JUMPI PUSH2 0x5A1 PUSH2 0x1A1F JUMP JUMPDEST SUB PUSH2 0x5B6 JUMPI PUSH2 0x5B1 PUSH1 0x3 DUP5 PUSH2 0x13ED JUMP JUMPDEST PUSH2 0x5C1 JUMP JUMPDEST PUSH2 0x5C1 PUSH1 0x4 DUP5 PUSH2 0x13ED JUMP JUMPDEST PUSH1 0x40 MLOAD CALLER SWAP1 DUP5 SWAP1 PUSH32 0xC0362DA6F2FF36B382B34AEC0814F6B3CDF89F5EF282A1D1F114D0C0B036D596 SWAP1 PUSH1 0x0 SWAP1 LOG3 POP POP POP JUMP JUMPDEST PUSH1 0x0 DUP3 PUSH1 0x0 SUB PUSH2 0x615 JUMPI PUSH1 0x40 MLOAD PUSH3 0xBFC921 PUSH1 0xE0 SHL DUP2 MSTORE PUSH1 0x4 ADD PUSH1 0x40 MLOAD DUP1 SWAP2 SUB SWAP1 REVERT JUMPDEST DUP2 PUSH1 0x0 SUB PUSH2 0x636 JUMPI PUSH1 0x40 MLOAD PUSH4 0x162908E3 PUSH1 0xE1 SHL DUP2 MSTORE PUSH1 0x4 ADD PUSH1 0x40 MLOAD DUP1 SWAP2 SUB SWAP1 REVERT JUMPDEST PUSH2 0x662 PUSH32 0x0 CALLER ADDRESS DUP6 PUSH2 0xC8E JUMP JUMPDEST PUSH2 0x66E PUSH1 0x1 DUP5 DUP5 PUSH2 0xD88 JUMP JUMPDEST SWAP1 POP PUSH2 0x679 DUP2 PUSH2 0x14C3 JUMP JUMPDEST CALLER PUSH1 0x1 PUSH1 0x1 PUSH1 0xA0 SHL SUB AND DUP2 PUSH32 0xBFA7375F10629D29376D04EEBA251F3E7DB963FAB0091A92B799FDD4B35562AB PUSH1 0x1 DUP7 DUP7 PUSH1 0x40 MLOAD PUSH2 0x6B8 SWAP4 SWAP3 SWAP2 SWAP1 PUSH2 0x1AA7 JUMP JUMPDEST PUSH1 0x40 MLOAD DUP1 SWAP2 SUB SWAP1 LOG3 PUSH2 0x6C8 PUSH2 0xFE4 JUMP JUMPDEST SWAP3 SWAP2 POP POP JUMP JUMPDEST DUP1 PUSH1 0x0 SUB PUSH2 0x6EF JUMPI PUSH1 0x40 MLOAD PUSH4 0x162908E3 PUSH1 0xE1 SHL DUP2 MSTORE PUSH1 0x4 ADD PUSH1 0x40 MLOAD DUP1 SWAP2 SUB SWAP1 REVERT JUMPDEST PUSH2 0x71B PUSH32 0x0 CALLER ADDRESS DUP5 PUSH2 0xC8E JUMP JUMPDEST DUP1 PUSH1 0x0 JUMPDEST PUSH1 0x4 SLOAD DUP2 LT DUP1 ISZERO PUSH2 0x730 JUMPI POP PUSH1 0x0 DUP3 GT JUMPDEST ISZERO PUSH2 0x91B JUMPI PUSH1 0x0 PUSH1 0x4 DUP3 DUP2 SLOAD DUP2 LT PUSH2 0x74A JUMPI PUSH2 0x74A PUSH2 0x1AEF JUMP JUMPDEST PUSH1 0x0 SWAP2 DUP3 MSTORE PUSH1 0x20 DUP1 DUP4 KECCAK256 SWAP1 SWAP2 ADD SLOAD DUP1 DUP4 MSTORE PUSH1 0x2 SWAP1 SWAP2 MSTORE PUSH1 0x40 SWAP1 SWAP2 KECCAK256 PUSH1 0x6 DUP2 ADD SLOAD SWAP2 SWAP3 POP SWAP1 PUSH1 0xFF AND PUSH2 0x789 JUMPI DUP3 PUSH2 0x77F DUP2 PUSH2 0x1B05 JUMP JUMPDEST SWAP4 POP POP POP POP PUSH2 0x71F JUMP JUMPDEST PUSH1 0x0 DUP2 PUSH1 0x4 ADD SLOAD DUP3 PUSH1 0x3 ADD SLOAD PUSH2 0x79F SWAP2 SWAP1 PUSH2 0x1ADC JUMP JUMPDEST SWAP1 POP DUP1 PUSH1 0x0 SUB PUSH2 0x7BA JUMPI PUSH2 0x7B2 DUP5 PUSH2 0x15F7 JUMP JUMPDEST POP POP POP PUSH2 0x71F JUMP JUMPDEST PUSH1 0x0 PUSH2 0x7CA DUP7 DUP5 PUSH1 0x2 ADD SLOAD PUSH2 0x1643 JUMP JUMPDEST SWAP1 POP DUP1 PUSH1 0x0 SUB PUSH2 0x7DD JUMPI POP POP POP POP PUSH2 0x91B JUMP JUMPDEST PUSH1 0x0 DUP3 DUP3 LT PUSH2 0x7EC JUMPI DUP3 PUSH2 0x7EE JUMP JUMPDEST DUP2 JUMPDEST SWAP1 POP PUSH1 0x0 PUSH2 0x800 DUP3 DUP7 PUSH1 0x2 ADD SLOAD PUSH2 0xC03 JUMP JUMPDEST SWAP1 POP DUP2 DUP6 PUSH1 0x4 ADD PUSH1 0x0 DUP3 DUP3 SLOAD PUSH2 0x816 SWAP2 SWAP1 PUSH2 0x1B1E JUMP JUMPDEST SWAP1 SWAP2 SSTORE POP PUSH2 0x826 SWAP1 POP DUP2 DUP10 PUSH2 0x1ADC JUMP JUMPDEST SWAP8 POP PUSH2 0x853 PUSH32 0x0 CALLER DUP5 PUSH2 0x12FC JUMP JUMPDEST PUSH1 0x1 DUP6 ADD SLOAD PUSH2 0x88D SWAP1 PUSH32 0x0 SWAP1 PUSH1 0x1 PUSH1 0x1 PUSH1 0xA0 SHL SUB AND DUP4 PUSH2 0x12FC JUMP JUMPDEST PUSH1 0x2 DUP6 ADD SLOAD PUSH1 0x1 DUP2 DUP2 SSTORE DUP7 ADD SLOAD DUP7 SLOAD PUSH1 0x40 MLOAD CALLER SWAP4 PUSH1 0x1 PUSH1 0x1 PUSH1 0xA0 SHL SUB SWAP1 SWAP4 AND SWAP3 PUSH32 0xEB7062411A6997E25EB45E7E1FB3C88CECBFA57B15D77307553B6BF937F108BA SWAP2 PUSH2 0x8DD SWAP2 PUSH1 0x0 SWAP2 DUP10 SWAP1 PUSH2 0x1AA7 JUMP JUMPDEST PUSH1 0x40 MLOAD DUP1 SWAP2 SUB SWAP1 LOG4 DUP5 PUSH1 0x3 ADD SLOAD DUP6 PUSH1 0x4 ADD SLOAD SUB PUSH2 0x902 JUMPI PUSH2 0x8FD DUP8 PUSH2 0x15F7 JUMP JUMPDEST PUSH2 0x910 JUMP JUMPDEST DUP7 PUSH2 0x90C DUP2 PUSH2 0x1B05 JUMP JUMPDEST SWAP8 POP POP JUMPDEST POP POP POP POP POP POP PUSH2 0x71F JUMP JUMPDEST DUP2 ISZERO PUSH2 0x94C JUMPI PUSH2 0x94C PUSH32 0x0 CALLER DUP5 PUSH2 0x12FC JUMP JUMPDEST POP POP POP JUMP JUMPDEST PUSH1 0x60 DUP1 PUSH1 0x60 DUP1 DUP5 PUSH1 0x0 SUB PUSH2 0x964 JUMPI PUSH1 0xA SWAP5 POP JUMPDEST PUSH1 0x0 DUP1 PUSH2 0x972 PUSH1 0x3 DUP9 PUSH2 0x16B3 JUMP JUMPDEST SWAP2 POP SWAP2 POP PUSH1 0x0 DUP1 PUSH2 0x984 PUSH1 0x4 DUP11 PUSH2 0x16B3 JUMP JUMPDEST SWAP5 SWAP11 SWAP4 SWAP10 POP SWAP8 POP SWAP3 SWAP6 POP SWAP1 SWAP4 POP POP POP POP JUMP JUMPDEST DUP1 PUSH1 0x0 SUB PUSH2 0x9B7 JUMPI PUSH1 0x40 MLOAD PUSH4 0x162908E3 PUSH1 0xE1 SHL DUP2 MSTORE PUSH1 0x4 ADD PUSH1 0x40 MLOAD DUP1 SWAP2 SUB SWAP1 REVERT JUMPDEST PUSH2 0x9E3 PUSH32 0x0 CALLER ADDRESS DUP5 PUSH2 0xC8E JUMP JUMPDEST DUP1 PUSH1 0x0 JUMPDEST PUSH1 0x3 SLOAD DUP2 LT DUP1 ISZERO PUSH2 0x9F8 JUMPI POP PUSH1 0x0 DUP3 GT JUMPDEST ISZERO PUSH2 0xBC2 JUMPI PUSH1 0x0 PUSH1 0x3 DUP3 DUP2 SLOAD DUP2 LT PUSH2 0xA12 JUMPI PUSH2 0xA12 PUSH2 0x1AEF JUMP JUMPDEST PUSH1 0x0 SWAP2 DUP3 MSTORE PUSH1 0x20 DUP1 DUP4 KECCAK256 SWAP1 SWAP2 ADD SLOAD DUP1 DUP4 MSTORE PUSH1 0x2 SWAP1 SWAP2 MSTORE PUSH1 0x40 SWAP1 SWAP2 KECCAK256 PUSH1 0x6 DUP2 ADD SLOAD SWAP2 SWAP3 POP SWAP1 PUSH1 0xFF AND PUSH2 0xA51 JUMPI DUP3 PUSH2 0xA47 DUP2 PUSH2 0x1B05 JUMP JUMPDEST SWAP4 POP POP POP POP PUSH2 0x9E7 JUMP JUMPDEST PUSH1 0x0 DUP2 PUSH1 0x4 ADD SLOAD DUP3 PUSH1 0x3 ADD SLOAD PUSH2 0xA67 SWAP2 SWAP1 PUSH2 0x1ADC JUMP JUMPDEST SWAP1 POP DUP1 PUSH1 0x0 SUB PUSH2 0xA82 JUMPI PUSH2 0xA7A DUP5 PUSH2 0x18F8 JUMP JUMPDEST POP POP POP PUSH2 0x9E7 JUMP JUMPDEST PUSH1 0x0 DUP2 DUP7 LT PUSH2 0xA91 JUMPI DUP2 PUSH2 0xA93 JUMP JUMPDEST DUP6 JUMPDEST SWAP1 POP PUSH1 0x0 PUSH2 0xAA5 DUP3 DUP6 PUSH1 0x2 ADD SLOAD PUSH2 0xC03 JUMP JUMPDEST SWAP1 POP DUP2 DUP5 PUSH1 0x4 ADD PUSH1 0x0 DUP3 DUP3 SLOAD PUSH2 0xABB SWAP2 SWAP1 PUSH2 0x1B1E JUMP JUMPDEST SWAP1 SWAP2 SSTORE POP PUSH2 0xACB SWAP1 POP DUP3 DUP9 PUSH2 0x1ADC JUMP JUMPDEST SWAP7 POP PUSH2 0xAF8 PUSH32 0x0 CALLER DUP4 PUSH2 0x12FC JUMP JUMPDEST PUSH1 0x1 DUP5 ADD SLOAD PUSH2 0xB32 SWAP1 PUSH32 0x0 SWAP1 PUSH1 0x1 PUSH1 0x1 PUSH1 0xA0 SHL SUB AND DUP5 PUSH2 0x12FC JUMP JUMPDEST PUSH1 0x2 DUP5 ADD SLOAD PUSH1 0x1 DUP2 DUP2 SSTORE DUP1 DUP7 ADD SLOAD DUP7 SLOAD PUSH1 0x40 MLOAD CALLER SWAP5 PUSH1 0x1 PUSH1 0x1 PUSH1 0xA0 SHL SUB SWAP1 SWAP4 AND SWAP4 SWAP2 SWAP3 PUSH32 0xEB7062411A6997E25EB45E7E1FB3C88CECBFA57B15D77307553B6BF937F108BA SWAP3 PUSH2 0xB85 SWAP3 SWAP1 SWAP2 SWAP1 DUP10 SWAP1 PUSH2 0x1AA7 JUMP JUMPDEST PUSH1 0x40 MLOAD DUP1 SWAP2 SUB SWAP1 LOG4 DUP4 PUSH1 0x3 ADD SLOAD DUP5 PUSH1 0x4 ADD SLOAD SUB PUSH2 0xBAA JUMPI PUSH2 0xBA5 DUP7 PUSH2 0x18F8 JUMP JUMPDEST PUSH2 0xBB8 JUMP JUMPDEST DUP6 PUSH2 0xBB4 DUP2 PUSH2 0x1B05 JUMP JUMPDEST SWAP7 POP POP JUMPDEST POP POP POP POP POP PUSH2 0x9E7 JUMP JUMPDEST DUP2 ISZERO PUSH2 0x94C JUMPI PUSH2 0x94C PUSH32 0x0 CALLER DUP5 PUSH2 0x12FC JUMP JUMPDEST PUSH1 0x3 DUP2 DUP2 SLOAD DUP2 LT PUSH2 0x449 JUMPI PUSH1 0x0 DUP1 REVERT JUMPDEST PUSH1 0x0 PUSH2 0xC2E PUSH32 0x0 PUSH2 0x1940 JUMP JUMPDEST PUSH2 0xC40 SWAP1 PUSH8 0xDE0B6B3A7640000 PUSH2 0x1B31 JUMP JUMPDEST PUSH2 0xC69 PUSH32 0x0 PUSH2 0x1940 JUMP JUMPDEST PUSH2 0xC73 DUP5 DUP7 PUSH2 0x1B31 JUMP JUMPDEST PUSH2 0xC7D SWAP2 SWAP1 PUSH2 0x1B31 JUMP JUMPDEST PUSH2 0xC87 SWAP2 SWAP1 PUSH2 0x1B48 JUMP JUMPDEST SWAP4 SWAP3 POP POP POP JUMP JUMPDEST PUSH1 0x40 DUP1 MLOAD PUSH1 0x1 PUSH1 0x1 PUSH1 0xA0 SHL SUB DUP6 DUP2 AND PUSH1 0x24 DUP4 ADD MSTORE DUP5 DUP2 AND PUSH1 0x44 DUP4 ADD MSTORE PUSH1 0x64 DUP1 DUP4 ADD DUP6 SWAP1 MSTORE DUP4 MLOAD DUP1 DUP5 SUB SWAP1 SWAP2 ADD DUP2 MSTORE PUSH1 0x84 SWAP1 SWAP3 ADD DUP4 MSTORE PUSH1 0x20 DUP3 ADD DUP1 MLOAD PUSH1 0x1 PUSH1 0x1 PUSH1 0xE0 SHL SUB AND PUSH4 0x23B872DD PUSH1 0xE0 SHL OR SWAP1 MSTORE SWAP2 MLOAD PUSH1 0x0 SWAP3 DUP4 SWAP3 SWAP1 DUP9 AND SWAP2 PUSH2 0xCF2 SWAP2 SWAP1 PUSH2 0x1B6A JUMP JUMPDEST PUSH1 0x0 PUSH1 0x40 MLOAD DUP1 DUP4 SUB DUP2 PUSH1 0x0 DUP7 GAS CALL SWAP2 POP POP RETURNDATASIZE DUP1 PUSH1 0x0 DUP2 EQ PUSH2 0xD2F JUMPI PUSH1 0x40 MLOAD SWAP2 POP PUSH1 0x1F NOT PUSH1 0x3F RETURNDATASIZE ADD AND DUP3 ADD PUSH1 0x40 MSTORE RETURNDATASIZE DUP3 MSTORE RETURNDATASIZE PUSH1 0x0 PUSH1 0x20 DUP5 ADD RETURNDATACOPY PUSH2 0xD34 JUMP JUMPDEST PUSH1 0x60 SWAP2 POP JUMPDEST POP SWAP2 POP SWAP2 POP DUP2 ISZERO DUP1 PUSH2 0xD62 JUMPI POP DUP1 MLOAD ISZERO DUP1 ISZERO SWAP1 PUSH2 0xD62 JUMPI POP DUP1 DUP1 PUSH1 0x20 ADD SWAP1 MLOAD DUP2 ADD SWAP1 PUSH2 0xD60 SWAP2 SWAP1 PUSH2 0x1B99 JUMP JUMPDEST ISZERO JUMPDEST ISZERO PUSH2 0xD80 JUMPI PUSH1 0x40 MLOAD PUSH4 0x12171D83 PUSH1 0xE3 SHL DUP2 MSTORE PUSH1 0x4 ADD PUSH1 0x40 MLOAD DUP1 SWAP2 SUB SWAP1 REVERT JUMPDEST POP POP POP POP POP POP JUMP JUMPDEST PUSH1 0x0 DUP1 SLOAD DUP2 DUP1 PUSH2 0xD97 DUP4 PUSH2 0x1B05 JUMP JUMPDEST SWAP1 SWAP2 SSTORE POP PUSH1 0x40 DUP1 MLOAD PUSH2 0x100 DUP2 ADD DUP3 MSTORE DUP3 DUP2 MSTORE CALLER PUSH1 0x20 DUP3 ADD MSTORE SWAP2 SWAP3 POP DUP2 ADD DUP6 PUSH1 0x1 DUP2 GT ISZERO PUSH2 0xDC6 JUMPI PUSH2 0xDC6 PUSH2 0x1A1F JUMP JUMPDEST DUP2 MSTORE PUSH1 0x20 DUP1 DUP3 ADD DUP7 SWAP1 MSTORE PUSH1 0x40 DUP1 DUP4 ADD DUP7 SWAP1 MSTORE PUSH1 0x0 PUSH1 0x60 DUP5 ADD DUP2 SWAP1 MSTORE TIMESTAMP PUSH1 0x80 DUP6 ADD MSTORE PUSH1 0x1 PUSH1 0xA0 SWAP1 SWAP5 ADD DUP5 SWAP1 MSTORE DUP6 DUP2 MSTORE PUSH1 0x2 DUP4 MSTORE DUP2 SWAP1 KECCAK256 DUP5 MLOAD DUP2 SSTORE SWAP2 DUP5 ADD MLOAD DUP3 DUP5 ADD DUP1 SLOAD PUSH1 0x1 PUSH1 0x1 PUSH1 0xA0 SHL SUB NOT DUP2 AND PUSH1 0x1 PUSH1 0x1 PUSH1 0xA0 SHL SUB SWAP1 SWAP4 AND SWAP3 DUP4 OR DUP3 SSTORE SWAP3 DUP7 ADD MLOAD SWAP4 SWAP5 SWAP1 SWAP3 PUSH1 0x1 PUSH1 0x1 PUSH1 0xA8 SHL SUB NOT AND SWAP1 SWAP2 OR SWAP1 PUSH1 0x1 PUSH1 0xA0 SHL SWAP1 DUP5 SWAP1 DUP2 GT ISZERO PUSH2 0xE50 JUMPI PUSH2 0xE50 PUSH2 0x1A1F JUMP JUMPDEST MUL OR SWAP1 SSTORE POP PUSH1 0x60 DUP3 ADD MLOAD PUSH1 0x2 DUP3 ADD SSTORE PUSH1 0x80 DUP3 ADD MLOAD PUSH1 0x3 DUP3 ADD SSTORE PUSH1 0xA0 DUP3 ADD MLOAD PUSH1 0x4 DUP3 ADD SSTORE PUSH1 0xC0 DUP3 ADD MLOAD PUSH1 0x5 DUP3 ADD SSTORE PUSH1 0xE0 SWAP1 SWAP2 ADD MLOAD PUSH1 0x6 SWAP1 SWAP2 ADD DUP1 SLOAD PUSH1 0xFF NOT AND SWAP2 ISZERO ISZERO SWAP2 SWAP1 SWAP2 OR SWAP1 SSTORE SWAP4 SWAP3 POP POP POP JUMP JUMPDEST PUSH1 0x0 DUP2 DUP2 MSTORE PUSH1 0x2 PUSH1 0x20 MSTORE PUSH1 0x40 DUP2 KECCAK256 PUSH1 0x3 DUP1 SLOAD PUSH1 0x1 DUP2 ADD DUP3 SSTORE SWAP3 MSTORE PUSH32 0xC2575A0E9E593C00F959F8C92F12DB2869C3395A3B0502D05E2516446F71F85B DUP3 ADD DUP4 SWAP1 SSTORE SWAP1 DUP1 JUMPDEST DUP1 ISZERO PUSH2 0xFBE JUMPI PUSH1 0x0 PUSH1 0x2 DUP2 PUSH1 0x3 PUSH2 0xEF9 PUSH1 0x1 DUP7 PUSH2 0x1ADC JUMP JUMPDEST DUP2 SLOAD DUP2 LT PUSH2 0xF09 JUMPI PUSH2 0xF09 PUSH2 0x1AEF JUMP JUMPDEST SWAP1 PUSH1 0x0 MSTORE PUSH1 0x20 PUSH1 0x0 KECCAK256 ADD SLOAD DUP2 MSTORE PUSH1 0x20 ADD SWAP1 DUP2 MSTORE PUSH1 0x20 ADD PUSH1 0x0 KECCAK256 SWAP1 POP PUSH1 0x0 DUP2 PUSH1 0x2 ADD SLOAD DUP6 PUSH1 0x2 ADD SLOAD GT DUP1 PUSH2 0xF55 JUMPI POP DUP2 PUSH1 0x2 ADD SLOAD DUP6 PUSH1 0x2 ADD SLOAD EQ DUP1 ISZERO PUSH2 0xF55 JUMPI POP DUP2 PUSH1 0x5 ADD SLOAD DUP6 PUSH1 0x5 ADD SLOAD LT JUMPDEST SWAP1 POP DUP1 PUSH2 0xF63 JUMPI POP POP PUSH2 0xFBE JUMP JUMPDEST PUSH1 0x3 PUSH2 0xF70 PUSH1 0x1 DUP6 PUSH2 0x1ADC JUMP JUMPDEST DUP2 SLOAD DUP2 LT PUSH2 0xF80 JUMPI PUSH2 0xF80 PUSH2 0x1AEF JUMP JUMPDEST SWAP1 PUSH1 0x0 MSTORE PUSH1 0x20 PUSH1 0x0 KECCAK256 ADD SLOAD PUSH1 0x3 DUP5 DUP2 SLOAD DUP2 LT PUSH2 0xF9E JUMPI PUSH2 0xF9E PUSH2 0x1AEF JUMP JUMPDEST PUSH1 0x0 SWAP2 DUP3 MSTORE PUSH1 0x20 SWAP1 SWAP2 KECCAK256 ADD SSTORE DUP3 PUSH2 0xFB4 DUP2 PUSH2 0x1BBB JUMP JUMPDEST SWAP4 POP POP POP POP PUSH2 0xEE1 JUMP JUMPDEST DUP4 PUSH1 0x3 DUP3 DUP2 SLOAD DUP2 LT PUSH2 0xFD2 JUMPI PUSH2 0xFD2 PUSH2 0x1AEF JUMP JUMPDEST PUSH1 0x0 SWAP2 DUP3 MSTORE PUSH1 0x20 SWAP1 SWAP2 KECCAK256 ADD SSTORE POP POP POP POP JUMP JUMPDEST PUSH1 0x3 SLOAD ISZERO DUP1 ISZERO SWAP1 PUSH2 0xFF6 JUMPI POP PUSH1 0x4 SLOAD ISZERO ISZERO JUMPDEST ISZERO PUSH2 0x12FA JUMPI PUSH1 0x0 PUSH1 0x2 PUSH1 0x0 PUSH1 0x3 PUSH1 0x0 DUP2 SLOAD DUP2 LT PUSH2 0x1015 JUMPI PUSH2 0x1015 PUSH2 0x1AEF JUMP JUMPDEST SWAP1 PUSH1 0x0 MSTORE PUSH1 0x20 PUSH1 0x0 KECCAK256 ADD SLOAD DUP2 MSTORE PUSH1 0x20 ADD SWAP1 DUP2 MSTORE PUSH1 0x20 ADD PUSH1 0x0 KECCAK256 SWAP1 POP PUSH1 0x0 PUSH1 0x2 PUSH1 0x0 PUSH1 0x4 PUSH1 0x0 DUP2 SLOAD DUP2 LT PUSH2 0x104A JUMPI PUSH2 0x104A PUSH2 0x1AEF JUMP JUMPDEST PUSH1 0x0 SWAP2 DUP3 MSTORE PUSH1 0x20 DUP1 DUP4 KECCAK256 SWAP1 SWAP2 ADD SLOAD DUP4 MSTORE DUP3 ADD SWAP3 SWAP1 SWAP3 MSTORE PUSH1 0x40 ADD SWAP1 KECCAK256 PUSH1 0x6 DUP4 ADD SLOAD SWAP1 SWAP2 POP PUSH1 0xFF AND PUSH2 0x1085 JUMPI PUSH2 0x107E PUSH1 0x0 PUSH2 0x18F8 JUMP JUMPDEST POP POP PUSH2 0xFE4 JUMP JUMPDEST PUSH1 0x6 DUP2 ADD SLOAD PUSH1 0xFF AND PUSH2 0x109B JUMPI PUSH2 0x107E PUSH1 0x0 PUSH2 0x15F7 JUMP JUMPDEST DUP1 PUSH1 0x2 ADD SLOAD DUP3 PUSH1 0x2 ADD SLOAD LT ISZERO PUSH2 0x10AF JUMPI POP POP JUMP JUMPDEST PUSH1 0x0 DUP3 PUSH1 0x4 ADD SLOAD DUP4 PUSH1 0x3 ADD SLOAD PUSH2 0x10C5 SWAP2 SWAP1 PUSH2 0x1ADC JUMP JUMPDEST SWAP1 POP PUSH1 0x0 DUP3 PUSH1 0x4 ADD SLOAD DUP4 PUSH1 0x3 ADD SLOAD PUSH2 0x10DD SWAP2 SWAP1 PUSH2 0x1ADC JUMP JUMPDEST SWAP1 POP DUP2 PUSH1 0x0 SUB PUSH2 0x10FA JUMPI PUSH2 0x10F1 PUSH1 0x0 PUSH2 0x18F8 JUMP JUMPDEST POP POP POP POP PUSH2 0xFE4 JUMP JUMPDEST DUP1 PUSH1 0x0 SUB PUSH2 0x110C JUMPI PUSH2 0x10F1 PUSH1 0x0 PUSH2 0x15F7 JUMP JUMPDEST PUSH1 0x0 DUP2 DUP4 LT PUSH2 0x111B JUMPI DUP2 PUSH2 0x111D JUMP JUMPDEST DUP3 JUMPDEST PUSH1 0x2 DUP6 ADD SLOAD SWAP1 SWAP2 POP PUSH1 0x0 PUSH2 0x1131 DUP4 DUP4 PUSH2 0xC03 JUMP JUMPDEST SWAP1 POP DUP3 DUP8 PUSH1 0x4 ADD PUSH1 0x0 DUP3 DUP3 SLOAD PUSH2 0x1147 SWAP2 SWAP1 PUSH2 0x1B1E JUMP JUMPDEST SWAP3 POP POP DUP2 SWAP1 SSTORE POP DUP3 DUP7 PUSH1 0x4 ADD PUSH1 0x0 DUP3 DUP3 SLOAD PUSH2 0x1162 SWAP2 SWAP1 PUSH2 0x1B1E JUMP JUMPDEST SWAP1 SWAP2 SSTORE POP POP PUSH1 0x1 DUP8 ADD SLOAD PUSH2 0x11A1 SWAP1 PUSH32 0x0 SWAP1 PUSH1 0x1 PUSH1 0x1 PUSH1 0xA0 SHL SUB AND DUP6 PUSH2 0x12FC JUMP JUMPDEST PUSH1 0x1 DUP7 ADD SLOAD PUSH2 0x11DB SWAP1 PUSH32 0x0 SWAP1 PUSH1 0x1 PUSH1 0x1 PUSH1 0xA0 SHL SUB AND DUP4 PUSH2 0x12FC JUMP JUMPDEST DUP7 PUSH1 0x3 ADD SLOAD DUP8 PUSH1 0x4 ADD SLOAD SUB PUSH2 0x1260 JUMPI PUSH1 0x0 PUSH2 0x11FE DUP9 PUSH1 0x3 ADD SLOAD DUP10 PUSH1 0x2 ADD SLOAD PUSH2 0xC03 JUMP JUMPDEST SWAP1 POP PUSH1 0x0 PUSH2 0x1210 DUP10 PUSH1 0x3 ADD SLOAD DUP6 PUSH2 0xC03 JUMP JUMPDEST SWAP1 POP DUP1 DUP3 GT ISZERO PUSH2 0x125D JUMPI PUSH1 0x1 DUP10 ADD SLOAD PUSH2 0x125D SWAP1 PUSH32 0x0 SWAP1 PUSH1 0x1 PUSH1 0x1 PUSH1 0xA0 SHL SUB AND PUSH2 0x1258 DUP5 DUP7 PUSH2 0x1ADC JUMP JUMPDEST PUSH2 0x12FC JUMP JUMPDEST POP POP JUMPDEST PUSH1 0x1 DUP3 DUP2 SSTORE DUP8 DUP2 ADD SLOAD SWAP1 DUP8 ADD SLOAD DUP8 SLOAD PUSH1 0x40 MLOAD PUSH1 0x1 PUSH1 0x1 PUSH1 0xA0 SHL SUB SWAP4 DUP5 AND SWAP4 SWAP1 SWAP3 AND SWAP2 PUSH32 0xEB7062411A6997E25EB45E7E1FB3C88CECBFA57B15D77307553B6BF937F108BA SWAP1 PUSH2 0x12B4 SWAP1 PUSH1 0x0 SWAP1 DUP9 SWAP1 DUP11 SWAP1 PUSH2 0x1AA7 JUMP JUMPDEST PUSH1 0x40 MLOAD DUP1 SWAP2 SUB SWAP1 LOG4 DUP7 PUSH1 0x3 ADD SLOAD DUP8 PUSH1 0x4 ADD SLOAD SUB PUSH2 0x12D5 JUMPI PUSH2 0x12D5 PUSH1 0x0 PUSH2 0x18F8 JUMP JUMPDEST DUP6 PUSH1 0x3 ADD SLOAD DUP7 PUSH1 0x4 ADD SLOAD SUB PUSH2 0x12EE JUMPI PUSH2 0x12EE PUSH1 0x0 PUSH2 0x15F7 JUMP JUMPDEST POP POP POP POP POP POP POP PUSH2 0xFE4 JUMP JUMPDEST JUMP JUMPDEST PUSH1 0x40 DUP1 MLOAD PUSH1 0x1 PUSH1 0x1 PUSH1 0xA0 SHL SUB DUP5 DUP2 AND PUSH1 0x24 DUP4 ADD MSTORE PUSH1 0x44 DUP1 DUP4 ADD DUP6 SWAP1 MSTORE DUP4 MLOAD DUP1 DUP5 SUB SWAP1 SWAP2 ADD DUP2 MSTORE PUSH1 0x64 SWAP1 SWAP3 ADD DUP4 MSTORE PUSH1 0x20 DUP3 ADD DUP1 MLOAD PUSH1 0x1 PUSH1 0x1 PUSH1 0xE0 SHL SUB AND PUSH4 0xA9059CBB PUSH1 0xE0 SHL OR SWAP1 MSTORE SWAP2 MLOAD PUSH1 0x0 SWAP3 DUP4 SWAP3 SWAP1 DUP8 AND SWAP2 PUSH2 0x1358 SWAP2 SWAP1 PUSH2 0x1B6A JUMP JUMPDEST PUSH1 0x0 PUSH1 0x40 MLOAD DUP1 DUP4 SUB DUP2 PUSH1 0x0 DUP7 GAS CALL SWAP2 POP POP RETURNDATASIZE DUP1 PUSH1 0x0 DUP2 EQ PUSH2 0x1395 JUMPI PUSH1 0x40 MLOAD SWAP2 POP PUSH1 0x1F NOT PUSH1 0x3F RETURNDATASIZE ADD AND DUP3 ADD PUSH1 0x40 MSTORE RETURNDATASIZE DUP3 MSTORE RETURNDATASIZE PUSH1 0x0 PUSH1 0x20 DUP5 ADD RETURNDATACOPY PUSH2 0x139A JUMP JUMPDEST PUSH1 0x60 SWAP2 POP JUMPDEST POP SWAP2 POP SWAP2 POP DUP2 ISZERO DUP1 PUSH2 0x13C8 JUMPI POP DUP1 MLOAD ISZERO DUP1 ISZERO SWAP1 PUSH2 0x13C8 JUMPI POP DUP1 DUP1 PUSH1 0x20 ADD SWAP1 MLOAD DUP2 ADD SWAP1 PUSH2 0x13C6 SWAP2 SWAP1 PUSH2 0x1B99 JUMP JUMPDEST ISZERO JUMPDEST ISZERO PUSH2 0x13E6 JUMPI PUSH1 0x40 MLOAD PUSH4 0x12171D83 PUSH1 0xE3 SHL DUP2 MSTORE PUSH1 0x4 ADD PUSH1 0x40 MLOAD DUP1 SWAP2 SUB SWAP1 REVERT JUMPDEST POP POP POP POP POP JUMP JUMPDEST DUP2 SLOAD PUSH1 0x0 JUMPDEST DUP2 DUP2 LT ISZERO PUSH2 0x14BD JUMPI DUP3 DUP5 DUP3 DUP2 SLOAD DUP2 LT PUSH2 0x140D JUMPI PUSH2 0x140D PUSH2 0x1AEF JUMP JUMPDEST SWAP1 PUSH1 0x0 MSTORE PUSH1 0x20 PUSH1 0x0 KECCAK256 ADD SLOAD SUB PUSH2 0x14B5 JUMPI DUP1 JUMPDEST DUP3 PUSH2 0x142B DUP3 PUSH1 0x1 PUSH2 0x1B1E JUMP JUMPDEST LT ISZERO PUSH2 0x1488 JUMPI DUP5 PUSH2 0x143D DUP3 PUSH1 0x1 PUSH2 0x1B1E JUMP JUMPDEST DUP2 SLOAD DUP2 LT PUSH2 0x144D JUMPI PUSH2 0x144D PUSH2 0x1AEF JUMP JUMPDEST SWAP1 PUSH1 0x0 MSTORE PUSH1 0x20 PUSH1 0x0 KECCAK256 ADD SLOAD DUP6 DUP3 DUP2 SLOAD DUP2 LT PUSH2 0x146A JUMPI PUSH2 0x146A PUSH2 0x1AEF JUMP JUMPDEST PUSH1 0x0 SWAP2 DUP3 MSTORE PUSH1 0x20 SWAP1 SWAP2 KECCAK256 ADD SSTORE DUP1 PUSH2 0x1480 DUP2 PUSH2 0x1B05 JUMP JUMPDEST SWAP2 POP POP PUSH2 0x141F JUMP JUMPDEST POP DUP4 DUP1 SLOAD DUP1 PUSH2 0x1499 JUMPI PUSH2 0x1499 PUSH2 0x1BD2 JUMP JUMPDEST PUSH1 0x1 SWAP1 SUB DUP2 DUP2 SWAP1 PUSH1 0x0 MSTORE PUSH1 0x20 PUSH1 0x0 KECCAK256 ADD PUSH1 0x0 SWAP1 SSTORE SWAP1 SSTORE POP POP POP POP JUMP JUMPDEST PUSH1 0x1 ADD PUSH2 0x13F2 JUMP JUMPDEST POP POP POP POP JUMP JUMPDEST PUSH1 0x0 DUP2 DUP2 MSTORE PUSH1 0x2 PUSH1 0x20 MSTORE PUSH1 0x40 DUP2 KECCAK256 PUSH1 0x4 DUP1 SLOAD PUSH1 0x1 DUP2 ADD DUP3 SSTORE SWAP3 MSTORE PUSH32 0x8A35ACFBC15FF81A39AE7D344FD709F28E8600B4AA8C65C6B64BFE7FE36BD19B DUP3 ADD DUP4 SWAP1 SSTORE SWAP1 DUP1 JUMPDEST DUP1 ISZERO PUSH2 0x15E3 JUMPI PUSH1 0x0 PUSH1 0x2 DUP2 PUSH1 0x4 PUSH2 0x151E PUSH1 0x1 DUP7 PUSH2 0x1ADC JUMP JUMPDEST DUP2 SLOAD DUP2 LT PUSH2 0x152E JUMPI PUSH2 0x152E PUSH2 0x1AEF JUMP JUMPDEST SWAP1 PUSH1 0x0 MSTORE PUSH1 0x20 PUSH1 0x0 KECCAK256 ADD SLOAD DUP2 MSTORE PUSH1 0x20 ADD SWAP1 DUP2 MSTORE PUSH1 0x20 ADD PUSH1 0x0 KECCAK256 SWAP1 POP PUSH1 0x0 DUP2 PUSH1 0x2 ADD SLOAD DUP6 PUSH1 0x2 ADD SLOAD LT DUP1 PUSH2 0x157A JUMPI POP DUP2 PUSH1 0x2 ADD SLOAD DUP6 PUSH1 0x2 ADD SLOAD EQ DUP1 ISZERO PUSH2 0x157A JUMPI POP DUP2 PUSH1 0x5 ADD SLOAD DUP6 PUSH1 0x5 ADD SLOAD LT JUMPDEST SWAP1 POP DUP1 PUSH2 0x1588 JUMPI POP POP PUSH2 0x15E3 JUMP JUMPDEST PUSH1 0x4 PUSH2 0x1595 PUSH1 0x1 DUP6 PUSH2 0x1ADC JUMP JUMPDEST DUP2 SLOAD DUP2 LT PUSH2 0x15A5 JUMPI PUSH2 0x15A5 PUSH2 0x1AEF JUMP JUMPDEST SWAP1 PUSH1 0x0 MSTORE PUSH1 0x20 PUSH1 0x0 KECCAK256 ADD SLOAD PUSH1 0x4 DUP5 DUP2 SLOAD DUP2 LT PUSH2 0x15C3 JUMPI PUSH2 0x15C3 PUSH2 0x1AEF JUMP JUMPDEST PUSH1 0x0 SWAP2 DUP3 MSTORE PUSH1 0x20 SWAP1 SWAP2 KECCAK256 ADD SSTORE DUP3 PUSH2 0x15D9 DUP2 PUSH2 0x1BBB JUMP JUMPDEST SWAP4 POP POP POP POP PUSH2 0x1506 JUMP JUMPDEST DUP4 PUSH1 0x4 DUP3 DUP2 SLOAD DUP2 LT PUSH2 0xFD2 JUMPI PUSH2 0xFD2 PUSH2 0x1AEF JUMP JUMPDEST PUSH1 0x0 PUSH1 0x4 DUP3 DUP2 SLOAD DUP2 LT PUSH2 0x160C JUMPI PUSH2 0x160C PUSH2 0x1AEF JUMP JUMPDEST PUSH1 0x0 SWAP2 DUP3 MSTORE PUSH1 0x20 DUP1 DUP4 KECCAK256 SWAP1 SWAP2 ADD SLOAD DUP1 DUP4 MSTORE PUSH1 0x2 SWAP1 SWAP2 MSTORE PUSH1 0x40 SWAP1 SWAP2 KECCAK256 PUSH1 0x6 ADD DUP1 SLOAD PUSH1 0xFF NOT AND SWAP1 SSTORE SWAP1 POP PUSH2 0x163F PUSH1 0x4 DUP3 PUSH2 0x13ED JUMP JUMPDEST POP POP JUMP JUMPDEST PUSH1 0x0 PUSH2 0x166E PUSH32 0x0 PUSH2 0x1940 JUMP JUMPDEST PUSH2 0x1678 SWAP1 DUP4 PUSH2 0x1B31 JUMP JUMPDEST PUSH2 0x16A1 PUSH32 0x0 PUSH2 0x1940 JUMP JUMPDEST PUSH2 0xC73 PUSH8 0xDE0B6B3A7640000 DUP7 PUSH2 0x1B31 JUMP JUMPDEST PUSH1 0x60 DUP1 DUP3 PUSH8 0xFFFFFFFFFFFFFFFF DUP2 GT ISZERO PUSH2 0x16CF JUMPI PUSH2 0x16CF PUSH2 0x1BE8 JUMP JUMPDEST PUSH1 0x40 MLOAD SWAP1 DUP1 DUP3 MSTORE DUP1 PUSH1 0x20 MUL PUSH1 0x20 ADD DUP3 ADD PUSH1 0x40 MSTORE DUP1 ISZERO PUSH2 0x16F8 JUMPI DUP2 PUSH1 0x20 ADD PUSH1 0x20 DUP3 MUL DUP1 CALLDATASIZE DUP4 CALLDATACOPY ADD SWAP1 POP JUMPDEST POP SWAP2 POP DUP3 PUSH8 0xFFFFFFFFFFFFFFFF DUP2 GT ISZERO PUSH2 0x1714 JUMPI PUSH2 0x1714 PUSH2 0x1BE8 JUMP JUMPDEST PUSH1 0x40 MLOAD SWAP1 DUP1 DUP3 MSTORE DUP1 PUSH1 0x20 MUL PUSH1 0x20 ADD DUP3 ADD PUSH1 0x40 MSTORE DUP1 ISZERO PUSH2 0x173D JUMPI DUP2 PUSH1 0x20 ADD PUSH1 0x20 DUP3 MUL DUP1 CALLDATASIZE DUP4 CALLDATACOPY ADD SWAP1 POP JUMPDEST POP SWAP1 POP PUSH1 0x0 DUP1 JUMPDEST DUP6 SLOAD DUP2 LT DUP1 ISZERO PUSH2 0x1753 JUMPI POP DUP5 DUP3 LT JUMPDEST ISZERO PUSH2 0x18EF JUMPI PUSH1 0x0 PUSH1 0x2 PUSH1 0x0 DUP9 DUP5 DUP2 SLOAD DUP2 LT PUSH2 0x1770 JUMPI PUSH2 0x1770 PUSH2 0x1AEF JUMP JUMPDEST PUSH1 0x0 SWAP2 DUP3 MSTORE PUSH1 0x20 DUP1 DUP4 KECCAK256 SWAP1 SWAP2 ADD SLOAD DUP4 MSTORE DUP3 ADD SWAP3 SWAP1 SWAP3 MSTORE PUSH1 0x40 ADD SWAP1 KECCAK256 PUSH1 0x6 DUP2 ADD SLOAD SWAP1 SWAP2 POP PUSH1 0xFF AND PUSH2 0x17AD JUMPI DUP2 PUSH2 0x17A4 DUP2 PUSH2 0x1B05 JUMP JUMPDEST SWAP3 POP POP POP PUSH2 0x1744 JUMP JUMPDEST PUSH1 0x0 DUP2 PUSH1 0x4 ADD SLOAD DUP3 PUSH1 0x3 ADD SLOAD PUSH2 0x17C3 SWAP2 SWAP1 PUSH2 0x1ADC JUMP JUMPDEST SWAP1 POP DUP1 PUSH1 0x0 SUB PUSH2 0x17E1 JUMPI DUP3 PUSH2 0x17D7 DUP2 PUSH2 0x1B05 JUMP JUMPDEST SWAP4 POP POP POP POP PUSH2 0x1744 JUMP JUMPDEST PUSH1 0x2 DUP3 ADD SLOAD PUSH1 0x0 DUP5 JUMPDEST DUP11 SLOAD DUP2 LT ISZERO PUSH2 0x1898 JUMPI PUSH1 0x0 PUSH1 0x2 PUSH1 0x0 DUP14 DUP5 DUP2 SLOAD DUP2 LT PUSH2 0x180B JUMPI PUSH2 0x180B PUSH2 0x1AEF JUMP JUMPDEST PUSH1 0x0 SWAP2 DUP3 MSTORE PUSH1 0x20 DUP1 DUP4 KECCAK256 SWAP1 SWAP2 ADD SLOAD DUP4 MSTORE DUP3 ADD SWAP3 SWAP1 SWAP3 MSTORE PUSH1 0x40 ADD SWAP1 KECCAK256 PUSH1 0x6 DUP2 ADD SLOAD SWAP1 SWAP2 POP PUSH1 0xFF AND PUSH2 0x1848 JUMPI DUP2 PUSH2 0x183F DUP2 PUSH2 0x1B05 JUMP JUMPDEST SWAP3 POP POP POP PUSH2 0x17EA JUMP JUMPDEST DUP4 DUP2 PUSH1 0x2 ADD SLOAD EQ PUSH2 0x1859 JUMPI POP PUSH2 0x1898 JUMP JUMPDEST PUSH1 0x0 DUP2 PUSH1 0x4 ADD SLOAD DUP3 PUSH1 0x3 ADD SLOAD PUSH2 0x186F SWAP2 SWAP1 PUSH2 0x1ADC JUMP JUMPDEST SWAP1 POP DUP1 ISZERO PUSH2 0x1884 JUMPI PUSH2 0x1881 DUP2 DUP6 PUSH2 0x1B1E JUMP JUMPDEST SWAP4 POP JUMPDEST DUP3 PUSH2 0x188E DUP2 PUSH2 0x1B05 JUMP JUMPDEST SWAP4 POP POP POP POP PUSH2 0x17EA JUMP JUMPDEST DUP3 DUP10 DUP9 DUP2 MLOAD DUP2 LT PUSH2 0x18AB JUMPI PUSH2 0x18AB PUSH2 0x1AEF JUMP JUMPDEST PUSH1 0x20 MUL PUSH1 0x20 ADD ADD DUP2 DUP2 MSTORE POP POP DUP2 DUP9 DUP9 DUP2 MLOAD DUP2 LT PUSH2 0x18CA JUMPI PUSH2 0x18CA PUSH2 0x1AEF JUMP JUMPDEST PUSH1 0x20 SWAP1 DUP2 MUL SWAP2 SWAP1 SWAP2 ADD ADD MSTORE DUP7 PUSH2 0x18DF DUP2 PUSH2 0x1B05 JUMP JUMPDEST SWAP8 POP POP DUP1 SWAP6 POP POP POP POP POP POP PUSH2 0x1744 JUMP JUMPDEST POP POP SWAP3 POP SWAP3 SWAP1 POP JUMP JUMPDEST PUSH1 0x0 PUSH1 0x3 DUP3 DUP2 SLOAD DUP2 LT PUSH2 0x190D JUMPI PUSH2 0x190D PUSH2 0x1AEF JUMP JUMPDEST PUSH1 0x0 SWAP2 DUP3 MSTORE PUSH1 0x20 DUP1 DUP4 KECCAK256 SWAP1 SWAP2 ADD SLOAD DUP1 DUP4 MSTORE PUSH1 0x2 SWAP1 SWAP2 MSTORE PUSH1 0x40 SWAP1 SWAP2 KECCAK256 PUSH1 0x6 ADD DUP1 SLOAD PUSH1 0xFF NOT AND SWAP1 SSTORE SWAP1 POP PUSH2 0x163F PUSH1 0x3 DUP3 PUSH2 0x13ED JUMP JUMPDEST PUSH1 0x0 PUSH2 0x6C8 PUSH1 0xFF DUP4 AND PUSH1 0xA PUSH2 0x1CE5 JUMP JUMPDEST PUSH1 0x0 DUP1 PUSH1 0x40 DUP4 DUP6 SUB SLT ISZERO PUSH2 0x1963 JUMPI PUSH1 0x0 DUP1 REVERT JUMPDEST POP POP DUP1 CALLDATALOAD SWAP3 PUSH1 0x20 SWAP1 SWAP2 ADD CALLDATALOAD SWAP2 POP JUMP JUMPDEST PUSH1 0x0 PUSH1 0x20 DUP3 DUP5 SUB SLT ISZERO PUSH2 0x1984 JUMPI PUSH1 0x0 DUP1 REVERT JUMPDEST POP CALLDATALOAD SWAP2 SWAP1 POP JUMP JUMPDEST PUSH1 0x0 DUP2 MLOAD DUP1 DUP5 MSTORE PUSH1 0x20 DUP5 ADD SWAP4 POP PUSH1 0x20 DUP4 ADD PUSH1 0x0 JUMPDEST DUP3 DUP2 LT ISZERO PUSH2 0x19BD JUMPI DUP2 MLOAD DUP7 MSTORE PUSH1 0x20 SWAP6 DUP7 ADD SWAP6 SWAP1 SWAP2 ADD SWAP1 PUSH1 0x1 ADD PUSH2 0x199F JUMP JUMPDEST POP SWAP4 SWAP5 SWAP4 POP POP POP POP JUMP JUMPDEST PUSH1 0x80 DUP2 MSTORE PUSH1 0x0 PUSH2 0x19DA PUSH1 0x80 DUP4 ADD DUP8 PUSH2 0x198B JUMP JUMPDEST DUP3 DUP2 SUB PUSH1 0x20 DUP5 ADD MSTORE PUSH2 0x19EC DUP2 DUP8 PUSH2 0x198B JUMP JUMPDEST SWAP1 POP DUP3 DUP2 SUB PUSH1 0x40 DUP5 ADD MSTORE PUSH2 0x1A00 DUP2 DUP7 PUSH2 0x198B JUMP JUMPDEST SWAP1 POP DUP3 DUP2 SUB PUSH1 0x60 DUP5 ADD MSTORE PUSH2 0x1A14 DUP2 DUP6 PUSH2 0x198B JUMP JUMPDEST SWAP8 SWAP7 POP POP POP POP POP POP POP JUMP JUMPDEST PUSH4 0x4E487B71 PUSH1 0xE0 SHL PUSH1 0x0 MSTORE PUSH1 0x21 PUSH1 0x4 MSTORE PUSH1 0x24 PUSH1 0x0 REVERT JUMPDEST PUSH1 0x2 DUP2 LT PUSH2 0x1A53 JUMPI PUSH4 0x4E487B71 PUSH1 0xE0 SHL PUSH1 0x0 MSTORE PUSH1 0x21 PUSH1 0x4 MSTORE PUSH1 0x24 PUSH1 0x0 REVERT JUMPDEST SWAP1 MSTORE JUMP JUMPDEST DUP9 DUP2 MSTORE PUSH1 0x1 PUSH1 0x1 PUSH1 0xA0 SHL SUB DUP9 AND PUSH1 0x20 DUP3 ADD MSTORE PUSH2 0x100 DUP2 ADD PUSH2 0x1A7B PUSH1 0x40 DUP4 ADD DUP10 PUSH2 0x1A35 JUMP JUMPDEST PUSH1 0x60 DUP3 ADD SWAP7 SWAP1 SWAP7 MSTORE PUSH1 0x80 DUP2 ADD SWAP5 SWAP1 SWAP5 MSTORE PUSH1 0xA0 DUP5 ADD SWAP3 SWAP1 SWAP3 MSTORE PUSH1 0xC0 DUP4 ADD MSTORE ISZERO ISZERO PUSH1 0xE0 SWAP1 SWAP2 ADD MSTORE SWAP4 SWAP3 POP POP POP JUMP JUMPDEST PUSH1 0x60 DUP2 ADD PUSH2 0x1AB5 DUP3 DUP7 PUSH2 0x1A35 JUMP JUMPDEST PUSH1 0x20 DUP3 ADD SWAP4 SWAP1 SWAP4 MSTORE PUSH1 0x40 ADD MSTORE SWAP2 SWAP1 POP JUMP JUMPDEST PUSH4 0x4E487B71 PUSH1 0xE0 SHL PUSH1 0x0 MSTORE PUSH1 0x11 PUSH1 0x4 MSTORE PUSH1 0x24 PUSH1 0x0 REVERT JUMPDEST DUP2 DUP2 SUB DUP2 DUP2 GT ISZERO PUSH2 0x6C8 JUMPI PUSH2 0x6C8 PUSH2 0x1AC6 JUMP JUMPDEST PUSH4 0x4E487B71 PUSH1 0xE0 SHL PUSH1 0x0 MSTORE PUSH1 0x32 PUSH1 0x4 MSTORE PUSH1 0x24 PUSH1 0x0 REVERT JUMPDEST PUSH1 0x0 PUSH1 0x1 DUP3 ADD PUSH2 0x1B17 JUMPI PUSH2 0x1B17 PUSH2 0x1AC6 JUMP JUMPDEST POP PUSH1 0x1 ADD SWAP1 JUMP JUMPDEST DUP1 DUP3 ADD DUP1 DUP3 GT ISZERO PUSH2 0x6C8 JUMPI PUSH2 0x6C8 PUSH2 0x1AC6 JUMP JUMPDEST DUP1 DUP3 MUL DUP2 ISZERO DUP3 DUP3 DIV DUP5 EQ OR PUSH2 0x6C8 JUMPI PUSH2 0x6C8 PUSH2 0x1AC6 JUMP JUMPDEST PUSH1 0x0 DUP3 PUSH2 0x1B65 JUMPI PUSH4 0x4E487B71 PUSH1 0xE0 SHL PUSH1 0x0 MSTORE PUSH1 0x12 PUSH1 0x4 MSTORE PUSH1 0x24 PUSH1 0x0 REVERT JUMPDEST POP DIV SWAP1 JUMP JUMPDEST PUSH1 0x0 DUP3 MLOAD PUSH1 0x0 JUMPDEST DUP2 DUP2 LT ISZERO PUSH2 0x1B8B JUMPI PUSH1 0x20 DUP2 DUP7 ADD DUP2 ADD MLOAD DUP6 DUP4 ADD MSTORE ADD PUSH2 0x1B71 JUMP JUMPDEST POP PUSH1 0x0 SWAP3 ADD SWAP2 DUP3 MSTORE POP SWAP2 SWAP1 POP JUMP JUMPDEST PUSH1 0x0 PUSH1 0x20 DUP3 DUP5 SUB SLT ISZERO PUSH2 0x1BAB JUMPI PUSH1 0x0 DUP1 REVERT JUMPDEST DUP2 MLOAD DUP1 ISZERO ISZERO DUP2 EQ PUSH2 0xC87 JUMPI PUSH1 0x0 DUP1 REVERT JUMPDEST PUSH1 0x0 DUP2 PUSH2 0x1BCA JUMPI PUSH2 0x1BCA PUSH2 0x1AC6 JUMP JUMPDEST POP PUSH1 0x0 NOT ADD SWAP1 JUMP JUMPDEST PUSH4 0x4E487B71 PUSH1 0xE0 SHL PUSH1 0x0 MSTORE PUSH1 0x31 PUSH1 0x4 MSTORE PUSH1 0x24 PUSH1 0x0 REVERT JUMPDEST PUSH4 0x4E487B71 PUSH1 0xE0 SHL PUSH1 0x0 MSTORE PUSH1 0x41 PUSH1 0x4 MSTORE PUSH1 0x24 PUSH1 0x0 REVERT JUMPDEST PUSH1 0x1 DUP2 JUMPDEST PUSH1 0x1 DUP5 GT ISZERO PUSH2 0x1C39 JUMPI DUP1 DUP6 DIV DUP2 GT ISZERO PUSH2 0x1C1D JUMPI PUSH2 0x1C1D PUSH2 0x1AC6 JUMP JUMPDEST PUSH1 0x1 DUP5 AND ISZERO PUSH2 0x1C2B JUMPI SWAP1 DUP2 MUL SWAP1 JUMPDEST PUSH1 0x1 SWAP4 SWAP1 SWAP4 SHR SWAP3 DUP1 MUL PUSH2 0x1C02 JUMP JUMPDEST SWAP4 POP SWAP4 SWAP2 POP POP JUMP JUMPDEST PUSH1 0x0 DUP3 PUSH2 0x1C50 JUMPI POP PUSH1 0x1 PUSH2 0x6C8 JUMP JUMPDEST DUP2 PUSH2 0x1C5D JUMPI POP PUSH1 0x0 PUSH2 0x6C8 JUMP JUMPDEST DUP2 PUSH1 0x1 DUP2 EQ PUSH2 0x1C73 JUMPI PUSH1 0x2 DUP2 EQ PUSH2 0x1C7D JUMPI PUSH2 0x1C99 JUMP JUMPDEST PUSH1 0x1 SWAP2 POP POP PUSH2 0x6C8 JUMP JUMPDEST PUSH1 0xFF DUP5 GT ISZERO PUSH2 0x1C8E JUMPI PUSH2 0x1C8E PUSH2 0x1AC6 JUMP JUMPDEST POP POP PUSH1 0x1 DUP3 SHL PUSH2 0x6C8 JUMP JUMPDEST POP PUSH1 0x20 DUP4 LT PUSH2 0x133 DUP4 LT AND PUSH1 0x4E DUP5 LT PUSH1 0xB DUP5 LT AND OR ISZERO PUSH2 0x1CBC JUMPI POP DUP2 DUP2 EXP PUSH2 0x6C8 JUMP JUMPDEST PUSH2 0x1CC9 PUSH1 0x0 NOT DUP5 DUP5 PUSH2 0x1BFE JUMP JUMPDEST DUP1 PUSH1 0x0 NOT DIV DUP3 GT ISZERO PUSH2 0x1CDD JUMPI PUSH2 0x1CDD PUSH2 0x1AC6 JUMP JUMPDEST MUL SWAP4 SWAP3 POP POP POP JUMP JUMPDEST PUSH1 0x0 PUSH2 0xC87 DUP4 DUP4 PUSH2 0x1C41 JUMP INVALID LOG2 PUSH5 0x6970667358 0x22 SLT KECCAK256 0xE5 0xC3 0xF6 0x29 0xC3 0x4E BLOBHASH MSTORE SWAP2 0x4E DUP1 BASEFEE PUSH19 0x3B548537B22B5A9CDC6E9B909F5BCC47AED4FB PUSH5 0x736F6C6343 STOP ADDMOD SHR STOP CALLER "
        },
        "methodIdentifiers": {
          "PRICE_SCALE()": "c33f59d3",
          "askIds(uint256)": "43eb749a",
          "baseDecimals()": "33f76178",
          "baseToken()": "c55dae63",
          "bidIds(uint256)": "ec3e4e6f",
          "cancelOrder(uint256)": "514fcac7",
          "getLastPrice()": "d8cf24fd",
          "getOrderBookDepth(uint256)": "961d537f",
          "lastTradePrice()": "df449cb8",
          "limitBuy(uint256,uint256)": "1a74df19",
          "limitSell(uint256,uint256)": "8ed6910f",
          "marketBuy(uint256)": "8fb84bb0",
          "marketSell(uint256)": "db0c9a02",
          "nextOrderId()": "2a58b330",
          "orders(uint256)": "a85c38ef",
          "quoteDecimals()": "3fd1e2bd",
          "quoteToken()": "217a4b70"
        }
      }
    }
  }
}