{
  "_format": "hh-sol-artifact-1",
  "contractName": "SinglePairOrderBookDEX",
  "sourceName": "contracts/SinglePairOrderBookDEX.sol",
  "abi": [
    {
      "inputs": [
        {
          "internalType": "address",
          "name": "_base",
          "type": "address"
        },
        {
          "internalType": "address",
          "name": "_quote",
          "type": "address"
        }
      ],
      "stateMutability": "nonpayable",
      "type": "constructor"
    },
    {
      "inputs": [],
      "name": "InsufficientLiquidity",
      "type": "error"
    },
    {
      "inputs": [],
      "name": "InvalidAmount",
      "type": "error"
    },
    {
      "inputs": [],
      "name": "InvalidPrice",
      "type": "error"
    },
    {
      "inputs": [],
      "name": "NotActive",
      "type": "error"
    },
    {
      "inputs": [],
      "name": "NotOwner",
      "type": "error"
    },
    {
      "inputs": [],
      "name": "TransferFailed",
      "type": "error"
    },
    {
      "anonymous": false,
      "inputs": [
        {
          "indexed": true,
          "internalType": "uint256",
          "name": "orderId",
          "type": "uint256"
        },
        {
          "indexed": true,
          "internalType": "address",
          "name": "trader",
          "type": "address"
        },
        {
          "indexed": false,
          "internalType": "enum SinglePairOrderBookDEX.Side",
          "name": "side",
          "type": "uint8"
        },
        {
          "indexed": false,
          "internalType": "uint256",
          "name": "price",
          "type": "uint256"
        },
        {
          "indexed": false,
          "internalType": "uint256",
          "name": "amountBase",
          "type": "uint256"
        }
      ],
      "name": "LimitOrderPlaced",
      "type": "event"
    },
    {
      "anonymous": false,
      "inputs": [
        {
          "indexed": true,
          "internalType": "uint256",
          "name": "orderId",
          "type": "uint256"
        },
        {
          "indexed": true,
          "internalType": "address",
          "name": "trader",
          "type": "address"
        }
      ],
      "name": "OrderCancelled",
      "type": "event"
    },
    {
      "anonymous": false,
      "inputs": [
        {
          "indexed": true,
          "internalType": "uint256",
          "name": "makerOrderId",
          "type": "uint256"
        },
        {
          "indexed": true,
          "internalType": "address",
          "name": "maker",
          "type": "address"
        },
        {
          "indexed": true,
          "internalType": "address",
          "name": "taker",
          "type": "address"
        },
        {
          "indexed": false,
          "internalType": "enum SinglePairOrderBookDEX.Side",
          "name": "takerSide",
          "type": "uint8"
        },
        {
          "indexed": false,
          "internalType": "uint256",
          "name": "price",
          "type": "uint256"
        },
        {
          "indexed": false,
          "internalType": "uint256",
          "name": "amountBase",
          "type": "uint256"
        }
      ],
      "name": "Trade",
      "type": "event"
    },
    {
      "inputs": [],
      "name": "PRICE_SCALE",
      "outputs": [
        {
          "internalType": "uint256",
          "name": "",
          "type": "uint256"
        }
      ],
      "stateMutability": "view",
      "type": "function"
    },
    {
      "inputs": [
        {
          "internalType": "uint256",
          "name": "",
          "type": "uint256"
        }
      ],
      "name": "askIds",
      "outputs": [
        {
          "internalType": "uint256",
          "name": "",
          "type": "uint256"
        }
      ],
      "stateMutability": "view",
      "type": "function"
    },
    {
      "inputs": [],
      "name": "baseToken",
      "outputs": [
        {
          "internalType": "contract IERC20",
          "name": "",
          "type": "address"
        }
      ],
      "stateMutability": "view",
      "type": "function"
    },
    {
      "inputs": [
        {
          "internalType": "uint256",
          "name": "",
          "type": "uint256"
        }
      ],
      "name": "bidIds",
      "outputs": [
        {
          "internalType": "uint256",
          "name": "",
          "type": "uint256"
        }
      ],
      "stateMutability": "view",
      "type": "function"
    },
    {
      "inputs": [
        {
          "internalType": "uint256",
          "name": "orderId",
          "type": "uint256"
        }
      ],
      "name": "cancelOrder",
      "outputs": [],
      "stateMutability": "nonpayable",
      "type": "function"
    },
    {
      "inputs": [],
      "name": "getLastPrice",
      "outputs": [
        {
          "internalType": "uint256",
          "name": "",
          "type": "uint256"
        }
      ],
      "stateMutability": "view",
      "type": "function"
    },
    {
      "inputs": [
        {
          "internalType": "uint256",
          "name": "topN",
          "type": "uint256"
        }
      ],
      "name": "getOrderBookDepth",
      "outputs": [
        {
          "internalType": "uint256[]",
          "name": "",
          "type": "uint256[]"
        },
        {
          "internalType": "uint256[]",
          "name": "",
          "type": "uint256[]"
        },
        {
          "internalType": "uint256[]",
          "name": "",
          "type": "uint256[]"
        },
        {
          "internalType": "uint256[]",
          "name": "",
          "type": "uint256[]"
        }
      ],
      "stateMutability": "view",
      "type": "function"
    },
    {
      "inputs": [],
      "name": "lastTradePrice",
      "outputs": [
        {
          "internalType": "uint256",
          "name": "",
          "type": "uint256"
        }
      ],
      "stateMutability": "view",
      "type": "function"
    },
    {
      "inputs": [
        {
          "internalType": "uint256",
          "name": "price",
          "type": "uint256"
        },
        {
          "internalType": "uint256",
          "name": "amountBase",
          "type": "uint256"
        }
      ],
      "name": "limitBuy",
      "outputs": [
        {
          "internalType": "uint256",
          "name": "orderId",
          "type": "uint256"
        }
      ],
      "stateMutability": "nonpayable",
      "type": "function"
    },
    {
      "inputs": [
        {
          "internalType": "uint256",
          "name": "price",
          "type": "uint256"
        },
        {
          "internalType": "uint256",
          "name": "amountBase",
          "type": "uint256"
        }
      ],
      "name": "limitSell",
      "outputs": [
        {
          "internalType": "uint256",
          "name": "orderId",
          "type": "uint256"
        }
      ],
      "stateMutability": "nonpayable",
      "type": "function"
    },
    {
      "inputs": [
        {
          "internalType": "uint256",
          "name": "maxQuoteIn",
          "type": "uint256"
        }
      ],
      "name": "marketBuy",
      "outputs": [],
      "stateMutability": "nonpayable",
      "type": "function"
    },
    {
      "inputs": [
        {
          "internalType": "uint256",
          "name": "amountBase",
          "type": "uint256"
        }
      ],
      "name": "marketSell",
      "outputs": [],
      "stateMutability": "nonpayable",
      "type": "function"
    },
    {
      "inputs": [],
      "name": "nextOrderId",
      "outputs": [
        {
          "internalType": "uint256",
          "name": "",
          "type": "uint256"
        }
      ],
      "stateMutability": "view",
      "type": "function"
    },
    {
      "inputs": [
        {
          "internalType": "uint256",
          "name": "",
          "type": "uint256"
        }
      ],
      "name": "orders",
      "outputs": [
        {
          "internalType": "uint256",
          "name": "id",
          "type": "uint256"
        },
        {
          "internalType": "address",
          "name": "trader",
          "type": "address"
        },
        {
          "internalType": "enum SinglePairOrderBookDEX.Side",
          "name": "side",
          "type": "uint8"
        },
        {
          "internalType": "uint256",
          "name": "price",
          "type": "uint256"
        },
        {
          "internalType": "uint256",
          "name": "amountBase",
          "type": "uint256"
        },
        {
          "internalType": "uint256",
          "name": "filledBase",
          "type": "uint256"
        },
        {
          "internalType": "uint256",
          "name": "timestamp",
          "type": "uint256"
        },
        {
          "internalType": "bool",
          "name": "active",
          "type": "bool"
        }
      ],
      "stateMutability": "view",
      "type": "function"
    },
    {
      "inputs": [],
      "name": "quoteToken",
      "outputs": [
        {
          "internalType": "contract IERC20",
          "name": "",
          "type": "address"
        }
      ],
      "stateMutability": "view",
      "type": "function"
    }
  ],
  "bytecode": "0x60c0604052600160005534801561001557600080fd5b50604051611c85380380611c8583398101604081905261003491610067565b6001600160a01b039182166080521660a05261009a565b80516001600160a01b038116811461006257600080fd5b919050565b6000806040838503121561007a57600080fd5b6100838361004b565b91506100916020840161004b565b90509250929050565b60805160a051611b5d6101286000396000818161012501528181610342015281816104da015281816106a6015281816108390152818161090101528181610ac20152818161112401526111c701526000818161025f0152818161050b015281816105ed015281816108080152818161099701528181610af301528181610bbd01526110ea0152611b5d6000f3fe608060405234801561001057600080fd5b50600436106100f55760003560e01c8063961d537f11610097578063d8cf24fd11610066578063d8cf24fd14610281578063db0c9a0214610289578063df449cb81461029c578063ec3e4e6f146102a557600080fd5b8063961d537f146101b6578063a85c38ef146101d9578063c33f59d31461024b578063c55dae631461025a57600080fd5b806343eb749a116100d357806343eb749a14610168578063514fcac71461017b5780638ed6910f146101905780638fb84bb0146101a357600080fd5b80631a74df19146100fa578063217a4b70146101205780632a58b3301461015f575b600080fd5b61010d610108366004611872565b6102b8565b6040519081526020015b60405180910390f35b6101477f000000000000000000000000000000000000000000000000000000000000000081565b6040516001600160a01b039091168152602001610117565b61010d60005481565b61010d610176366004611894565b6103d6565b61018e610189366004611894565b6103f7565b005b61010d61019e366004611872565b6105a5565b61018e6101b1366004611894565b610680565b6101c96101c4366004611894565b61092c565b60405161011794939291906118e9565b6102376101e7366004611894565b6002602081905260009182526040909120805460018201549282015460038301546004840154600585015460069095015493956001600160a01b03811695600160a01b90910460ff908116951688565b604051610117989796959493929190611979565b61010d670de0b6b3a764000081565b6101477f000000000000000000000000000000000000000000000000000000000000000081565b60015461010d565b61018e610297366004611894565b610971565b61010d60015481565b61010d6102b3366004611894565b610be3565b6000826000036102da5760405162bfc92160e01b815260040160405180910390fd5b816000036102fb5760405163162908e360e11b815260040160405180910390fd5b6000670de0b6b3a764000061031085856119df565b61031a91906119f6565b90508060000361033d5760405163162908e360e11b815260040160405180910390fd5b6103697f0000000000000000000000000000000000000000000000000000000000000000333084610bf3565b61037560008585610ced565b915061038082610e03565b336001600160a01b0316827fbfa7375f10629d29376d04eeba251f3e7db963fab0091a92b799fdd4b35562ab600087876040516103bf93929190611a18565b60405180910390a36103cf610f49565b5092915050565b600481815481106103e657600080fd5b600091825260209091200154905081565b6000818152600260205260409020600681015460ff1661042a57604051634065aaf160e11b815260040160405180910390fd5b60018101546001600160a01b03163314610457576040516330cd747160e01b815260040160405180910390fd5b60068101805460ff191690556004810154600382015460009161047991611a37565b90508015610531576000600183810154600160a01b900460ff16908111156104a3576104a3611941565b03610506576000670de0b6b3a76400008360020154836104c391906119df565b6104cd91906119f6565b90508015610500576105007f0000000000000000000000000000000000000000000000000000000000000000338361129e565b50610531565b6105317f0000000000000000000000000000000000000000000000000000000000000000338361129e565b6000600183810154600160a01b900460ff169081111561055357610553611941565b036105685761056360038461138f565b610573565b61057360048461138f565b604051339084907fc0362da6f2ff36b382b34aec0814f6b3cdf89f5ef282a1d1f114d0c0b036d59690600090a3505050565b6000826000036105c75760405162bfc92160e01b815260040160405180910390fd5b816000036105e85760405163162908e360e11b815260040160405180910390fd5b6106147f0000000000000000000000000000000000000000000000000000000000000000333085610bf3565b61062060018484610ced565b905061062b81611465565b336001600160a01b0316817fbfa7375f10629d29376d04eeba251f3e7db963fab0091a92b799fdd4b35562ab6001868660405161066a93929190611a18565b60405180910390a361067a610f49565b92915050565b806000036106a15760405163162908e360e11b815260040160405180910390fd5b6106cd7f0000000000000000000000000000000000000000000000000000000000000000333084610bf3565b8060005b600454811080156106e25750600082115b156108f6576000600482815481106106fc576106fc611a4a565b60009182526020808320909101548083526002909152604090912060068101549192509060ff1661073b578261073181611a60565b93505050506106d1565b6000816004015482600301546107519190611a37565b90508060000361076c5761076484611599565b5050506106d1565b6002820154600090610786670de0b6b3a7640000886119df565b61079091906119f6565b9050806000036107a357505050506108f6565b60008282106107b257826107b4565b815b90506000670de0b6b3a76400008560020154836107d191906119df565b6107db91906119f6565b9050818560040160008282546107f19190611a79565b9091555061080190508189611a37565b975061082e7f0000000000000000000000000000000000000000000000000000000000000000338461129e565b6001850154610868907f0000000000000000000000000000000000000000000000000000000000000000906001600160a01b03168361129e565b60028501546001818155860154865460405133936001600160a01b03909316927feb7062411a6997e25eb45e7e1fb3c88cecbfa57b15d77307553b6bf937f108ba916108b8916000918990611a18565b60405180910390a484600301548560040154036108dd576108d887611599565b6108eb565b866108e781611a60565b9750505b5050505050506106d1565b8115610927576109277f0000000000000000000000000000000000000000000000000000000000000000338461129e565b505050565b6060806060808460000361093f57600a94505b60008061094d6003886115e5565b9150915060008061095f60048a6115e5565b949a9399509750929550909350505050565b806000036109925760405163162908e360e11b815260040160405180910390fd5b6109be7f0000000000000000000000000000000000000000000000000000000000000000333084610bf3565b8060005b600354811080156109d35750600082115b15610bb2576000600382815481106109ed576109ed611a4a565b60009182526020808320909101548083526002909152604090912060068101549192509060ff16610a2c5782610a2281611a60565b93505050506109c2565b600081600401548260030154610a429190611a37565b905080600003610a5d57610a558461182a565b5050506109c2565b6000818610610a6c5781610a6e565b855b90506000670de0b6b3a7640000846002015483610a8b91906119df565b610a9591906119f6565b905081846004016000828254610aab9190611a79565b90915550610abb90508288611a37565b9650610ae87f0000000000000000000000000000000000000000000000000000000000000000338361129e565b6001840154610b22907f0000000000000000000000000000000000000000000000000000000000000000906001600160a01b03168461129e565b6002840154600181815580860154865460405133946001600160a01b039093169391927feb7062411a6997e25eb45e7e1fb3c88cecbfa57b15d77307553b6bf937f108ba92610b75929091908990611a18565b60405180910390a48360030154846004015403610b9a57610b958661182a565b610ba8565b85610ba481611a60565b9650505b50505050506109c2565b8115610927576109277f0000000000000000000000000000000000000000000000000000000000000000338461129e565b600381815481106103e657600080fd5b604080516001600160a01b0385811660248301528481166044830152606480830185905283518084039091018152608490920183526020820180516001600160e01b03166323b872dd60e01b1790529151600092839290881691610c579190611a8c565b6000604051808303816000865af19150503d8060008114610c94576040519150601f19603f3d011682016040523d82523d6000602084013e610c99565b606091505b5091509150811580610cc75750805115801590610cc7575080806020019051810190610cc59190611abb565b155b15610ce5576040516312171d8360e31b815260040160405180910390fd5b505050505050565b600080548180610cfc83611a60565b9091555060408051610100810182528281523360208201529192508101856001811115610d2b57610d2b611941565b815260208082018690526040808301869052600060608401819052426080850152600160a090940184905285815260028352819020845181559184015182840180546001600160a01b031981166001600160a01b03909316928317825592860151939490926001600160a81b03191690911790600160a01b908490811115610db557610db5611941565b0217905550606082015160028201556080820151600382015560a0820151600482015560c0820151600582015560e0909101516006909101805460ff19169115159190911790559392505050565b60008181526002602052604081206003805460018101825592527fc2575a0e9e593c00f959f8c92f12db2869c3395a3b0502d05e2516446f71f85b820183905590805b8015610f235760006002816003610e5e600186611a37565b81548110610e6e57610e6e611a4a565b9060005260206000200154815260200190815260200160002090506000816002015485600201541180610eba575081600201548560020154148015610eba575081600501548560050154105b905080610ec8575050610f23565b6003610ed5600185611a37565b81548110610ee557610ee5611a4a565b906000526020600020015460038481548110610f0357610f03611a4a565b60009182526020909120015582610f1981611ae4565b9350505050610e46565b8360038281548110610f3757610f37611a4a565b60009182526020909120015550505050565b60035415801590610f5b575060045415155b1561129c576000600260006003600081548110610f7a57610f7a611a4a565b9060005260206000200154815260200190815260200160002090506000600260006004600081548110610faf57610faf611a4a565b600091825260208083209091015483528201929092526040019020600683015490915060ff16610fea57610fe3600061182a565b5050610f49565b600681015460ff1661100057610fe36000611599565b806002015482600201541015611014575050565b60008260040154836003015461102a9190611a37565b90506000826004015483600301546110429190611a37565b90508160000361105f57611056600061182a565b50505050610f49565b80600003611071576110566000611599565b60008183106110805781611082565b825b60028501549091506000670de0b6b3a764000061109f83856119df565b6110a991906119f6565b9050828760040160008282546110bf9190611a79565b92505081905550828660040160008282546110da9190611a79565b90915550506001870154611119907f0000000000000000000000000000000000000000000000000000000000000000906001600160a01b03168561129e565b6001860154611153907f0000000000000000000000000000000000000000000000000000000000000000906001600160a01b03168361129e565b8660030154876004015403611202576000670de0b6b3a76400008860020154896003015461118191906119df565b61118b91906119f6565b90506000670de0b6b3a7640000848a600301546111a891906119df565b6111b291906119f6565b9050808211156111ff5760018901546111ff907f0000000000000000000000000000000000000000000000000000000000000000906001600160a01b03166111fa8486611a37565b61129e565b50505b6001828155878101549087015487546040516001600160a01b0393841693909216917feb7062411a6997e25eb45e7e1fb3c88cecbfa57b15d77307553b6bf937f108ba906112569060009088908a90611a18565b60405180910390a4866003015487600401540361127757611277600061182a565b8560030154866004015403611290576112906000611599565b50505050505050610f49565b565b604080516001600160a01b038481166024830152604480830185905283518084039091018152606490920183526020820180516001600160e01b031663a9059cbb60e01b17905291516000928392908716916112fa9190611a8c565b6000604051808303816000865af19150503d8060008114611337576040519150601f19603f3d011682016040523d82523d6000602084013e61133c565b606091505b509150915081158061136a575080511580159061136a5750808060200190518101906113689190611abb565b155b15611388576040516312171d8360e31b815260040160405180910390fd5b5050505050565b815460005b8181101561145f57828482815481106113af576113af611a4a565b90600052602060002001540361145757805b826113cd826001611a79565b101561142a57846113df826001611a79565b815481106113ef576113ef611a4a565b906000526020600020015485828154811061140c5761140c611a4a565b6000918252602090912001558061142281611a60565b9150506113c1565b508380548061143b5761143b611afb565b6001900381819060005260206000200160009055905550505050565b600101611394565b50505050565b60008181526002602052604081206004805460018101825592527f8a35acfbc15ff81a39ae7d344fd709f28e8600b4aa8c65c6b64bfe7fe36bd19b820183905590805b801561158557600060028160046114c0600186611a37565b815481106114d0576114d0611a4a565b906000526020600020015481526020019081526020016000209050600081600201548560020154108061151c57508160020154856002015414801561151c575081600501548560050154105b90508061152a575050611585565b6004611537600185611a37565b8154811061154757611547611a4a565b90600052602060002001546004848154811061156557611565611a4a565b6000918252602090912001558261157b81611ae4565b93505050506114a8565b8360048281548110610f3757610f37611a4a565b6000600482815481106115ae576115ae611a4a565b600091825260208083209091015480835260029091526040909120600601805460ff1916905590506115e160048361138f565b5050565b6060808267ffffffffffffffff81111561160157611601611b11565b60405190808252806020026020018201604052801561162a578160200160208202803683370190505b5091508267ffffffffffffffff81111561164657611646611b11565b60405190808252806020026020018201604052801561166f578160200160208202803683370190505b5090506000805b85548110801561168557508482105b15611821576000600260008884815481106116a2576116a2611a4a565b600091825260208083209091015483528201929092526040019020600681015490915060ff166116df57816116d681611a60565b92505050611676565b6000816004015482600301546116f59190611a37565b905080600003611713578261170981611a60565b9350505050611676565b60028201546000845b8a548110156117ca576000600260008d848154811061173d5761173d611a4a565b600091825260208083209091015483528201929092526040019020600681015490915060ff1661177a578161177181611a60565b9250505061171c565b8381600201541461178b57506117ca565b6000816004015482600301546117a19190611a37565b905080156117b6576117b38185611a79565b93505b826117c081611a60565b935050505061171c565b828988815181106117dd576117dd611a4a565b602002602001018181525050818888815181106117fc576117fc611a4a565b60209081029190910101528661181181611a60565b9750508095505050505050611676565b50509250929050565b60006003828154811061183f5761183f611a4a565b600091825260208083209091015480835260029091526040909120600601805460ff1916905590506115e160038361138f565b6000806040838503121561188557600080fd5b50508035926020909101359150565b6000602082840312156118a657600080fd5b5035919050565b600081518084526020840193506020830160005b828110156118df5781518652602095860195909101906001016118c1565b5093949350505050565b6080815260006118fc60808301876118ad565b828103602084015261190e81876118ad565b9050828103604084015261192281866118ad565b9050828103606084015261193681856118ad565b979650505050505050565b634e487b7160e01b600052602160045260246000fd5b6002811061197557634e487b7160e01b600052602160045260246000fd5b9052565b8881526001600160a01b0388166020820152610100810161199d6040830189611957565b6060820196909652608081019490945260a084019290925260c0830152151560e0909101529392505050565b634e487b7160e01b600052601160045260246000fd5b808202811582820484141761067a5761067a6119c9565b600082611a1357634e487b7160e01b600052601260045260246000fd5b500490565b60608101611a268286611957565b602082019390935260400152919050565b8181038181111561067a5761067a6119c9565b634e487b7160e01b600052603260045260246000fd5b600060018201611a7257611a726119c9565b5060010190565b8082018082111561067a5761067a6119c9565b6000825160005b81811015611aad5760208186018101518583015201611a93565b506000920191825250919050565b600060208284031215611acd57600080fd5b81518015158114611add57600080fd5b9392505050565b600081611af357611af36119c9565b506000190190565b634e487b7160e01b600052603160045260246000fd5b634e487b7160e01b600052604160045260246000fdfea2646970667358221220fbce982b8ff29b44960a03444d8af77547472d7345f7025d06f3851c3fb71fd564736f6c634300081c0033",
  "linkReferences": {},
  "deployedLinkReferences": {}
}